:10000000200400209900000059040000A300000013
:10001000A3000000A3000000A3000000A300000054
:10002000000000000000000000000000A30000002D
:10003000A300000000000000A3000000A3000000D7
:100040000B0A00006109000065110000951C00000A
:10005000C51B00001D1D0000691D0000651100008A
:100060007D140000951C0000C51B00001D1D000034
:04007000691D000006
:100074004000350040003500502F0000782F00006C
:10008400852F00008D2F00001E2F0000952F0000EB
:100094007047D4D400F006F801F09EFEFEE700BEDF
:1000A4007047D4D4B0B54EF60850CEF200004FF4E9
:1000B4007001C0F8801040F20001C0F2000101603C
:1000C4000020002402F0EFF800F0A2F8012002F072
:1000D400EAF840F22000C2F2000080F30A8800200F
:1000E40000F052F800F07DF800F030F9032000F041
:1000F40040FA40F61050C4F208004FF6FF7100BFFA
:1001040020F8141001340C2CFAD1032000F008FA62
:10011400032000F02EFA0420C4F20E000021016036
:1001240041608160C160032000F0FAF9012000F011
:100134002BF840F60424C2F20004204602F08EFCA0
:10014400204602F09FFC43F2DE1043F2DE11C0F2BF
:100154000000C0F20001081A8410012C09DB43F2EC
:10016400DE15C0F2000500BF55F8040B8047013CC2
:10017400FAD1022002F097F800F08EF90020BDE8D1
:10018400B040FFF785BFD4D4F0B581B042F6C8259E
:10019400C0F200052E68044676B16868071D00BFEA
:1001A4007879844204D157E90101091A02F021FC4B
:1001B400013E07F10C07F3D1AE6886B1E86800F19F
:1001C400080500BF6879844205D155E9020229680F
:1001D400121A02F012FC013E05F11005F2D101B031
:1001E400F0BD4EF22000C4F20100817940F22042B9
:1001F4000068C2F2000252F82110C0F3026021FA32
:1002040000F040F24041C2F2000108607047D4D4CB
:100214002DE9F0414EF2FE34C4F201044CF2001612
:100224004AF20350C4F2010620800120B08000BFCE
:10023400B0880028FCD147F200010120C4F200017B
:1002440030808860086040F2204742F600504CF24B
:10025400002C4EF22005C2F20007C0F2311041F228
:1002640000214FF4004243F20063C0F6EB3CC4F2B9
:100274000105C0F27A01C0F26E1387E80F00C7E9E6
:10028400042CA879296857F82000C1F3026140F2D0
:100294004048C840C2F20008C8F800000020607559
:1002A400092085F8820094F8820018B994F8830034
:1002B400800744D094F8820050B9012084F8820069
:1002C400C820012100F07FF894F882000128FBD1B6
:1002D400002084F8830084F882000020A87400BF02
:1002E400287F0007FCD543F2021028810020A87261
:1002F400287F8006FCD50320307741F22120C2F20A
:10030400010028600520A871A879296857F8200001
:10031400C1F30261C840C8F8000042F20800C4F208
:100324000000F12101710121F022017002714FF4EA
:100334002540297485F832102080BDE8F0814FF4FF
:100344007A7000F001F8C8E77047D4D4B0B543F22E
:100354002404C4F208040025C8200121257100F0FA
:1003640032F8257020780028FCD1207840F0020073
:10037400207000BF20788007FCD4002004F8020C11
:1003840014F8020C0028FBD1002004F11C0100BF6A
:1003940011F8102002F07F0201F8102011F910204A
:1003A400002AFBD401300328F2D1012000F0E1F847
:1003B4004EF2BB41C4F20101002201200A70BDE8E3
:1003C400B04000F0ADB840F24042C2F20002126800
:1003D40041F20023C0F27A039A4201FB00F00FD3EA
:1003E40040F6FF01C0F23D0111444DF68362C4F2B0
:1003F4001B32A1FB0212110DA0FB0101E9B11FE0A8
:100404004CF6002348F63811C3F69A33C0F2410182
:10041400B3FBF2F2884207D24FF47A7100FB01F089
:10042400B0FBF2F0800808E09200B0FBF2F08842E2
:1004340006D24FF47A7100FB01F028B100F005B840
:100444004FF0FF3000F001B8704701380028FCD1AC
:100454007047D4D42DE9F04146F22018C4F20008C4
:10046400B8F80000B8F8201040F2444501EA00064C
:10047400B7B20024C2F2000527FA04F0C00704D082
:1004840055F8241009B1204688470134102CF3D1C3
:10049400A8F81060BDE8F08170B584B048F2480651
:1004A4000320C4F2000600F064F86FF0FF0042F687
:1004B400047430604FF0FF300021C0F200040122C8
:1004C400CDE9020034F8113002FA01F5002B01F1F4
:1004D400010118BFA8430D29F4D14EF280320190D6
:1004E400002001A9CEF2000251F8203006EB80056D
:1004F400AB6242F8203001300328F5D1032000F02C
:100504000FF846F200310020C4F2000134F8102044
:100514000AB141F8202001300D28F7D104B070BD94
:100524000122EFF3108182F3108840F2BC42C2F240
:10053400000232F8103023B132F81030013B22F8B7
:10054400103032F810208AB94EF2FE3CC4F2010C8D
:1005540042F6AC22BCF80030C0F2000232F81000BF
:1005640043F4254222EA0000ACF8000081F310882D
:10057400704780B50122EFF3108182F3108840F2B6
:10058400BC42C2F2000232F810308BB94EF2FE3C8B
:1005940042F6AC23C4F2010CC0F20003BCF800E044
:1005A40033F8103043EA0E0343F42543ACF800302B
:1005B40032F81030013322F8103081F3108880BDF6
:1005C4002DE9F0410A7804464EF21400C4F27F008B
:1005D400012A616051D14A68CB684FF0000CC4E92C
:1005E400102C4FF0010CA36480F804C00B7C4EF275
:1005F400001E91F91120CEF2000E40F288481B0132
:100604000EF54075C2F2000846F20036AB5448F8C5
:100614002240C4F2000656F822700EF5C07327F487
:10062400803746F8227056F8227002F01F070CFA41
:1006340007F75209BFF35F8F43F822704EF8227018
:1006440098220270887C91F913100001685448F8CC
:10065400214056F8210020F4803046F8210056F855
:10066400210001F01F000CFA00F04909BFF35F8F6D
:1006740043F821004EF8210002E0002101710170CD
:10068400204600F081F808B1BDE8F08144F24E51F3
:10069400C4F650712160BDE8F081D4D470B504462D
:1006A4005808A063002084F83C002046C4E90C12DA
:1006B40000F0F4FA00B170BD60680078012804D13C
:1006C400012084F83C00002500E0E5682046294626
:1006D40000F00EFA616809780029ECD14FF48051DA
:1006E400182200F032FBA16B064609B1002EEDD0B2
:1006F40000F092FA002E18BF304670BD70B5044663
:10070400002084F83C0021F03F0020632046A263CF
:1007140000F0C4FA10B14FF4FA7070BD606800784C
:10072400012804D1022084F83C00002500E0656A19
:100734004EF2E000C4F27F000121018020462946E8
:1007440000F042FA61680978002918BF70BD4FF4BF
:100754000051192200F0F9FAA16B064609B1002EE6
:10076400ECD000F059FA002E18BF304670BD4EF29E
:100774008400C4F27F00008810F081024FF0000072
:1007840018BF01220A7070472DE9F04300214EF290
:10079400200280F83C10C4F2010240F24041136888
:1007A400C2F200010968C3F3026501FA05F5C3F357
:1007B400027340F6001425FA03F34EF21645C0F214
:1007C4003D041268C4F20105A3424FF001042C70E9
:1007D4003CBF4FF4FB70BDE8F08344F23F25C0F208
:1007E4000F054DF683642B44C4F21B34A3FB043C75
:1007F400C2F302624FF0FF3323FA02F211400D44B8
:10080400A5FB0412910C43F6B8534AF6AB2401FB42
:1008140003F3C2F6AA24A3FB043E40F6D86301FB0B
:1008240003F3A3FB046849F68176C1F25E66A5FB77
:1008340006694FF4FA264AF6AB2701FB06F6CAF618
:10084400AA27A6FB07634DF68066C0F20F0601FBDC
:1008540006F6A6FB07674FF2A076C0F2030601FB7B
:1008640006F6A6FB04464FF4F0544EF2E40504EBFE
:100874009C44C4F27F052C804FEA99450561CD0064
:10088400A5EB9242520042619A08826140F6B83266
:1008940001FB02F14162B908C0E902E8C0E907615D
:1008A4000020BDE8F083D4D4B0B582B004464068DB
:1008B400017801291FD190F91100012200F01F01D4
:1008C4004EF2801302FA01F14009CEF2000343F81C
:1008D4002010BFF34F8FBFF36F8F606890F9130040
:1008E40000F01F0102FA01F1400943F82010BFF3A0
:1008F4004F8FBFF36F8F4EF21005C4F27F05B5F82A
:10090400740010B9204600F0C9F900F03DFA4FF424
:10091400964101910021C4F27E0150220A7000BF69
:10092400296F090405D4019951B101990139019143
:10093400F6E7297840F2F512C90602EAE17500E00B
:100944001425002818BF054600F066F90021002D83
:1009540018BF284684F83C1002B0B0BD2DE9F04120
:1009640084B04FF07041EFF3038001EB006240F27A
:1009740088419015C2F200010C584EF21000C4F2E6
:100984007F0090F90010006F0B074FEA22660CD429
:1009940000290DD4C9B2C9064FF007080AD510F4CE
:1009A400405F08BF4FF0060804E04FF0040801E080
:1009B4004FF005082046FFF777FF46F20030C4F2F7
:1009C400000050F8261021F4803140F8261050F829
:1009D4002600606C01AE28B1014691E8A8003246B9
:1009E400A8C200E0304600214160A16C226C80F86E
:1009F400008081609047606C10B196E80E000EC0D4
:100A040004B0BDE8F0812DE9F04184B0EFF3038038
:100A14004FF0704101EB006040F288418015C2F252
:100A240000010C5846F20031C4F20001425822F48D
:100A340080324250405894F83C0002280FD00128DC
:100A440023D1A06B70B32046002100F051F8002898
:100A54004AD0204604B0BDE8F041FFF725BFA06BA3
:100A640018B3206B4EF23001C4F27F0108600020FD
:100A7400C4F27E0020210170D0210170206BA16B93
:100A840040302063481EA0632EE04EF23000C4F2D2
:100A94007F0090F8A4004FF00208012808BF4FF02F
:100AA400030804E04FF0010801E04FF0000800F0F3
:100AB400B3F8606C4FF0000C01AE84F83CC028B170
:100AC400034693E8A2003246A2C200E03046A16C7D
:100AD400226C80F80080C0F804C081609047606C8C
:100AE40010B196E80E000EC004B0BDE8F081D4D475
:100AF400B0B581B0A1B94268012392F9112002F086
:100B04001F0C03FA0CFC4EF200135209CEF2000340
:100B140003EB8202C2F880C0BFF34F8FBFF36F8F25
:100B24004EF28002436BC4F27F0240F2000CC4F226
:100B34007E0C42F8503CE8238CF8003002238CF8F9
:100B44000030036B4FF0010E1B88ACF800300369D2
:100B5400009300BF13685B0506D5009B5C1E002B49
:100B64000094F7D11CE000BF00F1300538CD013D01
:100B7400023300F13007023438C75FEACE754FF014
:100B8400000EE1D1D0238CF8003061B1106800046C
:100B940018D4481C013803D01168090412D4F9E7A9
:100BA400142001B0B0BD4068012290F9110000F09A
:100BB4001F0102FA01F14EF200124009CEF20002C6
:100BC40042F820100020ECE780B5036B4EF2300EA3
:100BD400C4F27F0E40F2000CCEF80030C4F27E0C5A
:100BE40020238CF80030D0238CF80030036B826B08
:100BF4004033013A0363826351B1DEF850000004CC
:100C040006D4481C013805D0DEF850100904F9D583
:100C1400002080BD142080BD4EF28401C4F27F0107
:100C24004FF42A40B1F800C00880088868B14BF23C
:100C340000530020CFF6FF73002B08BF4FF4FA7067
:100C44000A880133002AF7D100E00020BCF1800FAC
:100C54001AD0BCF1010F18BF70474CF200124DF6C8
:100C64000113C4F2010221F8403C0121918000BF2C
:100C740091880029FCD10121118047F20002C4F2BD
:100C8400000291601160704747F20001C4F2000154
:100C940001224A604A68002AFCD1704710B581B02D
:100CA4004FF49641009141680A78012A36D191F9AE
:100CB400111046F20032C4F2000252F821304EF212
:100CC400001E23F4803342F8213052F8213001F021
:100CD4001F034FF0010CCEF2000E0CFA03F30EF5D5
:100CE400C0744909BFF35F8F44F821304EF82130B6
:100CF400406890F9130052F8201021F4803142F832
:100D0400201052F8201000F01F010CFA01F14009E4
:100D1400BFF35F8F44F820104EF820104EF2840089
:100D2400C4F27F004AF68021018000BF0188802937
:100D340005D0009929B1009901390091F6E7002006
:100D440001E04FF4FA7001B010BD10B514464EF234
:100D54001002C4F27F021378DB0601D4002307E0FB
:100D6400136F5B0402D513780023137040F2F5135C
:100D7400126F0A4208BF1C46002818BF04460CB173
:100D840000F002F8204610BD81B04FF496414EF2B7
:100D9400100000910021C4F27F00C4F27E01B3224E
:100DA4000A7000BF016F090405D4009951B100997C
:100DB40001390091F6E7007840F2F511C00601EA26
:100DC400E07000E0142001B07047D4D42DE9F04164
:100DD4000D7C024600200124032D88BF012004FA63
:100DE40005F51074D560087C49F20005C4F21605B7
:100DF40005EB00209060D1E9050500275160D5611D
:100E0400C2E90507D1F81C80EFF3108084F3108841
:100E140044F210050C7CC4F208054FF0004C2E6817
:100E24002CFA04F4A6432E602E6880F31088906890
:100E34004FF4254606609068C7629068C76390685F
:100E440087640E78087A032E96684FEAC0504D687E
:100E540008BF00F58030F0629068C0F810C0906858
:100E6400C0F814C09068C0F818C0906847629068D1
:100E74008762D8F818009668F061D8F81C00966864
:100E8400306290686E1E8666906846665068D8F830
:100E940050C0C06900F1300490F84860FE40F60785
:100EA4000DD03B4654F827609568042F08BF0323F0
:100EB400032F08BF0423013E05EB8303DE640137DF
:100EC400062FE9D19068002383639068C0F88830C6
:100ED400D8F8500040B998F8200098F82130400321
:100EE40040EA43704CEA000C98F8480093680028E4
:100EF4004FF4A00008BF4FF4AA00186490680323BD
:100F0400C0F834C090684EF2001C0363936801205B
:100F14001863D2E9023740F2884EDF6091F912403B
:100F240046F20033CEF2000CC4F20003002CC2F2ED
:100F3400000E1BD4497C0CEB0405090185F8001351
:100F44004EF8242053F8241021F4803143F824105F
:100F540053F8241004F01F01884061090CEB81044C
:100F6400BFF35F8FC4F880014CF8210098F9280082
:100F740000281ED498F822100CEB0004090184F810
:100F840000134EF8202053F82010012421F480315E
:100F940043F8201053F8201000F01F01400904FA10
:100FA40001F10CEB8004BFF35F8FC4F880114CF89F
:100FB400201098F9290000281ED498F823100CEB6F
:100FC4000004090184F800134EF8202053F820107F
:100FD400012421F4803143F8201053F8201000F04C
:100FE4001F01400904FA01F10CEB8004BFF35F8F89
:100FF400C4F880114CF8201098F92A0000281ED457
:1010040098F824100CEB0004090184F800134EF83E
:10101400202053F82010012421F4803143F82010BB
:1010240053F8201000F01F01400904FA01F10CEB01
:101034008004BFF35F8FC4F880114CF8201098F936
:101044002B0000281ED498F825100CEB000409018D
:1010540084F800134EF8202053F82010012421F4C2
:10106400803143F8201053F8201000F01F0140098C
:1010740004FA01F10CEB8004BFF35F8FC4F8801114
:101084004CF8201098F92C0000281ED498F826104B
:101094000CEB0004090184F800134EF8202053F8E7
:1010A4002010012421F4803143F8201053F820103B
:1010B40000F01F01400904FA01F10CEB8004BFF3B6
:1010C4005F8FC4F880114CF8201098F92D00002887
:1010D4001ED498F827100CEB0004090184F80013BF
:1010E4004EF8202053F8201021F4803143F82010CA
:1010F40053F8201000F01F010123400903FA01F105
:101104000CEB8003BFF35F8FC3F880114CF8201001
:1011140045F25401C0F2470100201160BDE8F0819E
:10112400D0E9021200204A60704780B5D0E9011E60
:10113400C969D1E901C3CA6843F00043CEF8143049
:10114400836842F000429A6182684CF00043136164
:101154000A6983685A62496982680020916280BD85
:101164002DE9F04184B0EFF303814FF0704246F271
:10117400003002EB0161C4F200008A15135823F415
:1011840080331350135840F28843C2F2000353F8DB
:101194000280D8F804201378012B40F0B180D8E9FC
:1011A4000235D2699D60D8F8083000259D64D8F8CE
:1011B40008300916DD64D8F808304EF2802C1D651D
:1011C40050F82130012523F4803340F8213050F8C1
:1011D400213001F01F03CEF2000C05FA03F3490994
:1011E400BFF35F8F4CF8213092F84830D90717D0FD
:1011F40092F92850002D13D450F82510012321F41E
:10120400803140F8251050F8251005F01F0103FA2D
:1012140001F16B09BFF35F8F4CF8231092F848304B
:10122400990715D592F92930002B11D450F82310C1
:10123400012521F4803140F8231050F8231003F0E5
:101244001F0105FA01F15B09BFF35F8F4CF823100E
:1012540092F92A30002B11D450F82310012521F4DF
:10126400803140F8231050F8231003F01F0105FAD1
:1012740001F15B09BFF35F8F4CF8231092F92B3017
:10128400002B11D450F82310012521F4803140F8AB
:10129400231050F8231003F01F0105FA01F15B0934
:1012A400BFF35F8F4CF8231092F92C30002B11D42C
:1012B40050F82310012521F4803140F8231050F810
:1012C400231003F01F0105FA01F15B09BFF35F8FDF
:1012D4004CF8231092F92D20002A11D450F8221032
:1012E40021F4803140F8221050F8220002F01F004F
:1012F400012101FA00F05109BFF35F8F4CF821007E
:10130400D8F81410B9B1D8F8180001AD28B10346C3
:1013140093E8D0002A46D0C200E02846D8F81C3012
:1013240000220271826003608847D8F8180010B167
:1013340095E80E000EC004B0BDE8F081F0B591F957
:1013440002300246037146F20030C4F200004FF04E
:10135400000E50F823C040F823E08B680C789360AB
:10136400CB684FF60057D36044EA0003CFF6FF770B
:10137400547103F807E04D790E79CC78ED0145EA14
:1013840006162643DE5592F9043040F823C092F93C
:10139400040000280CD449784EF200430901CEF22F
:1013A4000003C15440F28841C2F2000141F82020F8
:1013B40044F25531C0F2490100201160F0BD90F9AA
:1013C400040046F20031C4F2000151F8202022F456
:1013D400803241F8202051F8201000F01F01012232
:1013E40002FA01F14EF200124009CEF2000202EBC1
:1013F4008003BFF35F8FC3F8801142F820100020F0
:10140400704790F90400012200F01F0102FA01F173
:101414004EF280124009CEF2000242F82010BFF3CF
:101424004F8F0020BFF36F8F704703460020C3E93E
:1014340002127047014690F90400002818D400F005
:101444001F02012303FA02F24EF280134009CEF286
:10145400000343F82020BFF34F8FBFF36F8F91F940
:10146400040040F28842C2F20002002342F8203015
:10147400002200200A60704770B582B04FF07041BE
:10148400EFF3038001EB006140F288428815C2F259
:101494000002105846F200344279C4F200044FF6B8
:1014A40000532243CFF6FF73D25C0D1602F00306FD
:1014B400032E07D054F8251021F4803144F8251068
:1014C40054F82510816829B14279C068CDE9000239
:1014D40068468847032E07D154F8250020F480304D
:1014E40044F8250054F8250002B070BD80B545F2DB
:1014F4005422C5F24F020260084600F019F8002099
:1015040080BD80B56FF0010000EAD11040F2000CFC
:101514000101C4F2080C5CF801E003EA020040EAAD
:101524000E0062EA0302024000204CF8012080BD54
:1015340070B5044600F05CF840F2844CEFF3108080
:10154400012181F31088C2F2000CDCF8001039B9D3
:1015540040F60351C4F2080100220A7040220A70C6
:10156400DCF800100131CCF8001080F310882088DA
:1015740010B340F6000E0021C4F2080E606800EBC0
:10158400C102928850F83130100ADD03D2B20BD573
:101594000EEB801555F8226026F4803645F822605B
:1015A40023F4803645F822600EEB801040F8223098
:1015B400208801318142E1D3EFF31081012080F3CF
:1015C4001088DCF8000020B1DCF800000138CCF809
:1015D4000000DCF8000038B940F60350C4F20800FB
:1015E400002202708022027081F3108870BDD4D46E
:1015F4002DE9F04F81B00446008800285CD043F206
:1016040040084EF2BB4A42F6C03BC4F2080800262A
:10161400C4F2010AC0F2000B4FF00109002700BF19
:1016240060683BF8172000EBC600818891423CD1EA
:1016340000689AF8001000F0B85009FA07F5B0F104
:10164400807F05EA010015D150B90120FEF791FF12
:101654009AF8000028438AF800000120FEF760FF92
:1016640018F91700002820D418F8170040F080005B
:1016740015E000BF50B10120FEF77BFF9AF800008F
:10168400A8438AF800000120FEF74AFF18F9170062
:10169400B0F1FF3F09DC18F8170000F07F0008F8EC
:1016A4001700C8200121FEF78EFE0137032FB7D1A2
:1016B400208801368642B1D301B0BDE8F08F0A78A4
:1016C4000123934013F0060F05D0CB695B681B78A8
:1016D4001B0700F1E1802DE9F04748F20003C4F252
:1016E400110343EA0222D1E905364FF000084362B0
:1016F4008378C66223F003035E1C86704E78026210
:1017040080F80080C161C0F8288016B943F0020354
:10171400837091F90B704EF2001CCEF2000C07F0AE
:101724001F044FF0010E0EFA04F60CF180047A093E
:101734008D7A44F8226046F2003ABFF34F8FC4F228
:10174400000ABFF36F8F5AF8272040F2884922F429
:1017540080324AF827205AF827202A010CF54075D0
:10176400EA5591F90520C2F2000902F01F060EFAAB
:1017740006F6530949F827000F7944F82360BFF3AC
:101784004F8FBFF36F8F5AF8223023F480334AF817
:1017940022305AF822303B01AB5449F8220091F927
:1017A40007208B7902F01F060EFA06F6570944F853
:1017B4002760BFF34F8FBFF36F8F5AF822601B016E
:1017C40026F480364AF822605AF82260AB5449F86D
:1017D400220091F909200B7A02F01F060EFA06F690
:1017E400570944F82760BFF34F8FBFF36F8F5AF840
:1017F40022401B0124F480344AF822405AF8224043
:10180400AB5449F82200EFF310828EF3108844F2AF
:1018140004050B78C4F208054FF000442E6824FA3E
:1018240003F326EA03032B602B6882F31088026A11
:1018340082F80280026A82F80480026A82F80980CF
:10184400026A82F80A80026A82F80B80026AA2F8AD
:101854001A800A780EFA02F340F2F932134202D0E7
:10186400036A4024DC74036A06241C770B780EFA9E
:1018740003F3134203D0026A4FF478439382CA7885
:101884004E788B78D20042EA03123EB1032E08BF91
:1018940042F04002F22602E00322B0E0E226036AAC
:1018A40002271A70026A00259671CA69137B07EA37
:1018B4004307082B036A08BF0A275F73066A537835
:1018C400977835721678056A06F0FE06022E4FEAFE
:1018D400C31667F3451609D1FF236B701278022AE9
:1018E400026A08BF46F01006D67116E0EE7152681F
:1018F400036A97785F7057781E7807F0030706F03D
:10190400FC0637441F70D7789F74DF79127807F08C
:10191400A30702F05C023A44DA710022C369C0E909
:101924000322C0E90522D1F81CE093F905309EF8A2
:1019340000105AF8234003F01F0524F480344AF8B9
:1019440023405AF82340012404FA05F60CF5C07527
:101954005B09BFF35F8F45F823604CF82360C369CC
:1019640093F90B305AF8236026F480364AF8236042
:101974005AF8236003F01F0604FA06F65B09BFF366
:101984005F8F45F823604CF82360C36993F90730EF
:101994005AF8236026F480364AF823605AF8236004
:1019A40003F01F0604FA06F65B09BFF35F8F45F8E0
:1019B40023604CF82360C36993F909305AF8236013
:1019C40026F480364AF823605AF8236003F01F0691
:1019D400B4405B09BFF35F8F45F823404CF82340C4
:1019E4001C23076A63F39F01B970BEF80A100181D2
:1019F40044F65511C5F243314160BDE8F047104645
:101A0400704703460020C3E90512704780B5D0F83B
:101A140020E09EF802C00CF07B038EF8023083783D
:101A240003F00303A2EB030C0B44026AC0E9033C7A
:101A3400937843F080039370827802F00302022AC1
:101A440005D10988006A41F47E41C18102E0097828
:101A5400006AC170002080BD10B5C26901231278EC
:101A640003FA02F212F0060F02D00A78120723D406
:101A7400026A4FF0000E92F802C00CF00B03937050
:101A8400036A8A78C0F80CE05A704A781C7802F02D
:101A9400030204F0FC0422441A70CA789A74DA79B6
:101AA400097802F0A30201F05C011144D971006AC3
:101AB4000CF07B01817001E04FF0030E704610BD05
:101AC4004FF0FF3200200A604A6070478A0701D451
:101AD400062206E0026A937803F07B0393700022E7
:101AE4000261C9071CBF0022826110467047844608
:101AF400C0E909130020CCF82C207047026A0021A9
:101B040041609170C1694EF2801C91F90520012158
:101B140002F01F0301FA03F35209CEF2000C4CF851
:101B24002230BFF34F8FBFF36F8FC26992F90B203E
:101B340002F01F0301FA03F352094CF82230BFF3F9
:101B44004F8FBFF36F8FC26992F9072002F01F0312
:101B540001FA03F352094CF82230BFF34F8FBFF35D
:101B64006F8FC26992F9092002F01F0301FA03F38F
:101B740052094CF82230BFF34F8FBFF36F8FEFF34E
:101B8400108281F31088C06944F204030078C4F21F
:101B940008034FF0004C19682CFA00F00843186051
:101BA400186882F310880020704702468069086034
:101BB400002100209161704706207047062070477D
:101BC400EFF303804FF0704101EB006046F2003107
:101BD4008015C4F20001425822F480324250415828
:101BE40040F28841C2F200010858C1690A690169DA
:101BF400C2B9C1B1817801F00302C168022A05D1DA
:101C04000988026A41F47E41D18102E00978026ABE
:101C1400D1708178026901F00303D11AC2680161AD
:101C24001A44C26071B9016A8A7802F07B020432F4
:101C34008A70416A00294FF00001C16002D08022FD
:101C440000F001B870472DE9F04385B08146806A01
:101C54000DF1040830B1054695E8D800C4468CE877
:101C6400D80000E04046D9F81C30D9F824701B781D
:101C7400D9F82C6003600271C0E90216B847D9F89C
:101C8400280010B198E88E008EC005B0BDE8F0833E
:101C940010B582B0EFF303804FF0704101EB0060A8
:101CA40046F200318015C4F20001425822F4803219
:101CB4004250415840F28841C2F200010C58A078C9
:101CC40000F00302206A022A03D1018A6FF35F2124
:101CD40000E04179A069019198B1606901A900F01F
:101CE4008CFEA0786169A26900F003000144101A17
:101CF4006161A0610ED1606A60B1204600210122B9
:101D040003E0606A30B12046042202B0BDE810400E
:101D1400FFF799BF02B010BD10B54FF07041EFF35B
:101D2400038001EB006140F288428815C2F2000290
:101D340010580C16026A937803F07B039370426A7E
:101D44001AB100210222FFF77EFF46F20030C4F2EE
:101D5400000050F8241021F4803140F8241050F889
:101D6400240010BD4FF07041EFF3038001EB006CD1
:101D740040F288414FEAAC50C2F200010858817821
:101D8400036A01F00301022903D1198A6FF35F2169
:101D940000E0597910B51A79D40602F0380204D556
:101DA4001C7F64F3861282F040021C7904F0C7049D
:101DB4001C71436A4FEA2C640BB1FFF744FF46F2EF
:101DC4000030C4F2000050F8241021F4803140F8AF
:101DD400241050F8240010BD80B500F04CFA002007
:101DE40080BD40F6A010C4F2080040F60501016071
:101DF400704740F69C00C4F2080040F605010160FB
:101E0400704740F62000C4F2080040F60501016066
:101E1400704740F61800C4F2080040F6050101605E
:101E2400704740F6A010C4F2080040F604010160B7
:101E3400704740F69C00C4F2080040F604010160BB
:101E4400704740F61800C4F2080040F6040101602F
:101E54007047D4D40121EFF3108081F3108840F24D
:101E64008441C2F200010A683AB940F60352C4F24E
:101E74000802002313704023137082B00A6840F2F2
:101E8400B05601320A6080F31088C2F200060020C6
:101E9400C6E9000042F6807042F6804141F68B723A
:101EA400C0F20000C0F20001C0F20002002300F002
:101EB4002CF940F2B851C2F200010860307842F6C1
:101EC4009D7840F20477C0F2000801ADC2F2000729
:101ED400032429E000F0E2FA00F014FD00F0F0F928
:101EE4000220012100222B4600F05EF810B9F868A8
:101EF40000F0E7F80120012100222B4600F054F8FD
:101F040000B934700420012100222B4600F04CF863
:101F14000028F7D13078022806D1DBE700284FF0FB
:101F2400040008BF01203070C1B20529FCD8DFE8E5
:101F340001F0170F0B081C03BFF34F8F022030BFB3
:101F4400F1E700F0A8FAE9E7404600F099F8C1E7A4
:101F540000F077FA00284FF0040008BF0220E2E7FF
:101F640000F0B2FC00F0FCF9D8E7012000F0BDF865
:101F740042F66C70C0F2000000F082F8002000F01D
:101F8400B4F802B0FEE7012818BF704740F20470AD
:101F9400C2F20000C16040F2B050C2F200004168D9
:101FA40041F00201416070472DE9F04740F2B0581A
:101FB4001C4615468946074601F0FD0AC2F2000890
:101FC4008E1E00BFD8F8040004B12060022E00EA7F
:101FD400070007D3B9F1010F0DD80146002818BF37
:101FE400012103E0391AB1FA81F14909BAF1010F6B
:101FF40000D161B989B935B101204FF47A71013D3D
:10200400FEF7E1F9DEE74FF0FF30BDE8F087D8F8DE
:10201400041021EA0000C8F804000020BDE8F0879D
:1020240040F2B052C2F20002536840EA030050602A
:1020340001B108600020704740F2B052C2F20002C1
:10204400536840EA0300506001B108600020704703
:1020540040F2B050C2F20000416841F00801416012
:10206400704750B1014640F2C050C2F20000016016
:10207400042088600020C86170474FF0FF3070472B
:1020840070B5D8B1054600F0C9FC40F2D4560446F8
:10209400C2F20006B068C007FCD1B068F36840F033
:1020A4000100B0602846214600229847B068C00766
:1020B400FCD1B06840F00200B06000E0002420468B
:1020C40070BD10B540F20804C2F200046068FFF766
:1020D400D7FF42F62670C0F20000FFF7D1FF206858
:1020E400FFF7CEFF4FF0FF3010BD052884BF4FF03F
:1020F400FF30704780B540F20801C2F2000151F888
:102104002000FFF7BDFF002080BD2DE9F047994670
:102114008B6890460E46D1E900211B688246104622
:102124009847B16832688D6942F2AD1140F2C453E8
:102134000446C0F20001C2F2000310460022002748
:10214400A84720432DD140F2D450C2F2000051469A
:10215400082200F06BFC40F20061C2F200010E6044
:1021640042F24D21C0F2000142F2772200F10C0349
:10217400C0F2000283E8060140F20461C2F20001E9
:10218400C0E9081740F2D4574FF48072C2F2000736
:10219400B9F1000F826218BFC0F818903846FFF7F3
:1021A40060FF3846BDE8F087017903290BDC01297B
:1021B40039D002290CD140F2D450C2F20000816817
:1021C40021F001010DE004290DD0802908BF7047DA
:1021D40040F2D450C2F20000826842EA016141F048
:1021E4001001816070478068C1B2082911D041B2E2
:1021F4000A2919D1B0B540F2D454C2F20004D4E98A
:102204000801002545546269216A012090476562EE
:10221400B0BD40F2D450C2F20000416A0129A2BF0D
:10222400013941627047704740F2D451C2F2000153
:102234008A68D1E90823D054D1E9092001388242BF
:10224400B8BF01324A62704710B540F20062C2F270
:10225400000212680C46936811689B68024608469F
:10226400114622469847002818BF4FF0FF342046F5
:1022740010BD00207047B0B5202440F2D840C4F20D
:1022840008040025C2F200004FF480714FF6FF727B
:102294004FF6FF732580FFF734F9A560E560BDE8CC
:1022A400B040FFF7D7BD022818BF704740F2D840AE
:1022B40042F6F861C2F20000C0F20001FFF716B95D
:1022C40040F20470C2F200000068C00708BF704703
:1022D40000F000B810B540F20474C2F200042068A3
:1022E40020F0010020602068800758BF10BD012045
:1022F4000021FFF795FE206820F00200206010BD49
:1023040050B180B5014640F20470C2F200004C2284
:1023140000F073FBBDE8804040F20470C2F200009C
:1023240000214FF4486200BF00EB41030131102942
:102334009A85F9D140F20470C2F200007047D028A7
:1023440009D038B9087842F6F871C0F200018968FA
:1023540081F8580070470846114600F0AEBAD4D44C
:10236400B0B542F63E70C0F20000FFF789FEFFF7F9
:1023740038FD43F20C01C0F200010020202200F0DD
:102384001BFA43F22C01C0F200010120202200F0CC
:1023940013FA43F24C01C0F200010220202200F0A3
:1023A4000BFA43F26C01C0F200010320202200F07A
:1023B40003FA43F28C04C0F20004042021462022D4
:1023C40000F0FAF9052500BF28462146202200F036
:1023D400F3F90135082DF7D143F2AC00C0F2000047
:1023E400142100F05DFA43F2C000C0F20000202185
:1023F40000F05CFA40F25070C2F200000024446520
:1024040042F6AC70C0F20000FFF77AFF40F2BC5510
:10241400C2F20005286040F2E04042F62C41C2F2CC
:102424000000C0F20001FFF74AF92820C4F20800B6
:10243400046044602868002808BF4FF0FF34204639
:10244400B0BD10B542F65870C0F20000FFF718FE98
:1024540040F24054C2F2000442F6E441C0F20001EA
:102464002046FEF7B3FC2046FEF75FFE2046FEF74B
:1024740057FE40F2C844C2F2000442F6F831C0F2FA
:1024840000012046FEF75AFF2046FEF798FFFFF7AB
:10249400C8FC002010BD00207047D4D470B540F2B1
:1024A4005074C2F20004207802283ED0012831D0B2
:1024B400002840D143F2E001C0F20001D1E9001C40
:1024C40040F2410E0A7E40F2BC51C2F200010B6898
:1024D40000200121C0F6000E6065A064E06400BF26
:1024E400E66C01FA00F5002A18BF2E43E6641ABF11
:1024F4001EF8205001FA05F500255E6A01303543C7
:1025040008285D62ECD100208CF8000001202070C6
:10251400FFF77FFC94F85400C0070CD00220207011
:102524000020E064FFF78DFC05E0D4E9120181424C
:1025340004BF03202070002070BD80B5FFF759FC54
:1025440040F20470C2F200002C3000F0BFF8FFF734
:1025540070FC04200021BDE88040FFF76DBD40F20F
:102564005070C2F20000416D81F001014165704775
:102574000179042940F0908080686FF0090151FAD4
:1025840080F1162908D8012202FA01F10922C0F2C9
:102594004002114218BF704710B540F64C04C2F215
:1025A40000042178042900F27580C2B2DFE801F04A
:1025B400034419300800532A5ED10120208069E0C9
:1025C400502A43D140F65210C2F20000027820791A
:1025D400E270572803D1A078611DFFF7B0FE0020F8
:1025E40057E0D021392A88BFC921014440F651104F
:1025F400C2F200006278037811439A00914061703E
:102604000178B1B9012101700020A070032040E0DD
:10261400D021392A88BFC921014440F65110C2F2A1
:102624000000A278037811439A009140A1700178C8
:1026340031B30178013907E020710220207040F69F
:102644005110C2F200000121017023E040F6511143
:10265400C2F200010B78012B1FD1392A40F6521225
:10266400C2F2000288BF393012780001224450714E
:102674000878013808700DE0FFF7C3FB052008E077
:102684000121017040F65210C2F2000000210170D5
:1026940004202070BDE81040704740F6521CC2F27E
:1026A400000C9CF80030392A4FF0D002234488BF34
:1026B400C9225C79104420435871012008709CF8A9
:1026C400000001308CF80000E4E7D4D42DE9F04791
:1026D400044642F6F870C0F200000668D0E90287AA
:1026E40000254FF002094FF0010A00BF3068007E58
:1026F40001285BD13068807E012813D1B87834F882
:1027040010007168096901FB00F07168000C4880D1
:10271400F87834F810007168096901FB00F07168F9
:10272400000C88807068007802281FD0012815D01A
:10273400D0BB98F80000022836D1306880897168CF
:1027440000EB800040008860706880687168002831
:102754004FF0010008BF0220087025E0706881680E
:10276400706851B18168013981601DE070688068CA
:10277400B8B170688068013814E080F80090284689
:1027840000F0B5F83068008A716800EB8000400002
:102794008860D8F848000AFA05F10843C8F84800E8
:1027A40002E0002071688860083604370135082D7E
:1027B40008BFBDE8F08799E740F24013C0F6000374
:1027C40003EB801000F000B8F0B581B00E46012193
:1027D40001EB9211ADF80210BDF8021040F6541747
:1027E400C2F200071546044689013846FF2200F06C
:1027F400FBF8384631462A4600F0FFF840F6D41577
:10280400C2F20005287870B940F2605042F60451D3
:10281400C2F20000C0F20001FDF7D2FE08B100BF11
:10282400FEE701202870BDF8022040F26050C2F299
:1028340000002146FDF762FF08B100BFFEE740F249
:102844006055C2F200050DF1010600BF284631466D
:10285400FDF78DFF9DF801000028F7D1BDF80200B7
:1028640040F65411830140F26050C2F20000C2F2FB
:1028740000012246FDF712FF08B100BFFEE740F257
:102884006054C2F200040DF1010500BF2046294640
:10289400FDF76DFF9DF801000028F7D101B0F0BDF0
:1028A4000A4601464FF00060FFF78EBF0A46014614
:1028B4004020C0F60000FFF787BF0A460146C0204B
:1028C400C0F60000FFF780BFB0B543F2681CC0F249
:1028D400000C40F6D81EBCE81F00C2F2000EAEE8A1
:1028E4001F009CE83E0000208EE83E00B0BD40F68C
:1028F400D81100EB8000C2F2000101EB800001213D
:10290400417070472DE9F04740F6D81240F2047A3E
:102914004FF0000C4FF0010EC2F20002C2F2000AA6
:102924004FF6FE784FF0FF0902240125002000BF76
:1029340000EB800002EB80067078376902280BD028
:10294400012849D13878FF281BD0786879787470C9
:10295400C6E9010140E000BF3878411E032938462A
:1029640029D8DFE801F0021C111630780AEB400187
:10297400888D7B881844404538461CD8888D184477
:1029840017E086F8019027E0F06886F801E03061EE
:1029940011E0307879880AEB400081850AE03078CC
:1029A4000AEB4001888D7B889842384603D9888D8C
:1029B400C01A88853846B16811B1481EB0600BE072
:1029C40071687B78B36011B1481E706004E0083010
:1029D400306186F801C000BF0120E9074FF000050F
:1029E400A6D10020BDE8F0870B4611461A4600F038
:1029F4000DB80A46002100F009B810B500239A4228
:102A040003D0CC5CC4540133F9E710BD00239A42CF
:102A140008BF7047C1540133F9E7D4D4034613F80F
:102A2400012B002AFBD1181A0138704770B5002316
:102A340052B1044611F8016B551E04F8016B4EB1F6
:102A4400012A2A46F6D105E00025044602E004F8EE
:102A5400013B013D002DFAD170BDD4D410B5054918
:102A64000446054AFFF7C9FF044805492044FFF717
:102A7400C0FF10BD94000000000000000000000032
:102A8400000000000249401A02490860704700BF74
:102A940008000000000A0020060007000800D4D443
:102AA400030000009C2A000001000200080010003E
:102AB4002000D4D40000006800000068200000203A
:102AC4002000002005000000E02A000009000000AA
:102AD4001C2B000002000000B82A0000000000685F
:102AE40000000068000100080000006800000068A1
:102AF4000001000820000020200000200000000346
:102B040040040020040A002000000003040A0020FE
:102B1400040A0020000000030000006800000068B0
:102B24000000006000010C0800000068000000685C
:102B3400000000700001090800000068000000683F
:102B4400000000080001020800000068000000689E
:102B540074000000000101080000002000000020B3
:102B64000000006000010C030000002000000020B1
:102B74000000007000010903000000200000002094
:102B840000000008000002030000002020000020D4
:102B94007400000000000103040A0020040A00205D
:102BA400940000000000010341130000C31300005F
:102BB400071400002F140000391400000204030459
:102BC4000404D4D4C3160000071A0000111A00002C
:102BD4005D1A0000C51A0000D11A0000F31A0000A3
:102BE400011B0000AF1B0000BD1B0000C11B000047
:102BF40000D4D4D40A0C08000301000063250000AB
:102C040000000000F42B0000C8040020F82B000092
:102C1400AC2B000000010000000000200F00FFFFAB
:102C240000000000FFFF0000000200000C090C0A75
:102C34000C0B0C0C000000000000000075250000C7
:102C440000000000182C0000000100000400002017
:102C54000F00FFFF00000000FFFF0000070200005C
:102C64000C030C040C050C0600000000000000001E
:102C740000000000000000004C2C000010050020A3
:102C8400602C0000C82B00000000000000000000C1
:102C94000000000000000000000000000000000030
:102CA40000000000000000000000FFFFFFFFFFFF26
:102CB400DFDFDFDFDFDF00000000000000000000D6
:102CC4000000000000000000000000000000000000
:102CD40000000000000000000000000000000000F0
:102CE400000000001027000000000000881300000E
:102CF400000202003F250000000000008C2C0000B0
:102D04000100000055200000000000000000000049
:102D140001000101008000000000000000800000AC
:102D2400010000000080000002000000008000009C
:102D34000300000000400000040000000040000008
:102D4400050000000400000006000000040000006C
:102D540007000000040000000800000000800000DC
:102D64000E000000008000000F00000000000100C1
:102D740008010000040C000007020000000001002C
:102D840000030000040C000003030000000C011108
:102D940005030000000C011106030000000C0111E2
:102DA40007030000000C011108030000000C0111CE
:102DB40009030000000C01110A030000040C0000C8
:102DC4000B0300001040000000040000000C011779
:102DD40001040000000C011702040000050C0000AF
:102DE40003040000040C000004040000000C01179C
:102DF40005040000000C011706040000000C011378
:102E040007040000040C0000080400001040000047
:102E140009040000000C01040A040000000C010471
:102E24000B040000000C01070E040000000C010755
:102E34000F040000000C011300050000000C011336
:102E440001050000400C010405050000400C0104CC
:102E540006050000000C01070B050000000C01072B
:102E64000C050000040C000008060000000001101E
:102E740009060000000001100A060000040C00000E
:102E84000B060000000001050D060000000001050E
:102E94000E060000050400000F060000000C0117D8
:102EA40000070000000C011701070000000C0117C7
:102EB40002070000000C011703070000000C0117B3
:102EC40004070000000C0117050700000040000083
:102ED400060700000000011407070000104000006E
:102EE40005090000000C0114000B0000000C011483
:102EF400010B00003C000000182D00000000000041
:102F040031003000C600AA01AB01AC01AD01D8000C
:102F14000B0080018101820183011B5B323B33344E
:102F24006D004E6F20636F6D6D616E647320696E0A
:102F34007374616C6C6564210A000A5345515545EC
:102F44004E4345522052455345540A001B5B323BC5
:102F540033376D000A53455155454E43455220536E
:102F64005441525455500A000A415050204552527F
:102F74004F520A001B5B323B33316D00434F4E31DD
:102F8400001B5B323B33326D001B5B323B33336DD2
:102F9400001B5B323B33356D000A415050205255C3
:102FA4004E4E494E470A00D40000000000000000C5
:102FB4000000000000000000A42A00000C2C000007
:102FC4000000000020000840000000000000000095
:102FD40000000000000000000000000000000000ED
:102FE40000000000000000000000000000000000DD
:102FF40000000000E030000000000008500700203E
:1030040040000008C0000008E40C480DB80BE803B9
:103014004C048403050005000A00000000000000C1
:1030240001000100000001008813EC13A00FE80365
:103034004C0484030A001400640000000000000033
:103044000100010000000100E02EEA2E722EE803C8
:103054004C04840302001E000A000000000000006B
:103064000100010000000100600965095B0900001E
:10307400000000003C000000000000000000000010
:103084000100020000000100600965095B09E80312
:103094004C0484033C000000000000000000000019
:1030A400000000000000010000000001000000001A
:1030B400000000000000000000000000010B0001FF
:1030C400010C0203010F00000003030300040404C5
:1030D400000505050006060600070707400100086D
:1030E400AC07002080010008C0070020C0010008D0
:1030F400D407002000020008E8070020400200086E
:10310400FC0700208002000810080020C00200080C
:1031140024080020000300083808002000010000F3
:103124000A00000001014000F4010000000A000050
:10313400E8030000040A409CE8030000FF000000CC
:1031440000000000000A0000E803000001010A007A
:10315400E8030000040A0080E8030000FF00000008
:10316400000000000000000000000000000000005B
:1031740020310000203100000100000000000000A8
:10318400000000004831000048310000000005063E
:10319400362E352E30004275696C74207769746858
:1031A4002052656E6573617320416476616E636558
:1031B4006420466C657869626C6520536F66747729
:1031C400617265205061636B616765207665727317
:0A31D400696F6E20362E352E300094
:020000040100F9
:04A10000FFFFFFFF5F
:04A20000FFFDFFFF60
:04A28000F8F8FFFFEC
:040000030000009960
:00000001FF
