:100000002004002085000000450400008F0000004F
:100010008F0000008F0000008F0000008F000000A4
:100020000000000000000000000000008F00000041
:100030008F000000000000008F0000008F00000013
:100040000F07000065060000DD0D00000D1900001F
:100050003D18000095190000E1190000DD0D0000B9
:04006000F510000097
:10006400400035002C2900005429000061290000BB
:0C00740069290000FA2800007129000032
:100080007047D4D400F006F801F0E4FCFEE700BEAF
:100090007047D4D4B0B54EF60850CEF200004FF4FD
:1000A0007001C0F8801040F20001C0F20001016050
:1000B0000020002401F0DDFE00F0A2F8012001F094
:1000C000D8FE40F22000C2F2000080F30A8800202F
:1000D00000F052F800F07DF800F030F9032000F055
:1000E00040FA40F61050C4F208004FF6FF7100BF0E
:1000F00020F8141001340C2CFAD1032000F008FA77
:10010000032000F02EFA0420C4F20E00002101604A
:1001100041608160C160032000F0FAF9012000F025
:100120002BF840F6F004C2F20004204602F0AEF9CB
:10013000204602F0BFF942F6E22042F6E221C0F288
:100140000000C0F20001081A8410012C09DB42F6FD
:10015000E225C0F2000500BF55F8040B8047013CC2
:10016000FAD1022001F085FE00F08EF90020BDE8F2
:10017000B040FFF785BFD4D4F0B581B042F2F4456A
:10018000C0F200052E68044676B16868071D00BFFE
:100190007879844204D157E90101091A02F042F941
:1001A000013E07F10C07F3D1AE6886B1E86800F1B3
:1001B000080500BF6879844205D155E90202296823
:1001C000121A02F033F9013E05F11005F2D101B027
:1001D000F0BD4EF22000C4F20100817940F22042CD
:1001E0000068C2F2000252F82110C0F3026021FA46
:1001F00000F040F24041C2F2000108607047D4D4E0
:100200002DE9F0414EF2FE34C4F201044CF2001626
:100210004AF20350C4F2010620800120B08000BFE2
:10022000B0880028FCD147F200010120C4F200018F
:1002300030808860086040F2204742F600504CF25F
:10024000002C4EF22005C2F20007C0F2311041F23C
:1002500000214FF4004243F20063C0F6EB3CC4F2CD
:100260000105C0F27A01C0F26E1387E80F00C7E9FA
:10027000042CA879296857F82000C1F3026140F2E4
:100280004048C840C2F20008C8F80000002060756D
:10029000092085F8820094F8820018B994F8830048
:1002A000800744D094F8820050B9012084F882007D
:1002B000C820012100F07FF894F882000128FBD1CA
:1002C000002084F8830084F882000020A87400BF16
:1002D000287F0007FCD543F2021028810020A87275
:1002E000287F8006FCD50320307741F22120C2F21E
:1002F000010028600520A871A879296857F8200016
:10030000C1F30261C840C8F8000042F20800C4F21C
:100310000000F12101710121F022017002714FF4FE
:100320002540297485F832102080BDE8F0814FF413
:100330007A7000F001F8C8E77047D4D4B0B543F242
:100340002404C4F208040025C8200121257100F00E
:1003500032F8257020780028FCD1207840F0020087
:10036000207000BF20788007FCD4002004F8020C25
:1003700014F8020C0028FBD1002004F11C0100BF7E
:1003800011F8102002F07F0201F8102011F910205E
:10039000002AFBD401300328F2D1012000F0E1F85B
:1003A0004EF2BB41C4F20101002201200A70BDE8F7
:1003B000B04000F0ADB840F24042C2F20002126814
:1003C00041F20023C0F27A039A4201FB00F00FD3FE
:1003D00040F6FF01C0F23D0111444DF68362C4F2C4
:1003E0001B32A1FB0212110DA0FB0101E9B11FE0BC
:1003F0004CF6002348F63811C3F69A33C0F2410197
:10040000B3FBF2F2884207D24FF47A7100FB01F09D
:10041000B0FBF2F0800808E09200B0FBF2F08842F6
:1004200006D24FF47A7100FB01F028B100F005B854
:100430004FF0FF3000F001B8704701380028FCD1C0
:100440007047D4D42DE9F04146F22018C4F20008D8
:10045000B8F80000B8F8201040F2444501EA000660
:10046000B7B20024C2F2000527FA04F0C00704D096
:1004700055F8241009B1204688470134102CF3D1D7
:10048000A8F81060BDE8F08170B584B048F2480665
:100490000320C4F2000600F064F86FF0FF0042F69B
:1004A000E80430604FF0FF300021C0F20004012268
:1004B000CDE9020034F8113002FA01F5002B01F108
:1004C000010118BFA8430929F4D14EF280320190EE
:1004D000002001A9CEF2000251F8203006EB800581
:1004E000AB6242F8203001300328F5D1032000F040
:1004F0000FF846F200310020C4F2000134F8102059
:100500000AB141F8202001300928F7D104B070BDAC
:100510000122EFF3108182F3108840F2AC42C2F264
:10052000000232F8103023B132F81030013B22F8CB
:10053000103032F810208AB94EF2FE3CC4F2010CA1
:1005400042F2D842BCF80030C0F2000232F810008B
:1005500043F4254222EA0000ACF8000081F3108841
:10056000704780B50122EFF3108182F3108840F2CA
:10057000AC42C2F2000232F810308BB94EF2FE3CAF
:1005800042F2D843C4F2010CC0F20003BCF800E010
:1005900033F8103043EA0E0343F42543ACF800303F
:1005A00032F81030013322F8103081F3108880BD0A
:1005B000B0B582B004464068017801291FD190F996
:1005C0001100012200F01F014EF2801302FA01F126
:1005D0004009CEF2000343F82010BFF34F8FBFF362
:1005E0006F8F606890F9130000F01F0102FA01F1AB
:1005F000400943F82010BFF34F8FBFF36F8F4EF2C7
:100600001005C4F27F05B5F8740010B9204600F05B
:10061000A1F900F0F7F94FF4964101910021C4F2DD
:100620007E0150220A7000BF296F090405D4019988
:1006300051B1019901390191F6E7297840F2F5129B
:10064000C90602EAE17500E01425002818BF054636
:1006500000F03EF90021002D18BF284684F83C1018
:1006600002B0B0BD2DE9F04184B04FF07041EFF31E
:10067000038001EB006240F288419015C2F2000154
:100680000C584EF21000C4F27F0090F90010006F79
:100690000B074FEA22660CD400290DD4C9B2C90653
:1006A0004FF007080AD510F4405F08BF4FF0060866
:1006B00004E04FF0040801E04FF005082046FFF782
:1006C00077FF46F20030C4F2000050F8261021F403
:1006D000803140F8261050F82600606C01AE28B139
:1006E000014691E8A8003246A8C200E03046002149
:1006F0004160A16C226C80F8008081609047606C42
:1007000010B196E80E000EC004B0BDE8F0812DE9EE
:10071000F04184B0EFF303804FF0704101EB0060D3
:1007200040F288418015C2F200010C5846F20031B7
:10073000C4F20001425822F480324250405894F8EA
:100740003C0002280FD0012823D1A06B70B32046B3
:10075000002100F051F800284AD0204604B0BDE83E
:10076000F041FFF725BFA06B18B3206B4EF23001AC
:10077000C4F27F0108600020C4F27E0020210170D5
:10078000D0210170206BA16B40302063481EA06314
:100790002EE04EF23000C4F27F0090F8A4004FF03B
:1007A0000208012808BF4FF0030804E04FF00108D9
:1007B00001E04FF0000800F08BF8606C4FF0000C87
:1007C00001AE84F83CC028B1034693E8A20032464B
:1007D000A2C200E03046A16C226C80F80080C0F814
:1007E00004C081609047606C10B196E80E000EC0A6
:1007F00004B0BDE8F081D4D4B0B581B0A1B94268ED
:10080000012392F9112002F01F0C03FA0CFC4EF2A6
:1008100000135209CEF2000303EB8202C2F880C03B
:10082000BFF34F8FBFF36F8F4EF28002436BC4F262
:100830007F0240F2000CC4F27E0C42F8503CE823E8
:100840008CF8003002238CF80030036B4FF0010E5F
:100850001B88ACF800300369009300BF13685B0588
:1008600006D5009B5C1E002B0094F7D11CE000BF56
:1008700000F1300538CD013D023300F1300702347C
:1008800038C75FEACE754FF0000EE1D1D0238CF867
:10089000003061B11068000418D4481C013803D03E
:1008A0001168090412D4F9E7142001B0B0BD406802
:1008B000012290F9110000F01F0102FA01F14EF23D
:1008C00000124009CEF2000242F820100020ECE7AE
:1008D0004EF28401C4F27F014FF42A40B1F800C007
:1008E0000880088868B14BF200530020CFF6FF73F0
:1008F000002B08BF4FF4FA700A880133002AF7D1A1
:1009000000E00020BCF1800F1AD0BCF1010F18BF2D
:1009100070474CF200124DF60113C4F2010221F8A7
:10092000403C0121918000BF91880029FCD1012128
:10093000118047F20002C4F200029160116070471A
:1009400047F20001C4F2000101224A604A68002A0D
:10095000FCD1704710B581B04FF4964100914168C9
:100960000A78012A36D191F9111046F20032C4F208
:10097000000252F821304EF2001E23F4803342F878
:10098000213052F8213001F01F034FF0010CCEF25C
:10099000000E0CFA03F30EF5C0744909BFF35F8F24
:1009A00044F821304EF82130406890F9130052F895
:1009B000201021F4803142F8201052F8201000F06D
:1009C0001F010CFA01F14009BFF35F8F44F82010BA
:1009D0004EF820104EF28400C4F27F004AF68021C7
:1009E000018000BF0188802905D0009929B10099B4
:1009F00001390091F6E7002001E04FF4FA7001B0F0
:100A000010BDD4D481B04FF496414EF21000009145
:100A10000021C4F27F00C4F27E01B3220A7000BF3D
:100A2000016F090405D4009951B100990139009171
:100A3000F6E7007840F2F511C00601EAE07000E048
:100A4000142001B07047D4D42DE9F0410D7C02464A
:100A500000200124032D88BF012004FA05F510743D
:100A6000D560087C49F20005C4F2160505EB0020AC
:100A70009060D1E9050500275160D561C2E90507FD
:100A8000D1F81C80EFF3108084F3108844F2100535
:100A90000C7CC4F208054FF0004C2E682CFA04F4CC
:100AA000A6432E602E6880F3108890684FF4254688
:100AB00006609068C7629068C763906887640E7824
:100AC000087A032E96684FEAC0504D6808BF00F5BB
:100AD0008030F0629068C0F810C09068C0F814C010
:100AE0009068C0F818C09068476290688762D8F82C
:100AF00018009668F061D8F81C009668306290681B
:100B00006E1E8666906846665068D8F850C0C06908
:100B100000F1300490F84860FE40F6070DD03B46E7
:100B200054F827609568042F08BF0323032F08BFDC
:100B30000423013E05EB8303DE640137062FE9D170
:100B40009068002383639068C0F88830D8F850001C
:100B500040B998F8200098F82130400340EA4370EB
:100B60004CEA000C98F84800936800284FF4A00065
:100B700008BF4FF4AA00186490680323C0F834C07B
:100B800090684EF2001C0363936801201863D2E959
:100B9000023740F2884EDF6091F9124046F200338E
:100BA000CEF2000CC4F20003002CC2F2000E1BD4E3
:100BB000497C0CEB0405090185F800134EF824204C
:100BC00053F8241021F4803143F8241053F82410F2
:100BD00004F01F01884061090CEB8104BFF35F8FB3
:100BE000C4F880014CF8210098F9280000281ED490
:100BF00098F822100CEB0004090184F800134EF859
:100C0000202053F82010012421F4803143F82010D3
:100C100053F8201000F01F01400904FA01F10CEB19
:100C20008004BFF35F8FC4F880114CF8201098F94E
:100C3000290000281ED498F823100CEB00040901A9
:100C400084F800134EF8202053F82010012421F4DA
:100C5000803143F8201053F8201000F01F014009A4
:100C600004FA01F10CEB8004BFF35F8FC4F880112C
:100C70004CF8201098F92A0000281ED498F8241067
:100C80000CEB0004090184F800134EF8202053F8FF
:100C90002010012421F4803143F8201053F8201053
:100CA00000F01F01400904FA01F10CEB8004BFF3CE
:100CB0005F8FC4F880114CF8201098F92B000028A1
:100CC0001ED498F825100CEB0004090184F80013D9
:100CD0004EF8202053F82010012421F4803143F8ED
:100CE000201053F8201000F01F01400904FA01F110
:100CF0000CEB8004BFF35F8FC4F880114CF8201018
:100D000098F92C0000281ED498F826100CEB00044B
:100D1000090184F800134EF8202053F82010012414
:100D200021F4803143F8201053F8201000F01F0107
:100D3000400904FA01F10CEB8004BFF35F8FC4F8A3
:100D400080114CF8201098F92D0000281ED498F836
:100D500027100CEB0004090184F800134EF8202042
:100D600053F8201021F4803143F8201053F820105C
:100D700000F01F010123400903FA01F10CEB80038D
:100D8000BFF35F8FC3F880114CF8201045F2540177
:100D9000C0F2470100201160BDE8F081D0E90212E5
:100DA00000204A60704780B5D0E9011EC969D1E9C9
:100DB00001C3CA6843F00043CEF81430836842F0A0
:100DC00000429A6182684CF0004313610A698368AB
:100DD0005A62496982680020916280BD2DE9F04124
:100DE00084B0EFF303814FF0704246F2003002EB23
:100DF0000161C4F200008A15135823F480331350A4
:100E0000135840F28843C2F2000353F80280D8F826
:100E100004201378012B40F0B180D8E90235D26963
:100E20009D60D8F8083000259D64D8F80830091670
:100E3000DD64D8F808304EF2802C1D6550F8213062
:100E4000012523F4803340F8213050F8213001F09F
:100E50001F03CEF2000C05FA03F34909BFF35F8FBD
:100E60004CF8213092F84830D90717D092F9285021
:100E7000002D13D450F82510012321F4803140F8BF
:100E8000251050F8251005F01F0103FA01F16B0938
:100E9000BFF35F8F4CF8231092F84830990715D5AF
:100EA00092F92930002B11D450F82310012521F498
:100EB000803140F8231050F8231003F01F0105FA89
:100EC00001F15B09BFF35F8F4CF8231092F92A30D0
:100ED000002B11D450F82310012521F4803140F863
:100EE000231050F8231003F01F0105FA01F15B09EC
:100EF000BFF35F8F4CF8231092F92B30002B11D4E5
:100F000050F82310012521F4803140F8231050F8C7
:100F1000231003F01F0105FA01F15B09BFF35F8F96
:100F20004CF8231092F92C30002B11D450F82310D8
:100F3000012521F4803140F8231050F8231003F0EC
:100F40001F0105FA01F15B09BFF35F8F4CF8231015
:100F500092F92D20002A11D450F8221021F480316A
:100F600040F8221050F8220002F01F00012101FA7F
:100F700000F05109BFF35F8F4CF82100D8F814102E
:100F8000B9B1D8F8180001AD28B1034693E8D000F4
:100F90002A46D0C200E02846D8F81C300022027150
:100FA000826003608847D8F8180010B195E80E00F9
:100FB0000EC004B0BDE8F081F0B591F902300246F0
:100FC000037146F20030C4F200004FF0000E50F8FA
:100FD00023C040F823E08B680C789360CB684FF611
:100FE0000057D36044EA0003CFF6FF77547103F84B
:100FF00007E04D790E79CC78ED0145EA06162643D7
:10100000DE5592F9043040F823C092F9040000281C
:101010000CD449784EF200430901CEF20003C154CA
:1010200040F28841C2F2000141F8202044F25531DB
:10103000C0F2490100201160F0BD90F9040046F2B1
:101040000031C4F2000151F8202022F4803241F82E
:10105000202051F8201000F01F01012202FA01F1B6
:101060004EF200124009CEF2000202EB8003BFF301
:101070005F8FC3F8801142F820100020704790F96C
:101080000400012200F01F0102FA01F14EF2801269
:101090004009CEF2000242F82010BFF34F8F00202B
:1010A000BFF36F8F704703460020C3E902127047F9
:1010B000014690F90400002818D400F01F02012313
:1010C00003FA02F24EF280134009CEF2000343F815
:1010D0002020BFF34F8FBFF36F8F91F9040040F2D0
:1010E0008842C2F20002002342F820300022002091
:1010F0000A60704770B582B04FF07041EFF3038023
:1011000001EB006140F288428815C2F200021058DB
:1011100046F200344279C4F200044FF600532243F1
:10112000CFF6FF73D25C0D1602F00306032E07D034
:1011300054F8251021F4803144F8251054F8251076
:10114000816829B14279C068CDE9000268468847C4
:10115000032E07D154F8250020F4803044F82500F0
:1011600054F8250002B070BD80B545F25422C5F296
:101170004F020260084600F019F8002080BD80B5DB
:101180006FF0010000EAD11040F2000C0101C4F23E
:10119000080C5CF801E003EA020040EA0E0062EA93
:1011A0000302024000204CF8012080BD70B50446C7
:1011B00000F05CF840F2844CEFF31080012181F3E1
:1011C0001088C2F2000CDCF8001039B940F6035167
:1011D000C4F2080100220A7040220A70DCF80010F4
:1011E0000131CCF8001080F31088208810B340F64D
:1011F000000E0021C4F2080E606800EBC102928864
:1012000050F83130100ADD03D2B20BD50EEB801549
:1012100055F8226026F4803645F8226023F48036A3
:1012200045F822600EEB801040F822302088013112
:101230008142E1D3EFF31081012080F31088DCF8C4
:10124000000020B1DCF800000138CCF80000DCF828
:10125000000038B940F60350C4F2080000220270C2
:101260008022027081F3108870BDD4D42DE9F04F34
:1012700081B00446008800285CD043F240084EF25A
:10128000BB4A42F2EC5BC4F208080026C4F2010A31
:10129000C0F2000B4FF00109002700BF60683BF867
:1012A000172000EBC600818891423CD100689AF873
:1012B000001000F0B85009FA07F5B0F1807F05EA98
:1012C000010015D150B90120FFF74BF99AF8000041
:1012D00028438AF800000120FFF71AF918F91700CF
:1012E000002820D418F8170040F0800015E000BF57
:1012F00050B10120FFF735F99AF80000A8438AF8A9
:1013000000000120FFF704F918F91700B0F1FF3FC2
:1013100009DC18F8170000F07F0008F81700C82053
:101320000121FFF748F80137032FB7D12088013694
:101330008642B1D301B0BDE8F08F0A780123934013
:1013400013F0060F05D0CB695B681B781B0700F113
:10135000E1802DE9F04748F20003C4F2110343EAAB
:101360000222D1E905364FF0000843628378C66255
:1013700023F003035E1C86704E78026280F80080C2
:10138000C161C0F8288016B943F00203837091F957
:101390000B704EF2001CCEF2000C07F01F044FF051
:1013A000010E0EFA04F60CF180047A098D7A44F8E5
:1013B000226046F2003ABFF34F8FC4F2000ABFF337
:1013C0006F8F5AF8272040F2884922F480324AF879
:1013D00027205AF827202A010CF54075EA5591F983
:1013E0000520C2F2000902F01F060EFA06F65309A4
:1013F00049F827000F7944F82360BFF34F8FBFF3FC
:101400006F8F5AF8223023F480334AF822305AF88A
:1014100022303B01AB5449F8220091F907208B7927
:1014200002F01F060EFA06F6570944F82760BFF3CC
:101430004F8FBFF36F8F5AF822601B0126F480365E
:101440004AF822605AF82260AB5449F8220091F918
:1014500009200B7A02F01F060EFA06F6570944F827
:101460002760BFF34F8FBFF36F8F5AF822401B01E5
:1014700024F480344AF822405AF82240AB5449F808
:101480002200EFF310828EF3108844F204050B78EB
:10149000C4F208054FF000442E6824FA03F326EA4C
:1014A00003032B602B6882F31088026A82F80280A3
:1014B000026A82F80480026A82F80980026A82F86D
:1014C0000A80026A82F80B80026AA2F81A800A78FF
:1014D0000EFA02F340F2F932134202D0036A4024BA
:1014E000DC74036A06241C770B780EFA03F31342AC
:1014F00003D0026A4FF478439382CA784E788B788F
:10150000D20042EA03123EB1032E08BF42F040026D
:10151000F22602E00322B0E0E226036A02271A70F4
:10152000026A00259671CA69137B07EA4307082BF4
:10153000036A08BF0A275F73066A53789778357283
:101540001678056A06F0FE06022E4FEAC31667F308
:10155000451609D1FF236B701278022A026A08BF70
:1015600046F01006D67116E0EE715268036A97785D
:101570005F7057781E7807F0030706F0FC063744C3
:101580001F70D7789F74DF79127807F0A30702F0F5
:101590005C023A44DA710022C369C0E90322C0E95F
:1015A0000522D1F81CE093F905309EF800105AF896
:1015B000234003F01F0524F480344AF823405AF8EE
:1015C0002340012404FA05F60CF5C0755B09BFF34E
:1015D0005F8F45F823604CF82360C36993F90B30A3
:1015E0005AF8236026F480364AF823605AF82360BC
:1015F00003F01F0604FA06F65B09BFF35F8F45F898
:1016000023604CF82360C36993F907305AF82360CC
:1016100026F480364AF823605AF8236003F01F0648
:1016200004FA06F65B09BFF35F8F45F823604CF8B8
:101630002360C36993F909305AF8236026F4803691
:101640004AF823605AF8236003F01F06B4405B0990
:10165000BFF35F8F45F823404CF823401C23076AF3
:1016600063F39F01B970BEF80A10018144F6551169
:10167000C5F243314160BDE8F0471046704703466C
:101680000020C3E90512704780B5D0F820E09EF82D
:1016900002C00CF07B038EF80230837803F0030362
:1016A000A2EB030C0B44026AC0E9033C937843F0BD
:1016B00080039370827802F00302022A05D1098820
:1016C000006A41F47E41C18102E00978006AC1707C
:1016D000002080BD10B5C2690123127803FA02F21E
:1016E00012F0060F02D00A78120723D4026A4FF0D4
:1016F000000E92F802C00CF00B039370036A8A7814
:10170000C0F80CE05A704A781C7802F0030204F02A
:10171000FC0422441A70CA789A74DA79097802F0C3
:10172000A30201F05C011144D971006A0CF07B0145
:10173000817001E04FF0030E704610BD4FF0FF3294
:1017400000200A604A6070478A0701D4062206E03A
:10175000026A937803F07B03937000220261C90749
:101760001CBF00228261104670478446C0E90913FD
:101770000020CCF82C207047026A00214160917053
:10178000C1694EF2801C91F90520012102F01F036E
:1017900001FA03F35209CEF2000C4CF82230BFF3E9
:1017A0004F8FBFF36F8FC26992F90B2002F01F03B6
:1017B00001FA03F352094CF82230BFF34F8FBFF305
:1017C0006F8FC26992F9072002F01F0301FA03F339
:1017D00052094CF82230BFF34F8FBFF36F8FC269AD
:1017E00092F9092002F01F0301FA03F352094CF8A1
:1017F0002230BFF34F8FBFF36F8FEFF3108281F36F
:101800001088C06944F204030078C4F208034FF062
:10181000004C19682CFA00F008431860186882F32D
:10182000108800207047024680690860002100206F
:10183000916170470620704706207047EFF30380E0
:101840004FF0704101EB006046F200318015C4F2A8
:101850000001425822F480324250415840F28841FF
:10186000C2F200010858C1690A690169C2B9C1B16F
:10187000817801F00302C168022A05D10988026A51
:1018800041F47E41D18102E00978026AD170817809
:10189000026901F00303D11AC26801611A44C260EF
:1018A00071B9016A8A7802F07B0204328A70416A57
:1018B00000294FF00001C16002D0802200F001B881
:1018C00070472DE9F04385B08146806A0DF1040828
:1018D00030B1054695E8D800C4468CE8D80000E051
:1018E0004046D9F81C30D9F824701B78D9F82C6000
:1018F00003600271C0E90216B847D9F8280010B198
:1019000098E88E008EC005B0BDE8F08310B582B0B7
:10191000EFF303804FF0704101EB006046F20031BD
:101920008015C4F20001425822F4803242504158DE
:1019300040F28841C2F200010C58A07800F0030286
:10194000206A022A03D1018A6FF35F2100E0417906
:10195000A069019198B1606901A900F067FDA078C4
:101960006169A26900F003000144101A6161A0617D
:101970000ED1606A60B120460021012203E0606A56
:1019800030B12046042202B0BDE81040FFF799BFF5
:1019900002B010BD10B54FF07041EFF3038001EBC2
:1019A000006140F288428815C2F2000210580C16FD
:1019B000026A937803F07B039370426A1AB10021A4
:1019C0000222FFF77EFF46F20030C4F2000050F81A
:1019D000241021F4803140F8241050F8240010BD68
:1019E0004FF07041EFF3038001EB006C40F288414F
:1019F0004FEAAC50C2F2000108588178036A01F046
:101A00000301022903D1198A6FF35F2100E059799C
:101A100010B51A79D40602F0380204D51C7F64F39D
:101A2000861282F040021C7904F0C7041C71436ADC
:101A30004FEA2C640BB1FFF744FF46F20030C4F2CA
:101A4000000050F8241021F4803140F8241050F8A0
:101A5000240010BD80B500F0F4F9002080BD40F6F0
:101A6000A010C4F2080040F605010160704740F67E
:101A70009C00C4F2080040F605010160704740F682
:101A80002000C4F2080040F605010160704740F6EE
:101A90001800C4F2080040F605010160704740F6E6
:101AA000A010C4F2080040F604010160704740F63F
:101AB0009C00C4F2080040F604010160704740F643
:101AC0001800C4F2080040F6040101607047D4D445
:101AD0000121EFF3108081F3108840F28441C2F2BB
:101AE00000010A683AB940F60352C4F20802002322
:101AF00013704023137082B00A6840F220560132FE
:101B00000A6080F31088C2F200060020C6E90000D7
:101B100042F65C1042F2786141F60342C0F20000E6
:101B2000C0F20001C0F20002002300F024F940F2EC
:101B30002851C2F200010860307842F6791840F26C
:101B40007467C0F2000801ADC2F20007032429E067
:101B500000F02EFA00F0F4FB00F098F902200121C9
:101B600000222B4600F05EF810B9F86800F0DFF8AC
:101B70000120012100222B4600F054F800B93470F6
:101B80000420012100222B4600F04CF80028F7D158
:101B90003078022806D1DBE700284FF0040008BFA8
:101BA00001203070C1B20529FCD8DFE801F0170F21
:101BB0000B081C03BFF34F8F022030BFF1E700F08A
:101BC000F4F9E9E7404600F091F8C1E700F0C3F905
:101BD00000284FF0040008BF0220E2E700F092FB6B
:101BE00000F093F9D8E7012000F0B5F842F648106C
:101BF000C0F2000000F07AF8002000F0ACF802B06B
:101C0000FEE7012818BF704740F27460C2F200007E
:101C1000C16040F22050C2F20000416841F0020170
:101C2000416070472DE9F04740F220581C461546A8
:101C30008946074601F0FD0AC2F200088E1E00BF69
:101C4000D8F8040004B12060022E00EA070007D390
:101C5000B9F1010F0DD80146002818BF012103E09A
:101C6000391AB1FA81F14909BAF1010F00D161B90C
:101C700089B935B101204FF47A71013DFEF79BFB24
:101C8000DEE74FF0FF30BDE8F087D8F8041021EA16
:101C90000000C8F804000020BDE8F08740F22052A0
:101CA000C2F20002536840EA0300506001B10860CC
:101CB0000020704740F22052C2F20002536840EA0E
:101CC0000300506001B108600020704750B1014628
:101CD00040F23050C2F20000016004208860002011
:101CE000C86170474FF0FF307047D4D470B5D8B199
:101CF000054600F0ABFB40F244560446C2F2000633
:101D0000B068C007FCD1B068F36840F00100B06073
:101D10002846214600229847B068C007FCD1B06829
:101D200040F00200B06000E00024204670BD10B515
:101D300040F20404C2F200046068FFF7D7FF42F6E5
:101D40000210C0F20000FFF7D1FF2068FFF7CEFFBE
:101D50004FF0FF3010BD052884BF4FF0FF307047B3
:101D600080B540F20401C2F2000151F82000FFF7F3
:101D7000BDFF002080BD2DE9F04799468B68904655
:101D80000E46D1E900211B68824610469847B1688B
:101D900032688D6942F2850140F234530446C0F244
:101DA0000001C2F20003104600220027A84720438A
:101DB0002DD140F24450C2F200005146082200F0FA
:101DC0004DFB40F27051C2F200010E6041F6156108
:101DD000C0F2000141F63F6200F10C03C0F20002C4
:101DE00083E8060140F27451C2F20001C0E908170D
:101DF00040F244574FF48072C2F20007B9F1000F6D
:101E0000826218BFC0F818903846FFF75FFF384667
:101E1000BDE8F08710B540F27052C2F200021268BD
:101E20000C46936811689B68024608461146224694
:101E30009847002818BF4FF0FF34204610BD0020FF
:101E40007047B0B5202440F2C840C4F20804002511
:101E5000C2F200004FF480714FF6FF724FF6FF732D
:101E60002580FFF78CF9A560E560BDE8B040FFF77D
:101E70002FBE022818BF704740F2C84042F6DC016E
:101E8000C2F20000C0F20001FFF76EB940F27460C8
:101E9000C2F200000068C00708BF704700F000B839
:101EA00010B540F27464C2F20004206820F0010012
:101EB00020602068800758BF10BD01200021FFF777
:101EC000EDFE206820F00200206010BD50B180B50A
:101ED000014640F27460C2F200004C2200F0A6FA03
:101EE000BDE8804040F27460C2F2000000214FF46F
:101EF000486200BF00EB4103013110299A85F9D1F6
:101F000040F27460C2F20000704710B542F61A1039
:101F1000C0F20000FFF7EAFEFFF7A1FD40F2C0604B
:101F2000C2F200000024446542F68810C0F20000AE
:101F3000FFF7CCFF40F22C51C2F2000108602820CC
:101F4000C4F20800046044600868002808BF4FF02D
:101F5000FF34204610BD10B542F63410C0F2000028
:101F6000FFF7C4FE40F20054C2F2000442F2DC610A
:101F7000C0F200012046FEF767FD2046FEF713FF82
:101F80002046FEF70BFF40F2B844C2F2000442F2D2
:101F90002461C0F200012046FFF70EF82046FFF74B
:101FA0004CF8FFF77CFD002010BD00207047D4D412
:101FB00070B540F2C064C2F20004207802283ED01E
:101FC000012831D0002840D142F6E411C0F20001CE
:101FD000D1E9001C40F2810E0A7E40F22C51C2F27F
:101FE00000010B6800200121C0F6000E6065A064AE
:101FF000E06400BFE66C01FA00F5002A18BF2E432A
:10200000E6641ABF1EF8205001FA05F500255E6A45
:102010000130354308285D62ECD100208CF80000C7
:1020200001202070FFF733FD94F85400C0070CD056
:10203000022020700020E064FFF741FD05E0D4E9B4
:102040001201814204BF03202070002070BD80B5C2
:10205000FFF70DFD40F27460C2F200002C3000F07A
:10206000DBF8FFF724FD04200021BDE88040FFF7E6
:1020700021BE40F2C060C2F20000416D81F001015A
:1020800041657047017903290BDC01290DD0022934
:102090000CD140F24450C2F20000816821F00101ED
:1020A0000DE004290DD0802900D1704740F2445042
:1020B000C2F20000826842EA016141F010018160D1
:1020C000704780686FF0090151FA80F1162908D82D
:1020D000012202FA01F10922C0F24002114218BFA6
:1020E000704710B540F2BC74C2F200042178042994
:1020F00073D8C2B2DFE801F00343182F0800532A57
:102100005DD10120208068E0502A42D1A0781228B9
:102110007ED8012101FA00F04CF21F01C0F2070144
:10212000084275D0002057E0D021392A88BFC92144
:10213000014440F6C100C2F2000062780378114306
:102140009A00914061700178B1B9012101700020BD
:10215000A070032040E0D021392A88BFC921014462
:1021600040F6C100C2F20000A278037811439A0041
:102170009140A170017831B30178013907E02071F5
:102180000220207040F6C100C2F20000012101705F
:1021900023E040F6C101C2F200010B78012B1FD1F0
:1021A000392A40F6C202C2F2000288BF39301278E2
:1021B0000001224450710878013808700DE0FFF7E3
:1021C0005EFC052008E00121017040F6C200C2F269
:1021D00000000021017004202070BDE8104070470D
:1021E00040F6C20CC2F2000C9CF80030392A4FF0C5
:1021F000D002234488BFC9225C791044204358711F
:10220000012008709CF8000001308CF80000E4E721
:10221000FFF735FC86E7D4D42DE9F047044642F6B3
:10222000D410C0F200000668D0E9028700254FF004
:1022300002094FF0010A00BF3068007E01285BD11F
:102240003068807E012813D1B87834F810007168A6
:10225000096901FB00F07168000C4880F87834F8D7
:1022600010007168096901FB00F07168000C88803A
:102270007068007802281FD0012815D0D0BB98F8CC
:102280000000022836D130688089716800EB800038
:102290004000886070688068716800284FF0010015
:1022A00008BF0220087025E070688168706851B12D
:1022B0008168013981601DE070688068B8B170681C
:1022C0008068013814E080F80090284600F02DF86E
:1022D0003068008A716800EB800040008860D8F8A0
:1022E00048000AFA05F10843C8F8480002E0002057
:1022F00071688860083604370135082D08BFBDE8CD
:10230000F08799E7B0B542F66C2CC0F2000C40F6AD
:10231000C40EBCE81F00C2F2000EAEE81F009CE82D
:102320003E0000208EE83E00B0BD40F6C40100EB48
:102330008000C2F2000101EB800001214170704772
:102340002DE9F04740F6C40240F2746A4FF0000CE9
:102350004FF0010EC2F20002C2F2000A4FF6FE7800
:102360004FF0FF0902240125002000BF00EB800090
:1023700002EB80067078376902280BD0012849D11A
:102380003878FF281BD0786879787470C6E9010125
:1023900040E000BF3878411E0329384629D8DFE8DD
:1023A00001F0021C111630780AEB4001888D7B8801
:1023B0001844404538461CD8888D184417E086F8E4
:1023C000019027E0F06886F801E0306111E0307894
:1023D00079880AEB400081850AE030780AEB4001F9
:1023E000888D7B889842384603D9888DC01A8885A5
:1023F0003846B16811B1481EB0600BE071687B7857
:10240000B36011B1481E706004E00830306186F896
:1024100001C000BF0120E9074FF00005A6D1002050
:10242000BDE8F0870A46002100F009B810B5002386
:102430009A4203D0CC5CC4540133F9E710BD0023A9
:102440009A4208BF7047C1540133F9E7034613F8B5
:10245000012B002AFBD1181A0138704770B50023F0
:1024600052B1044611F8016B551E04F8016B4EB1D0
:10247000012A2A46F6D105E00025044602E004F8C8
:10248000013B013D002DFAD170BDD4D410B50549F2
:102490000446054AFFF7CAFF044805492044FFF7F0
:1024A000C1FF10BD8000000000000000000000001F
:1024B000000000000249401A02490860704700BF4E
:1024C00008000000EC080020060007000800D4D433
:1024D00003000000C82400000100020008001000F2
:1024E0002000D4D400000068000000682000002014
:1024F00020000020050000000C250000090000005D
:102500004825000002000000E424000000000068EC
:10251000000000680001000800000068000000687A
:10252000000100082000002020000020000000031F
:1025300040040020F008002000000003F008002004
:10254000F0080020000000030000006800000068A0
:102550000000006000010C08000000680000006836
:102560000000007000010908000000680000006819
:102570000000000800010208000000680000006878
:10258000640000000001010800000020000000209D
:102590000000006000010C0300000020000000208B
:1025A000000000700001090300000020000000206E
:1025B0000000000800000203000000201C000020B2
:1025C0006400000000000103F0080020F008002073
:1025D0008000000000000103B90F00003B10000064
:1025E0007F100000A7100000B110000002040304D7
:1025F0000404D4D43B1300007F16000089160000A9
:10260000D51600003D170000491700006B170000A9
:10261000791700002718000035180000391800004D
:1026200000D4D4D40A0C0800030100007320000079
:102630000000000020260000B8040020242600002E
:10264000D825000000010000000000200F00FFFF5F
:1026500000000000FFFF0000000200000C030C045B
:102660000C050C0600000000000000000000000047
:102670000000000044260000D0040020582600007E
:10268000F425000000000000000000000000000031
:10269000000000000000000000000000000000003A
:1026A000000000000000FFFFFFFFFFFFDFDFDFDFB4
:1026B000DFDF00000000000000000000000000005C
:1026C000000000000000000000000000000000000A
:1026D00000000000000000000000000000000000FA
:1026E0001027000000000000881300000002020014
:1026F0004F20000000000000842600000080000041
:1027000000000000008000000100000000800000C8
:1027100002000000008000000300000000400000F4
:10272000040000000040000005000000040000005C
:102730000600000004000000070000000400000084
:1027400008000000008000000E0000000080000073
:102750000F0000000000010008010000040C000050
:10276000070200000000010000030000040C00004C
:1027700003030000000C011105030000000C01110F
:1027800006030000000C011107030000000C0111FA
:1027900008030000000C011109030000000C0111E6
:1027A0000A030000040C00000B03000010400000AE
:1027B00000040000000C011701040000000C0117C8
:1027C00002040000050C000003040000040C0000DB
:1027D00004040000000C011705040000000C0117A0
:1027E00006040000000C011307040000040C0000A4
:1027F000080400001040000009040000000C01045F
:102800000A040000000C01040B040000000C010786
:102810000E040000000C01070F040000000C01135F
:1028200000050000000C011301050000400C01042C
:1028300005050000400C010406050000000C01071E
:102840000B050000000C01070C050000040C000043
:102850000806000000000110090600000000011039
:102860000A060000040C00000B0600000000010531
:102870000D060000000001050E0600000504000022
:102880000F060000000C011700070000000C0117E4
:1028900001070000000C011702070000000C0117DF
:1028A00003070000000C011704070000000C0117CB
:1028B00005070000004000000607000000000114AA
:1028C000070700001040000005090000000C01147B
:1028D000000B0000000C0114010B00003C00000084
:1028E000FC2600000000000031003000C60080011E
:1028F000810182018301D8000B001B5B323B333422
:102900006D004E6F20636F6D6D616E647320696E34
:102910007374616C6C6564210A000A534551554516
:102920004E4345522052455345540A001B5B323BEF
:1029300033376D000A53455155454E434552205398
:102940005441525455500A000A41505020455252A9
:102950004F520A001B5B323B33316D00434F4E3107
:10296000001B5B323B33326D001B5B323B33336DFC
:10297000001B5B323B33356D000A415050205255ED
:102980004E4E494E470A00D40000000000000000EF
:102990000000000000000000D024000038260000E5
:1029A00000000000200008400000000000000000BF
:1029B0000000000000000000000000000000000017
:1029C0000000000000000000000000000000000007
:1029D00000000000E429000000000008C0060020FC
:1029E00080000008000100081C070020800100088A
:1029F0003007002000020008440700208002000881
:102A000058070020000300086C070020800300081E
:102A100080070020000400089407002080040008BC
:102A2000A8070020000100000A000000010140008A
:102A3000F4010000000A0000E8030000040A409CC2
:102A4000E8030000FF00000000000000000A000092
:102A5000E803000001010A00E8030000040A008006
:102A6000E8030000FF00000000000000000000007C
:102A70000000000000000000242A0000242A0000BA
:102A80000100000000000000000000004C2A0000CF
:102A90004C2A000000000506362E352E3000427507
:102AA000696C7420776974682052656E6573617310
:102AB00020416476616E63656420466C6578696266
:102AC0006C6520536F667477617265205061636B2B
:102AD0006167652076657273696F6E20362E352EBC
:022AE0003000C4
:020000040100F9
:04A10000FFFFFFFF5F
:04A20000FFFDFFFF60
:04A28000F8F8FFFFEC
:040000030000008574
:00000001FF
