:100000000004002051000000110400005B0000000B
:100010005B0000005B0000005B0000005B00000074
:100020000000000000000000000000005B00000075
:100030005B000000000000005B0000005B000000AF
:0C004000C3090000190900001D11000098
:10004C007047D4D400F006F801F039FAFEE700BE90
:10005C007047D4D4B0B54EF60850CEF200004FF431
:10006C007001C0F8801040F20001C0F20001016084
:10007C000020002401F01DFB00F0A2F8012001F08B
:10008C0018FB40F20000C2F2000080F30A88002046
:10009C0000F052F800F07DF800F030F9032000F089
:1000AC0040FA40F61050C4F208004FF6FF7100BF42
:1000BC0020F8141001340C2CFAD1032000F008FAAB
:1000CC00032000F02EFA0420C4F20E00002101607F
:1000DC0041608160C160032000F0FAF9012000F05A
:1000EC002BF840F29864C2F20004204601F0DCFCCC
:1000FC00204601F0EDFC42F2561042F25611C0F2CD
:10010C000000C0F20001081A8410012C09DB42F235
:10011C005615C0F2000500BF55F8040B8047013C92
:10012C00FAD1022001F0C5FA00F08EF90020BDE8EA
:10013C00B040FFF785BFD4D4F0B581B041F61C3583
:10014C00C0F200052E68044676B16868071D00BF32
:10015C007879844204D157E90101091A01F08FFC26
:10016C00013E07F10C07F3D1AE6886B1E86800F1E7
:10017C00080500BF6879844205D155E90202296857
:10018C00121A01F080FC013E05F11005F2D101B00C
:10019C00F0BD4EF22000C4F20100817940F2004221
:1001AC000068C2F2000252F82110C0F3026021FA7A
:1001BC0000F040F22041C2F2000108607047D4D434
:1001CC002DE9F0414EF2FE34C4F201044CF200165B
:1001DC004AF20350C4F2010620800120B08000BF17
:1001EC00B0880028FCD147F200010120C4F20001C4
:1001FC0030808860086040F2004742F600504CF2B4
:10020C00002C4EF22005C2F20007C0F2311041F270
:10021C0000214FF4004243F20063C0F6EB3CC4F201
:10022C000105C0F27A01C0F26E1387E80F00C7E92E
:10023C00042CA879296857F82000C1F3026140F218
:10024C002048C840C2F20008C8F8000000206075C1
:10025C00092085F8820094F8820018B994F883007C
:10026C00800744D094F8820050B9012084F88200B1
:10027C00C820012100F07FF894F882000128FBD1FE
:10028C00002084F8830084F882000020A87400BF4A
:10029C00287F0007FCD543F2021028810020A872A9
:1002AC00287F8006FCD50320307741F22120C2F252
:1002BC00010028600520A871A879296857F820004A
:1002CC00C1F30261C840C8F8000042F20800C4F251
:1002DC000000F12101710121F022017002714FF433
:1002EC002540297485F832102080BDE8F0814FF448
:1002FC007A7000F001F8C8E77047D4D4B0B543F277
:10030C002404C4F208040025C8200121257100F042
:10031C0032F8257020780028FCD1207840F00200BB
:10032C00207000BF20788007FCD4002004F8020C59
:10033C0014F8020C0028FBD1002004F11C0100BFB2
:10034C0011F8102002F07F0201F8102011F9102092
:10035C00002AFBD401300328F2D1012000F0E1F88F
:10036C004EF2BB41C4F20101002201200A70BDE82B
:10037C00B04000F0ADB840F22042C2F20002126868
:10038C0041F20023C0F27A039A4201FB00F00FD332
:10039C0040F6FF01C0F23D0111444DF68362C4F2F8
:1003AC001B32A1FB0212110DA0FB0101E9B11FE0F0
:1003BC004CF6002348F63811C3F69A33C0F24101CB
:1003CC00B3FBF2F2884207D24FF47A7100FB01F0D2
:1003DC00B0FBF2F0800808E09200B0FBF2F088422B
:1003EC0006D24FF47A7100FB01F028B100F005B889
:1003FC004FF0FF3000F001B8704701380028FCD1F5
:10040C007047D4D42DE9F04146F22018C4F200080C
:10041C00B8F80000B8F8201040F2244501EA0006B4
:10042C00B7B20024C2F2000527FA04F0C00704D0CA
:10043C0055F8241009B1204688470134102CF3D10B
:10044C00A8F81060BDE8F08170B584B048F2480699
:10045C000320C4F2000600F064F86FF0FF0041F6D0
:10046C00507430604FF0FF300021C0F200040122C4
:10047C00CDE9020034F8113002FA01F5002B01F13C
:10048C00010118BFA8430329F4D14EF28032019028
:10049C00002001A9CEF2000251F8203006EB8005B5
:1004AC00AB6242F8203001300328F5D1032000F074
:1004BC000FF846F200310020C4F2000134F810208D
:1004CC000AB141F8202001300328F7D104B070BDE7
:1004DC000122EFF3108182F3108840F27442C2F2D1
:1004EC00000232F8103023B132F81030013B22F800
:1004FC00103032F810208AB94EF2FE3CC4F2010CD6
:10050C0041F60032BCF80030C0F2000232F81000A4
:10051C0043F4254222EA0000ACF8000081F3108875
:10052C00704780B50122EFF3108182F3108840F2FE
:10053C007442C2F2000232F810308BB94EF2FE3C1B
:10054C0041F60033C4F2010CC0F20003BCF800E029
:10055C0033F8103043EA0E0343F42543ACF8003073
:10056C0032F81030013322F8103081F3108880BD3E
:10057C002DE9F0410A7804464EF21400C4F27F00D3
:10058C00012A616051D14A68CB684FF0000CC4E974
:10059C00102C4FF0010CA36480F804C00B7C4EF2BD
:1005AC00001E91F91120CEF2000E40F268481B019A
:1005BC000EF54075C2F2000846F20036AB5448F80E
:1005CC002240C4F2000656F822700EF5C07327F4D0
:1005DC00803746F8227056F8227002F01F070CFA8A
:1005EC0007F75209BFF35F8F43F822704EF8227061
:1005FC0098220270887C91F913100001685448F815
:10060C00214056F8210020F4803046F8210056F89D
:10061C00210001F01F000CFA00F04909BFF35F8FB5
:10062C0043F821004EF8210002E000210171017015
:10063C00204600F081F808B1BDE8F08144F24E513B
:10064C00C4F650712160BDE8F081D4D470B5044675
:10065C005808A063002084F83C002046C4E90C1222
:10066C0000F0F4FA00B170BD60680078012804D184
:10067C00012084F83C00002500E0E568204629466E
:10068C0000F00EFA616809780029ECD14FF4805122
:10069C00182200F032FBA16B064609B1002EEDD0FA
:1006AC0000F092FA002E18BF304670BD70B50446AB
:1006BC00002084F83C0021F03F0020632046A26318
:1006CC0000F0C4FA10B14FF4FA7070BD6068007895
:1006DC00012804D1022084F83C00002500E0656A62
:1006EC004EF2E000C4F27F00012101802046294631
:1006FC0000F042FA61680978002918BF70BD4FF408
:10070C000051192200F0F9FAA16B064609B1002E2E
:10071C00ECD000F059FA002E18BF304670BD4EF2E6
:10072C008400C4F27F00008810F081024FF00000BA
:10073C0018BF01220A7070472DE9F04300214EF2D8
:10074C00200280F83C10C4F2010240F220411368F0
:10075C00C2F200010968C3F3026501FA05F5C3F39F
:10076C00027340F6001425FA03F34EF21645C0F25C
:10077C003D041268C4F20105A3424FF001042C7031
:10078C003CBF4FF4FB70BDE8F08344F23F25C0F250
:10079C000F054DF683642B44C4F21B34A3FB043CBD
:1007AC00C2F302624FF0FF3323FA02F211400D4400
:1007BC00A5FB0412910C43F6B8534AF6AB2401FB8B
:1007CC0003F3C2F6AA24A3FB043E40F6D86301FB54
:1007DC0003F3A3FB046849F68176C1F25E66A5FBC0
:1007EC0006694FF4FA264AF6AB2701FB06F6CAF661
:1007FC00AA27A6FB07634DF68066C0F20F0601FB25
:10080C0006F6A6FB07674FF2A076C0F2030601FBC3
:10081C0006F6A6FB04464FF4F0544EF2E40504EB46
:10082C009C44C4F27F052C804FEA99450561CD00AC
:10083C00A5EB9242520042619A08826140F6B832AE
:10084C0001FB02F14162B908C0E902E8C0E90761A5
:10085C000020BDE8F083D4D4B0B582B00446406823
:10086C00017801291FD190F91100012200F01F011C
:10087C004EF2801302FA01F14009CEF2000343F864
:10088C002010BFF34F8FBFF36F8F606890F9130088
:10089C0000F01F0102FA01F1400943F82010BFF3E8
:1008AC004F8FBFF36F8F4EF21005C4F27F05B5F872
:1008BC00740010B9204600F0C9F900F03DFA4FF46D
:1008CC00964101910021C4F27E0150220A7000BFB2
:1008DC00296F090405D4019951B10199013901918C
:1008EC00F6E7297840F2F512C90602EAE17500E054
:1008FC001425002818BF054600F066F90021002DCC
:10090C0018BF284684F83C1002B0B0BD2DE9F04168
:10091C0084B04FF07041EFF3038001EB006240F2C2
:10092C0068419015C2F200010C584EF21000C4F24E
:10093C007F0090F90010006F0B074FEA22660CD471
:10094C0000290DD4C9B2C9064FF007080AD510F416
:10095C00405F08BF4FF0060804E04FF0040801E0C8
:10096C004FF005082046FFF777FF46F20030C4F23F
:10097C00000050F8261021F4803140F8261050F871
:10098C002600606C01AE28B1014691E8A800324601
:10099C00A8C200E0304600214160A16C226C80F8B6
:1009AC00008081609047606C10B196E80E000EC01C
:1009BC0004B0BDE8F0812DE9F04184B0EFF3038081
:1009CC004FF0704101EB006040F268418015C2F2BB
:1009DC0000010C5846F20031C4F20001425822F4D6
:1009EC0080324250405894F83C0002280FD0012825
:1009FC0023D1A06B70B32046002100F051F80028E1
:100A0C004AD0204604B0BDE8F041FFF725BFA06BEB
:100A1C0018B3206B4EF23001C4F27F010860002045
:100A2C00C4F27E0020210170D0210170206BA16BDB
:100A3C0040302063481EA0632EE04EF23000C4F21A
:100A4C007F0090F8A4004FF00208012808BF4FF077
:100A5C00030804E04FF0010801E04FF0000800F03B
:100A6C00B3F8606C4FF0000C01AE84F83CC028B1B8
:100A7C00034693E8A2003246A2C200E03046A16CC5
:100A8C00226C80F80080C0F804C081609047606CD4
:100A9C0010B196E80E000EC004B0BDE8F081D4D4BD
:100AAC00B0B581B0A1B94268012392F9112002F0CE
:100ABC001F0C03FA0CFC4EF200135209CEF2000389
:100ACC0003EB8202C2F880C0BFF34F8FBFF36F8F6E
:100ADC004EF28002436BC4F27F0240F2000CC4F26F
:100AEC007E0C42F8503CE8238CF8003002238CF842
:100AFC000030036B4FF0010E1B88ACF8003003691B
:100B0C00009300BF13685B0506D5009B5C1E002B91
:100B1C000094F7D11CE000BF00F1300538CD013D49
:100B2C00023300F13007023438C75FEACE754FF05C
:100B3C00000EE1D1D0238CF8003061B110680004B4
:100B4C0018D4481C013803D01168090412D4F9E7F1
:100B5C00142001B0B0BD4068012290F9110000F0E2
:100B6C001F0102FA01F14EF200124009CEF200020E
:100B7C0042F820100020ECE780B5036B4EF2300EEB
:100B8C00C4F27F0E40F2000CCEF80030C4F27E0CA2
:100B9C0020238CF80030D0238CF80030036B826B50
:100BAC004033013A0363826351B1DEF85000000414
:100BBC0006D4481C013805D0DEF850100904F9D5CC
:100BCC00002080BD142080BD4EF28401C4F27F0150
:100BDC004FF42A40B1F800C00880088868B14BF285
:100BEC0000530020CFF6FF73002B08BF4FF4FA70B0
:100BFC000A880133002AF7D100E00020BCF1800FF5
:100C0C001AD0BCF1010F18BF70474CF200124DF610
:100C1C000113C4F2010221F8403C0121918000BF74
:100C2C0091880029FCD10121118047F20002C4F205
:100C3C00000291601160704747F20001C4F200019C
:100C4C0001224A604A68002AFCD1704710B581B075
:100C5C004FF49641009141680A78012A36D191F9F6
:100C6C00111046F20032C4F2000252F821304EF25A
:100C7C00001E23F4803342F8213052F8213001F069
:100C8C001F034FF0010CCEF2000E0CFA03F30EF51D
:100C9C00C0744909BFF35F8F44F821304EF82130FE
:100CAC00406890F9130052F8201021F4803142F87A
:100CBC00201052F8201000F01F010CFA01F140092D
:100CCC00BFF35F8F44F820104EF820104EF28400D2
:100CDC00C4F27F004AF68021018000BF0188802980
:100CEC0005D0009929B1009901390091F6E700204F
:100CFC0001E04FF4FA7001B010BD10B514464EF27D
:100D0C001002C4F27F021378DB0601D4002307E043
:100D1C00136F5B0402D513780023137040F2F513A4
:100D2C00126F0A4208BF1C46002818BF04460CB1BB
:100D3C0000F002F8204610BD81B04FF496414EF2FF
:100D4C00100000910021C4F27F00C4F27E01B32296
:100D5C000A7000BF016F090405D4009951B10099C4
:100D6C0001390091F6E7007840F2F511C00601EA6E
:100D7C00E07000E0142001B07047D4D42DE9F041AC
:100D8C000D7C024600200124032D88BF012004FAAB
:100D9C0005F51074D560087C49F20005C4F21605FF
:100DAC0005EB00209060D1E9050500275160D56165
:100DBC00C2E90507D1F81C80EFF3108084F310888A
:100DCC0044F210050C7CC4F208054FF0004C2E6860
:100DDC002CFA04F4A6432E602E6880F310889068D9
:100DEC004FF4254606609068C7629068C7639068A8
:100DFC0087640E78087A032E96684FEAC0504D68C7
:100E0C0008BF00F58030F0629068C0F810C09068A0
:100E1C00C0F814C09068C0F818C090684762906819
:100E2C008762D8F818009668F061D8F81C009668AC
:100E3C00306290686E1E8666906846665068D8F878
:100E4C0050C0C06900F1300490F84860FE40F607CD
:100E5C000DD03B4654F827609568042F08BF032338
:100E6C00032F08BF0423013E05EB8303DE64013727
:100E7C00062FE9D19068002383639068C0F888300E
:100E8C00D8F8500040B998F8200098F82130400369
:100E9C0040EA43704CEA000C98F84800936800282C
:100EAC004FF4A00008BF4FF4AA0018649068032305
:100EBC00C0F834C090684EF2001C036393680120A4
:100ECC001863D2E9023740F2684EDF6091F91240A4
:100EDC0046F20033CEF2000CC4F20003002CC2F236
:100EEC00000E1BD4497C0CEB0405090185F800139A
:100EFC004EF8242053F8241021F4803143F82410A8
:100F0C0053F8241004F01F01884061090CEB810494
:100F1C00BFF35F8FC4F880014CF8210098F92800CA
:100F2C0000281ED498F822100CEB0004090184F858
:100F3C0000134EF8202053F82010012421F48031A6
:100F4C0043F8201053F8201000F01F01400904FA58
:100F5C0001F10CEB8004BFF35F8FC4F880114CF8E7
:100F6C00201098F9290000281ED498F823100CEBB7
:100F7C000004090184F800134EF8202053F82010C7
:100F8C00012421F4803143F8201053F8201000F094
:100F9C001F01400904FA01F10CEB8004BFF35F8FD1
:100FAC00C4F880114CF8201098F92A0000281ED49F
:100FBC0098F824100CEB0004090184F800134EF887
:100FCC00202053F82010012421F4803143F8201004
:100FDC0053F8201000F01F01400904FA01F10CEB4A
:100FEC008004BFF35F8FC4F880114CF8201098F97F
:100FFC002B0000281ED498F825100CEB00040901D6
:10100C0084F800134EF8202053F82010012421F40A
:10101C00803143F8201053F8201000F01F014009D4
:10102C0004FA01F10CEB8004BFF35F8FC4F880115C
:10103C004CF8201098F92C0000281ED498F8261093
:10104C000CEB0004090184F800134EF8202053F82F
:10105C002010012421F4803143F8201053F8201083
:10106C0000F01F01400904FA01F10CEB8004BFF3FE
:10107C005F8FC4F880114CF8201098F92D000028CF
:10108C001ED498F827100CEB0004090184F8001307
:10109C004EF8202053F8201021F4803143F8201012
:1010AC0053F8201000F01F010123400903FA01F14D
:1010BC000CEB8003BFF35F8FC3F880114CF820104A
:1010CC0045F25401C0F2470100201160BDE8F081E7
:1010DC00D0E9021200204A60704780B5D0E9011EA9
:1010EC00C969D1E901C3CA6843F00043CEF8143092
:1010FC00836842F000429A6182684CF000431361AD
:10110C000A6983685A62496982680020916280BDCD
:10111C002DE9F04184B0EFF303814FF0704246F2B9
:10112C00003002EB0161C4F200008A15135823F45D
:10113C0080331350135840F26843C2F2000353F843
:10114C000280D8F804201378012B40F0B180D8E944
:10115C000235D2699D60D8F8083000259D64D8F816
:10116C0008300916DD64D8F808304EF2802C1D6565
:10117C0050F82130012523F4803340F8213050F809
:10118C00213001F01F03CEF2000C05FA03F34909DC
:10119C00BFF35F8F4CF8213092F84830D90717D045
:1011AC0092F92850002D13D450F82510012321F466
:1011BC00803140F8251050F8251005F01F0103FA76
:1011CC0001F16B09BFF35F8F4CF8231092F8483094
:1011DC00990715D592F92930002B11D450F823100A
:1011EC00012521F4803140F8231050F8231003F02E
:1011FC001F0105FA01F15B09BFF35F8F4CF8231057
:10120C0092F92A30002B11D450F82310012521F427
:10121C00803140F8231050F8231003F01F0105FA19
:10122C0001F15B09BFF35F8F4CF8231092F92B305F
:10123C00002B11D450F82310012521F4803140F8F3
:10124C00231050F8231003F01F0105FA01F15B097C
:10125C00BFF35F8F4CF8231092F92C30002B11D474
:10126C0050F82310012521F4803140F8231050F858
:10127C00231003F01F0105FA01F15B09BFF35F8F27
:10128C004CF8231092F92D20002A11D450F822107A
:10129C0021F4803140F8221050F8220002F01F0097
:1012AC00012101FA00F05109BFF35F8F4CF82100C6
:1012BC00D8F81410B9B1D8F8180001AD28B103460C
:1012CC0093E8D0002A46D0C200E02846D8F81C305B
:1012DC0000220271826003608847D8F8180010B1B0
:1012EC0095E80E000EC004B0BDE8F08180B545F263
:1012FC005422C5F24F020260084600F019F8002093
:10130C0080BD80B56FF0010000EAD11040F2000CF6
:10131C000101C4F2080C5CF801E003EA020040EAA7
:10132C000E0062EA0302024000204CF8012080BD4E
:10133C0070B5044600F05CF840F2644CEFF310809A
:10134C00012181F31088C2F2000CDCF8001039B9CD
:10135C0040F60351C4F2080100220A7040220A70C0
:10136C00DCF800100131CCF8001080F310882088D4
:10137C0010B340F6000E0021C4F2080E606800EBBA
:10138C00C102928850F83130100ADD03D2B20BD56D
:10139C000EEB801555F8226026F4803645F8226055
:1013AC0023F4803645F822600EEB801040F8223092
:1013BC00208801318142E1D3EFF31081012080F3C9
:1013CC001088DCF8000020B1DCF800000138CCF803
:1013DC000000DCF8000038B940F60350C4F20800F5
:1013EC00002202708022027081F3108870BDD4D468
:1013FC002DE9F04F81B00446008800285CD043F200
:10140C0040084EF2BB4A41F6004BC4F208080026D5
:10141C00C4F2010AC0F2000B4FF00109002700BF13
:10142C0060683BF8172000EBC600818891423CD1E4
:10143C0000689AF8001000F0B85009FA07F5B0F1FE
:10144C00807F05EA010015D150B90120FFF769F83A
:10145C009AF8000028438AF800000120FFF738F8BA
:10146C0018F91700002820D418F8170040F0800055
:10147C0015E000BF50B10120FFF753F89AF80000B7
:10148C00A8438AF800000120FFF722F818F917008A
:10149C00B0F1FF3F09DC18F8170000F07F0008F8E6
:1014AC001700C8200121FEF766FF0137032FB7D1C3
:1014BC00208801368642B1D301B0BDE8F08F80B5EB
:1014CC0000F0DFF8002080BD40F6A010C4F2080048
:1014DC0040F605010160704740F62410C4F2080084
:1014EC000168890740F6040158BF40F60501016008
:1014FC00704740F6A010C4F2080040F604010160E9
:10150C007047D4D40121EFF3108081F3108840F29E
:10151C006441C2F200010A683AB940F60352C4F2BF
:10152C000802002313704023137082B00A6840F243
:10153C00F84501320A6080F31088C2F200050020E1
:10154C0001AC0326C5E900001EE000BF00F078F9ED
:10155C0000F0BCF8012001210022234600F034F8F1
:10156C0000B92E70042001210022234600F02CF833
:10157C000028F7D12878022806D1E7E700284FF099
:10158C00040008BF01202870C1B20529FCD8DFE88F
:10159C0001F0140C0B081703BFF34F8F022030BF60
:1015AC00F1E700F04AF9E9E7D0E700F044F9002848
:1015BC004FF0040008BF0220E5E700F0BDF8DDE7BE
:1015CC0002B000BFFEE7D4D42DE9F04740F2F84852
:1015DC001C4615468946074601F0FD0AC2F2000872
:1015EC008E1E00BFD8F8040004B12060022E00EA61
:1015FC00070007D3B9F1010F0DD80146002818BF19
:10160C00012103E0391AB1FA81F14909BAF1010F4C
:10161C0000D161B989B935B101204FF47A71013D1E
:10162C00FEF7A9FEDEE74FF0FF30BDE8F087D8F8F3
:10163C00041021EA0000C8F804000020BDE8F0877F
:10164C0040F2F842C2F20002536840EA03005060D4
:10165C0001B108600020704740F2F842C2F200026B
:10166C00536840EA0300506001B1086000207047E5
:10167C0040F2F840C2F20000416841F008014160BC
:10168C007047B0B5202440F28040C4F20804002515
:10169C00C2F200004FF480714FF6FF724FF6FF73E9
:1016AC002580FFF72EFEA560E560BDE8B040FFF792
:1016BC0029BF022818BF704740F2804041F64471A0
:1016CC00C2F20000C0F20001FFF710BE40F204505D
:1016DC00C2F200000068C00708BF704700F000B8F5
:1016EC0010B540F20454C2F20004206820F001004E
:1016FC0020602068800758BF10BD01200021FFF733
:10170C009FFF206820F00200206010BD78B110B55A
:10171C00864640F20450C2F20000BEE81E00844629
:10172C00ACE81E009EE81E008CE81E0010BD40F2C6
:10173C000450C2F20000704770B5FFF7C5FE42F2CC
:10174C006401C0F2000100201C2200F00AF942F2F0
:10175C008001C0F2000101201C2200F002F942F2CB
:10176C009C01C0F2000102201C2200F0FAF842F2A7
:10177C00B801C0F2000103201C2200F0F2F842F282
:10178C00D404C0F20004042021461C2200F0E9F825
:10179C00052500BF284621461C2200F0E2F8013541
:1017AC00082DF7D142F2F000C0F20000182100F031
:1017BC0059F940F22454C2F2000441F67871C0F297
:1017CC0000012046EC2200F05EF940F20010C0F659
:1017DC000000002160501431A02900F18000F9D1E3
:1017EC0041F65870C0F20000FFF790FF40F200562F
:1017FC00C2F200063060282040F28845C4F208008E
:10180C000024C2F2000541F6604104604460C0F25D
:10181C0000012846FFF7B2FA2846FFF75EFC28467F
:10182C00FFF756FCFFF765FE3068002808BF4FF045
:10183C00FF34204670BD0020704700207047D4D480
:10184C0040F22452C2F2000292F8A100411E022979
:10185C0035D22DE9F04140F20058C2F2000892F85E
:10186C00A010D8F8000000238361C361E9B10432F1
:10187C004FF0010C002500BF52F8046C377C012F8F
:10188C0006BF778B0CFA07F7002714783D43023C10
:10189C00032C05D8778B0CFA07F72F403B43836159
:1018AC00013902F11402E7D1C561FFF715FED8F832
:1018BC000000D0E905010160BDE8F04103E010B97A
:1018CC00012082F8A1000020704780B5002000F0B4
:1018DC0007F804200021BDE88040FFF7BDBED4D43A
:1018EC0040F22451C2F2000191F8A020C2B3F0B52D
:1018FC0091F8A1C002EB8202930000224FF0020E7D
:10190C008D58AC7C012C01EB020405D106882769AB
:10191C0007FB06F6360CE6802E7CD6B12679012E16
:10192C0010D0B6B9BCF1010F13D1ED8805EB8506CB
:10193C007600002D4FF00105A66008BF0225257129
:10194C0007E000BFA568002D1ABF013DA56084F813
:10195C0004E01432934200F10200D1D1BDE8F04012
:10196C00704740F20013C0F6000303EBC01000F008
:10197C0001B8D4D4F0B581B040F21065C2F20005C4
:10198C0016460F46044628468021FF2200F072F8C6
:10199C0028463946324600F076F84FF6FF700021A3
:1019AC0041F221026B5C80EA0320002307463EB221
:1019BC004000002E48BF82EA4700072B03F10103C9
:1019CC00F4D301313E29EDD140F29066C2F200060B
:1019DC003178E88769B940F2A84041F68041C2F2FB
:1019EC000000C0F20001FEF7C3FD00B1FEE70120CC
:1019FC00307040F2A840C2F2000021460222FEF7ED
:101A0C0055FE00B1FEE740F2A845C2F200050DF10B
:101A1C00030600BF28463146FEF781FE9DF8030001
:101A2C000028F7D140F2A84040F21061C2F2000049
:101A3C00C2F2000122464023FEF708FE08B100BFA7
:101A4C00FEE740F2A844C2F200040DF1030500BF0A
:101A5C0020462946FEF763FE9DF803000028F7D1C7
:101A6C0001B0F0BD0A46014640F20010C0F600007D
:101A7C00FFF780BF0B4611461A4600F00DB80A4618
:101A8C00002100F009B810B500239A4203D0CC5CB9
:101A9C00C4540133F9E710BD00239A4208BF7047C4
:101AAC00C1540133F9E7D4D410B505490446054AAD
:101ABC00FFF7E9FF044805492044FFF7E0FF10BD9C
:101ACC004C000000000000000000000000000000BE
:101ADC000249401A02490860704700BF0800000024
:101AEC0094060020060007000800D4D40300000070
:101AFC00F01A000001000200080010002000D4D4ED
:101B0C0000000068000000680000002000000020B9
:101B1C0005000000341B000009000000701B0000D1
:101B2C00020000000C1B00000000006800000068B0
:101B3C0000010008000000680000006800010008B7
:101B4C000000002000000020000000032004002002
:101B5C00980600200000000398060020980600203C
:101B6C000000000300000068000000680000006036
:101B7C0000010C0800000068000000680000007004
:101B8C00000109080000006800000068000000085F
:101B9C000001020800000068000000684C00000012
:101BAC00000101080000002000000020000000607F
:101BBC0000010C0300000020000000200000007059
:101BCC0000010903000000200000002000000008B4
:101BDC000000020300000020000000204C00000068
:101BEC000000010398060020980600204C0000001D
:101BFC0000000103020403040404D4D40000000018
:101C0C0000000000000000000000000000000000C8
:101C1C000000000000000000000000000000FFFFBA
:101C2C00FFFFFFFFDFDFDFDFDFDF00000000000072
:101C3C000000000000000000000000000000000098
:101C4C000000000000000000000000000000000088
:101C5C000000000000000000102700000000000041
:101C6C008813000002020200D718000000000000D8
:101C7C00081C0000010000007D16000000000000A0
:101C8C00000000000C000C010080000000000000AF
:101C9C000080000001000000008000000200000035
:101CAC000080000003000000004000000400000061
:101CBC0000400000050000000400000006000000C9
:101CCC0004000000070000000400000008000000F1
:101CDC00008000000E000000008000000F000000DB
:101CEC000008011C000100000008011C010100009B
:101CFC000008011C020100000008011C0301000087
:101D0C000008011C040100000008011C0501000072
:101D1C000008011C060100000008011C070100005E
:101D2C000000010008010000000C01030B01000081
:101D3C00040C00000C010000040C00000D0100005C
:101D4C00040C00000E010000040C00000F01000048
:101D5C00000C010602020000000C01060302000048
:101D6C00000C010604020000000C01060502000034
:101D7C00000C010606020000040C00000702000023
:101D8C000000010000030000000C0106010300002C
:101D9C00000C010602030000040C00000303000009
:101DAC00000C011105030000000C011106030000DA
:101DBC00000C011107030000000C011108030000C6
:101DCC00000C011109030000000C01110A030000B2
:101DDC00040C00000B030000104000000004000085
:101DEC00000C011701040000000C01170204000094
:101DFC00050C000003040000040C000004040000A7
:101E0C00000C011705040000000C0117060400006B
:101E1C00000C011307040000040C0000080400006F
:101E2C001040000009040000000C01060A04000028
:101E3C00000C01060B040000000C01060C04000051
:101E4C00000C01060D040000000C01070E0400003C
:101E5C00000C01070F040000000C0113000500002A
:101E6C00000C011301050000400C010405050000E5
:101E7C00400C010406050000000C01070B050000D6
:101E8C00000C01070C0500000008011C00060000F6
:101E9C000008011C010600000000011C02060000E5
:101EAC00040C0000080600000000011009060000E8
:101EBC00000001100A060000040C00000B060000D4
:101ECC00000001050D060000000001050E060000D3
:101EDC00050400000F060000000C011700070000AD
:101EEC00000C011701070000000C0117020700008D
:101EFC00000C011703070000000C01170407000079
:101F0C00000C011705070000004000000607000048
:101F1C000000011407070000000C01060807000070
:101F2C001040000005090000000C0114000B00001B
:101F3C00000C0114010B000056000000941C000062
:101F4C000000000031003000D800D4D400000000A4
:101F5C000000000000000000F81A00000000000063
:101F6C0020000840000000000000000000000000FD
:101F7C000000000000000000000000000000000055
:101F8C000000000000000000000000000000000045
:101F9C000000000000000000000000000000000035
:101FAC000000000000000000000000000000000025
:101FBC000000000000000000000000000000000015
:101FCC000000000000000000000000000000000005
:101FDC0000000000000000000000000000000000F5
:101FEC0000000000000000000000000000000000E5
:101FFC0000000000000000000000000000000000D5
:10200C0000000000000000000000000008000000BC
:10201C0000000000000000000000000000000000B4
:10202C0000000000000000000000000000000000A4
:10203C000000000000000000000000000000000094
:10204C000000000000000000000000000000000084
:10205C000000000000010008E40C480DB80B05005E
:10206C0005000A0000000000000001000000010053
:10207C0000000B008813EC13A00F0A00140064007E
:10208C0000000000010001000000010000000C0035
:10209C00E02EEA2E722E02001E000A000000000044
:1020AC00010001000000010000000F00600965093B
:1020BC005B093C0000000000000000000100020071
:1020CC000000010000000300600965095B093C0089
:1020DC0000000000000000000000020000000100F1
:1020EC0000000300000000000000000000000000E1
:1020FC0000000000000001000000000000000506C8
:10210C00362E352E30004275696C742077697468F0
:10211C002052656E6573617320416476616E6365F0
:10212C006420466C657869626C6520536F667477C1
:10213C00617265205061636B6167652076657273AF
:0A214C00696F6E20362E352E30002C
:020000040100F9
:04A10000FFFFFFFF5F
:04A20000FFFDFFFF60
:04A28000F8F8FFFFEC
:0400000300000051A8
:00000001FF
