:020000040200F8
:10000000502C0022C148000259470002BD4800029E
:10001000BD480002BD480002BD480002BD480002C4
:10002000000000000000000000000000BD480002C9
:10003000BD48000200000000BD480002BD480002AB
:10004000614300025D1C0002CD1B0002ED1C00029A
:10005000391D0002413500024135000241350002E0
:10006000C1410002252A0002792A0002CD2A00029D
:10007000B12B0002152C0002692C000200000000C8
:100080000000000000000000000000000000000070
:100090000000000000000000000000000000000060
:1000A0000000000000000000000000000000000050
:1000B0000000000000000000000000000000000040
:1000C0000000000000000000000000000000000030
:1000D0000000000000000000000000000000000020
:1000E0000000000000000000000000000000000010
:1000F0000000000000000000000000000000000000
:1001000000000000000000000000000000000000EF
:1001100000000000000000000000000000000000DF
:1001200000000000000000000000000000000000CF
:1001300000000000000000000000000000000000BF
:1001400000000000000000000000000000000000AF
:10015000000000000000000000000000000000009F
:10016000000000000000000000000000000000008F
:10017000000000000000000000000000000000007F
:10018000000000000000000000000000000000006F
:10019000000000000000000000000000000000005F
:1001A000000000000000000000000000000000004F
:1001B000000000000000000000000000000000003F
:1001C0000348044B834202D0034B03B118477047E6
:1001D000D4010022D401002200000000064B074990
:1001E000C91A891048BF0131491003D0044B0BB123
:1001F00001481847704700BFD4010022D4010022F3
:100200000000000010B5064C237843B9FFF7D8FF73
:10021000044B13B10448AFF300800123237010BDD9
:100220000002002200000000F4FF0C0208B5054B9C
:100230001BB105490548AFF30080BDE80840FFF752
:10024000CDBF00BF0000000004020022F4FF0C023A
:10025000037913B90122014B1A6070470000002096
:10026000024638B501251B491B4B126800200D7052
:100270001A6000F0F9FF194C0021206001F05AF8D3
:1002800080B99B21206800F027FCE8B92946206846
:1002900000F042FC90B903220221206800F05EFCCD
:1002A00030B938BD2F210E4B0E4A0F4804F022FA08
:1002B00033210E4B0B4A0C4804F01CFA32210C4B34
:1002C000084A094804F016FA31210A4B054A064843
:1002D00004F010FA1C020022C88000202402002230
:1002E000B0F00C02F0F20C02E0F00C0260F10C0233
:1002F0002CF10C0200F10C020378032B06D1012132
:10030000034B044A197013680B441360704700BF15
:100310001C020022C402002203781BB94368B3F513
:10032000807F00D070470122014B1A60704700BFE8
:100330002002002270B5114C0E46237815467BB181
:100340000F4C2A462368314623F001030D482360F1
:1003500001F07EFA70B92368DB07FCD5284670BD32
:100360000949084801F0B0FA10B901232370E7E702
:1003700000BEE5E74FF0FF35F0E700BF280200229E
:100380002C0200225003002288F40C0210B504460F
:1003900005F087F92146BDE8104002460020FFF72E
:1003A000C9BF00BF0379022B0ED0042B0BD181688B
:1003B0000E4A0D2913680DD00D48C1547E2B53EA07
:1003C000C3931360704770470A4A136843F00103F0
:1003D00013607047002130B4054C074D0748E154C5
:1003E0002B601160016030BC704700BF38020022F2
:1003F000400200222C02002230020022340200229D
:100400002DE9F04F4FF00008984E87B0984FCDF887
:10041000148004F057FB41464FF48012304605F03B
:1004200001F97D68934AEB88A2FB0312991A02EB4B
:100430005102C2F38F04CBB3B646A96842464FEAD5
:10044000410A04EB4408A9884FEA440C4FEA8409A6
:100450004FEA480B31B30023AEF1020018E0944597
:1004600000F2D880904500F2D880914500F20C82CD
:1004700009EB0401914200F2348293454FF6E0719A
:1004800088BF002120F8021FA98801338B4208D2BF
:100490009442E4D91F2120F8021FA98801338B421E
:1004A000F6D3EB8801329A42D644D3D3042240F6E5
:1004B0000121714802F0E0FD042240F204416E483F
:1004C00002F0DAFD002240F601216B4802F0E2FC66
:1004D0000121072004F016F940F6012101226648A7
:1004E00002F0D8FC6549664803F0D6FB00B100BEB7
:1004F00005204FF47A7104F005F9614803F0B2F871
:1005000000B100BE4FF47A71C82004F0FBF801225C
:1005100040F20441584802F0BDFC00B100BE7B68C7
:10052000584C59495948236002F034FF574802F0AB
:10053000DDFE5749574802F02DFF564802F0D6FE1F
:100540005549564802F026FF544802F0CFFE544960
:10055000544802F01FFF534802F0C8FE2368524877
:100560005B68DFF8748183600660FFF779FE4F48AF
:10057000FFF70CFFC8E9296623684D4F9A88DB888E
:100580004C4D03FB02F43A804B492B80C8F8AC6019
:100590004A480094C8F89C4005F024F84748FFF703
:1005A000F5FE4748FFF7F2FE00233848C8F8003050
:1005B00002F05EFE03463748059302F059FE0590AF
:1005C000D8F80030002BFBD0324C3E4D204602F0D4
:1005D0003FFE0346A26805933B49926C374805F0FD
:1005E00001F83648FFF7D2FE254803F03BF8374EB6
:1005F000DFF8E8A0DFF8E89005902C68062C00F200
:100600003681DFE814F0EA00B400AF00AA00A500CC
:100610006F000D0040F2FF7134E74FF4FC6131E7E9
:100620002B48FFF7B3FE164803F01CF803464FF4BF
:100630007A714FF4FA70059304F064F82548FFF7D7
:10064000A5FE2C68632C53D000F21581002C00F01D
:100650001881062C40F0128164232B604FF47A71CC
:100660004FF4FA7004F04EF8C7E700BF00000068CE
:100670000CF30C02254992241803002218F30C02F3
:1006800020030022D4020022BCF40C0280030022CA
:1006900074F50C02C003002218F50C02A00300221E
:1006A000D0F50C02E0030022D0840020A8F10C0257
:1006B000D2020022D0020022ACF10C02D8020022A9
:1006C000D0F10C02CC020022ECF10C022C00002034
:1006D000CCF20C02DCF20C0200000020C802002266
:1006E0001F85EB518048FFF751FE2C68632CABD17E
:1006F0000122DAF800302A6013449342CAF800302D
:10070000ACD17A48FFF742FE794802F0ABFF0346CE
:100710004FF47A714FF4FA70059303F0F3FF7548C4
:1007200002F0B6FD734802F0A3FD0023724A136085
:10073000724A1360704B1B68002BFBD06F4B7049E3
:100740001A68704804F04EFF6E48FFF71FFE85E7F9
:100750006D48FFF71BFE2C6874E76C48FFF716FE28
:100760002C686FE76A48FFF711FE2C686AE7694852
:10077000FFF70CFE002342F210740120C8F8883005
:1007800006F052FBD8F89C70D8F88C20642307FB45
:1007900002F20492D8F808205F490392039A59485C
:1007A000920A0392049A920A0492049A04FB02F2B7
:1007B000039CB2FBF4F20392039A039FA9FB02424B
:1007C000A9FB07C4640903FB1473520904F00AFF70
:1007D0004C48FFF7DBFD2C6834E75048FFF7D6FDA7
:1007E000DFF820B100234E4FC8F888300393002073
:1007F00006F01AFB039B57F8042F1344B7420393E8
:10080000F5D1039B474A6427A2FB03234FF48042A0
:100810005B0B039342F210730492049A584603FB55
:1008200002F2039B3C49B2FBF3F20392039ADDF818
:100830000CC0A9FB0232A9FB0CE35B0907FB13C345
:10084000520904F0CFFE5846FFF7A0FDFCB1364830
:10085000FFF79CFD264802F0C5FF03464FF47A716E
:100860004FF4FA70059303F04DFF2C68EAE6632C11
:100870003FF43EAF02D9642C3FF4F0AE01342C605B
:10088000ECE606232B60E9E64FF6FF71FAE5274810
:10089000FFF77CFD164802F0E5FE03464FF47A713F
:1008A0004FF4FA70059303F02DFF124802F0F0FCAC
:1008B000104802F0DDFC104B1C60104B1C600E4B0E
:1008C0001B68002BFBD00B4802F0C2FC0B4B1849F5
:1008D0001A68584604F086FE5846FFF757FD012473
:1008E00080E74FF61F01CDE5C4F20C02CCF20C02FA
:1008F00020030022E0030022C0020022C4020022E2
:10090000E4F20C02D8020022B8F20C0298F20C02B7
:1009100080F20C0268F20C022CF20C02FCF10C02C8
:1009200004000020CDCCCCCC3CF20C024CF20C02EA
:100930005CF20C02022800D07047024B0248596852
:1009400002F054BCFCF20C0218030022704700BFF6
:10095000024A136801331360704700BFC0020022CF
:1009600008B5FFF74DFD002008BD00BFFFFFFFFFEA
:100970002DE9F84306464FF4BE7000F079FD0446B9
:10098000002800F096804FF07F436FF07F420025F3
:100990004FF0FF370221C0E95333C0E9022280F84B
:1009A000D510076180F80E51D6F88020C0F8543178
:1009B00012F0006F4FF010034FF004024FF4703C40
:1009C00080F8E9204660C0F828518382404B4FF4FC
:1009D000B05008BF4FF480034FF4803101229FEDE7
:1009E000384B9FED395B80EF506040F2011EC4F838
:1009F00034C14FF400294FF0400C4FF0AA08C4E96D
:100A00004703706DC4F81011034343F4012343F40A
:100A1000C06384ED315FC4F82431C4F8162084F833
:100A2000D420C4F83011C4F81811A4F8D6E0C4F8E2
:100A3000D8C004F11C00C4E93F55C4F82C91C4F897
:100A4000148184F80F51C4E9415584ED4F7FA4F817
:100A50000C2100F0DFFC04F1340000F0DBFC04F1B9
:100A60004C0000F0D7FC04F1640000F0D3FC04F16A
:100A70007C0000F0CFFC04F1940000F0CBFC04F10A
:100A8000AC0000F0C7FC0C22124B3046C4F8E43036
:100A90002146C4E93757C4F8387184F8E82000F0DB
:100AA00083FDF3692046236086F8C651F461BDE8F2
:100AB000F883012586F8C6512046BDE8F88300BFBB
:100AC000AA00000004000000000000001000000068
:100AD000080040200103030300B5436A024693F86F
:100AE00012C093F80E018C4540F0010E18BF40F083
:100AF000070083F80EE118BF83F80E01987D997402
:100B0000C0074FF0000044BF0906C3F84C1182F83B
:100B1000C6015DF804FB00BF00B5436A024693F8C6
:100B200016C093F80E018C4540F0010E18BF40F03E
:100B30000700997583F80EE118BF83F80E01C90705
:100B400058BF4FF07F414FF0000044BF997C090629
:100B5000C3F84C1182F8C6015DF804FB10B4446A76
:100B6000032994F80E31844643F0010384F80E31D2
:100B700027D81A4B53F82110032A22D8DFE802F0B5
:100B80002B04022841F480610022D4F82001D4F81B
:100B90002C31C4F81C110343DCF854000343D4F88F
:100BA0003C010343D4F840010343D4F84401034318
:100BB0000B43C4F824318CF8C62110465DF8044B71
:100BC000704710228CF8C62110465DF8044B704720
:100BD00041F4A051D8E741F48051D5E7A8FB0C02BD
:100BE000F8B5054614200E46AF6900F041FC002818
:100BF00035D00022AB6E044606EB86018660C260EB
:100C0000D8074FEA810113D5084600F031FC606037
:100C100010B30022AB6E2261D90705D4D5F8843019
:100C2000DA0613D49B0707D4002323602046F8BDBF
:100C3000284600F05BFCEAE7A268042102EB82028E
:100C40003846920003F0C6FB2061EDE701463846C6
:100C500003F0C6FB2061E7E7204600F00BFC002410
:100C6000E4E700BF836810B50446186838B1D0E9DE
:100C700001230021C1602261E361A06010BD216AEF
:100C80002068FFF7ADFF10B1A3681860EFE71522E9
:100C9000236883F8C72110BD2DE9F0474569044654
:100CA000C26982B0002D3CD0AB69002A34D1016802
:100CB000012BD1F8188040F29A808768D5F810A0EF
:100CC000F968D7E9019606EB860609EB8603006909
:100CD0000AEB860609B10E60FA60834207D91A1A38
:100CE000013A22F003028021043204F09BFCBB682D
:100CF000102703EB83039B004A465146404600976A
:100D000003F072FBAB692E61013BAB61204602B080
:100D1000BDE8F047FFF7A6BF012B22D002B0BDE827
:100D2000F0870669764B40F2FF3733603346D0F8E0
:100D300008C0013A43F8045F06F10C01CCF80C300E
:100D4000B760C0E906520161FFF78CFF236893F991
:100D5000C731002B7CD1A3685B68736002B0BDE82B
:100D6000F087EA690168012AD1F8188044D9EE6851
:100D7000A1687068013A0F46EA61002800F0AC8073
:100D8000FA682369002A56D010600022FA60A2692E
:100D90001F46032A0FD8DFE802F05541023440F223
:100DA000FF32DA601A88103342F0004242F4000247
:100DB00043F8102C23614FF0100C0027E3694046E4
:100DC000013BE361D1E9012303EB830329699B0024
:100DD000CDF800C0A76103F007FB7368002B95D026
:100DE000331DEB6072686B692A61AB618EE7EA695B
:100DF000012ABCD88AD1012B04BF152381F8C73141
:100E000084E740F2FF321A611A68143322F07F42FD
:100E100042F0004243F8142C2361CCE740F2FF3249
:100E20009A601A780C3342F0802242F4000243F8B0
:100E30000C2C2361BFE7324A03F108071A6043F81C
:100E4000040FCB6040F2FF3347F8043B2761B2E761
:100E50002369A269A3F10C012161032A11D8DFE8FB
:100E600002F0162D1E0240F2FF3053F80C2C03F155
:100E7000080122F07F4242F0004243F80C2C5860F7
:100E800021610022E369013BC4E9062346E740F201
:100E9000FF31A3F1080243F80C1C2261F1E7194667
:100EA00040F2FF3033F80C2C42F0004242F40002D2
:100EB00043F80C2C41F8040B2161E2E740F2FF31CA
:100EC00013F80C2C43F8041C42F0802242F4000278
:100ED00043F80C2C2361D4E7AA68042102EB8202B8
:100EE0004046920003F076FA706008B1A16847E7C7
:100EF0000122236883F8C7212369A16847E700BF5F
:100F0000328080802DE9F04FD0E96D51876EC46842
:100F1000A1EB050817F0200781462268A66987B073
:100F20004FEAE80851D1A942236947D002F5BC71C4
:100F30008946DFF8C4A1083502F18C0B019005E069
:100F40000137B84505F1080534D9226892F9C7215F
:100F500003EB860E701C6ABB55E9022C1AF80210CE
:100F600061B119F9021019B15BF822106145E7D09F
:100F70004FF0010109F802104BF822C09A55E26ABD
:100F800010F0030602F10102CEF804C0E262D7D1EC
:100F9000E2692369013A1433012A2361E261CFD85F
:100FA0002046A6610137FFF777FEB845236905F1B2
:100FB0000805CAD8DDF80490D9F8B451A6614023D9
:100FC000C9E96E5307B0BDE8F08FE36A4344E362BA
:100FD00092F9C731002BF2D136B32069B8F1000F76
:100FE000EDD0424605F1080302E00833002E7CD024
:100FF00053E90217013A815500EB860106F101061B
:101000009C464F6006F0030608F1FF38EDD11F46FD
:10101000002ED4D10022E3691430013B012BC4E936
:101020000623206163D93D465FEA980A4FF0000726
:1010300005D130E00137574505F120052BD0236855
:1010400093F9C7313BBB1A462E68296966F307023C
:10105000AE68236966F30F2261F31742A96903F1B1
:10106000140061F31F6243F8042B6A680292EA6875
:1010700003926A690492EA6905929DED027F83ED0D
:10108000007FE3692061013B012BE361D2D8204658
:10109000FFF702FECEE718F00308D9F8B42122D0FA
:1010A000236808F1010893F9C73105F1080105EB40
:1010B000C808C3B9A8EB0108A8F1080E4FEADE0E74
:1010C0000EF1010E4EF001E0A369206951E90256CC
:1010D000C5545D1C00EB83035E6005F0030308311B
:1010E000A3610FF00DC8154669E7674692E72046F1
:1010F000FFF7D2FD3D4697E7B8FB0C02B1F934008B
:101100002DE9F041B1F93650431EAB420C4617466B
:101110000E6B09DD4FEA85086B1C46F8257006EB5F
:101120000800E386BDE8F081103000B201223146AC
:10113000A086800000F0A0F9B4F93420064695425C
:101140002063E7DA521B0021920000EB85004FEA92
:10115000850804F067FADFE72DE9F8430027D0F8A7
:101160007C8006460C4608604F61B8F1000F6BD0DA
:10117000D8F8003020204B6000F07AF90546606115
:1011800000285ED0D8F80800800000F071F9814690
:101190002860002855D0D8E90121D6F888306A6146
:1011A00003FB02F26960AA6079B1012399420760EA
:1011B00009D001F1FF3E4EF001E0296841F82370AB
:1011C00001330FF007C0D5F8009002EB8202042132
:1011D000B069C5F80C90920003F0FCF8C9F8000063
:1011E0002B681B686BB369686A6960682B61E96189
:1011F000AA61E06028B30023102245688168A060DE
:10120000C4E906314020C4E90A332561A28600F012
:101210002FF92063A8B16369DBB11B681D68B4F9BD
:101220003420002A03DD0021920004F0FBF90023A2
:101230002A4621463046E386FFF760FF0120BDE8DD
:10124000F8830020BDE8F8831146FFF7C9FC606011
:10125000CFE7D6F88420636812F0120F02D01D6920
:10126000002DDCD15D68DAE7F8B505464FF4EA7089
:1012700000F0FEF80446002857D000264FF0000288
:1012800002234FF40011A0F8C621C0E90666C0E9A8
:101290001236856641650665FFF76AFBA6EE100B00
:1012A0006A0684ED087F03D4702000F0E1F806465A
:1012B000002315F0040F0CBF05210421C4E90D33F0
:1012C000C4E90F33C4E91B3384F8C63184F8C43150
:1012D00063646367A4F87830636180EF50602B0724
:1012E0004FF033004FF000054FF0010748BF21F0E9
:1012F0000401221D2663676682ED007F40F22712FB
:10130000C4F88800E16504F18C0029462566E5678C
:1013100004F088F90822064BC4F88050196884F854
:10132000C851216084F8C5211C602046F8BD00BF6B
:101330000004002270B5044600F074F8A061002893
:101340005ED03B22002104F5BC7004F06BF9E56F20
:101350007DB1D4F888102046FFF742FC0646D4F849
:10136000881020462E60FFF73BFC2B6830601A681F
:101370001360D4F888202046114600F0D9F80346BF
:10138000D4F8882023611146204600F0D1F8226964
:1013900003466061F2B1E8B10025C4E9022263604E
:1013A0004FF40070656300F063F8184B4022C4F8F6
:1013B000C03103460A21C4E96D33A069C4F8BC21D9
:1013C00084F8C95102F098FF48B9002384F8C63167
:1013D000184670BD012384F8C631184670BDFF233E
:1013E0002A460A21A06902F05DFF2A460A21A06967
:1013F00002F074FFFF2804BF012384F8C931E4E739
:10140000052384F8C631184670BD00BF050F0002E1
:1014100080697047002380EF5060036080ED017F9A
:101420004361704738B50546084602F009FF044697
:10143000B8B10122114602F051FF420144BF01231D
:1014400085F8C8318303C5F880000CD5312201210D
:101450002046EB6D02F026FF204602F0BFFFC5F8E4
:101460008400204638BDAB6E43F00103AB66EDE768
:1014700002F0AABF02F0AABF2DE9F0410D4668B301
:1014800006460846904602F0A3FF044648B386424B
:101490002F4602D23846BDE8F081304602F094FF74
:1014A0000746F0B1B8F1000F12D0A40810D0A40084
:1014B000A4F1040E4FEA9E0E0EF1010E02464EF00C
:1014C00001E02B1F53F8041F42F8041B0FF007C064
:1014D000284602F07BFF3846BDE8F081084602F05E
:1014E00075FF00273846BDE8F08100BF38B50446D7
:1014F0000D46FFF78DFFD4F88430DA0711D4DB06F0
:1015000004D42846BDE8384002F05EBF2A460421D4
:10151000044602F05FFF01462046BDE8384002F075
:1015200061BF2A46BDE83840042102F053BF00BF26
:10153000F8B500B3022906460D4619D9022A174606
:1015400016D95820FFF794FF0446B8B1002301468E
:101550002A463046A363FFF7FFFDE8B1F36F8BB176
:101560000023C4E90873636586F8C6312046F8BDD8
:101570000D2386F8C63100242046F8BD012386F8E5
:10158000C631F8E74FF40070FFF772FFA06318B19F
:101590004023C4E90F33E3E70123204686F8C63130
:1015A000FFF768FFE7E700BF91F8E43010B5013BB3
:1015B000062B00F2ED80DFE803F004151B22282F34
:1015C00035004FF07F434FF0FF0C1A46604691F80C
:1015D000E5E0BEF1070F77D8DFE80EF02C837BB48F
:1015E000AEA8A17291F8DC0003061A468446EEE725
:1015F00000234FF07F424FF0FF0C1846E7E7002230
:101600004FF07F43FF209446E1E7002391F8DCC0D0
:1016100018464FEA0C62DAE7002291F8DC009446A3
:101620000306D4E791F8DC0091F8E0C003064FEA26
:101630000C62CCE74FF0000C604691F8E6E0BEF19A
:10164000070F5AD8DFE80EF00498908A84655E553B
:101650004FF0000C604691F8E7E0BEF1070F00F292
:101660009380DFE80EF0072823201D19041291F85B
:10167000DF00034391F80E01C1F8583140F0040334
:10168000C1F85C2181F80E3110BD91F8DF4091F86E
:10169000E30023430243EDE791F8DF000243E9E76B
:1016A00043F0FF03E6E742F0FF02E3E791F8DF00D3
:1016B00003430243DEE743F0FF0342F0FF02D9E7B2
:1016C00091F8DD0091F8E1C043EA004342EA0C42A0
:1016D000B3E791F8DD00844643EA004342EA004262
:1016E000ABE74FF0FF0C43F47F03604642F47F0208
:1016F000A3E791F8DE0091F8E2C043EA002342EA52
:101700000C22A8E791F8DE004FF0000C43EA00231A
:10171000A1E791F8DEC0002042EA0C229BE791F895
:10172000DD004FF0000C43EA004386E791F8DDC08E
:10173000002042EA0C4280E74FF0000CFF2043F407
:101740007F037AE74FF0FF0C002042F47F0274E73A
:101750004FF0000CFF2043F47F437CE74FF0FF0C79
:10176000002042F47F4276E791F8DE00844643EAA7
:10177000002342EA00226EE74FF0FF0C43F47F4360
:10178000604642F47F4266E7034342EA0C0271E797
:1017900000231A469C46184619E700BF30B40124BE
:1017A000164D530902F01F0C203304FA0CF445F8CF
:1017B0002340BFF34F8FBFF36F8F114B02F5C65C11
:1017C00053F82C4024F4803443F82C4053F82C3048
:1017D0000901002AC9B207DB15440A4B85F800133A
:1017E00030BC43F822007047074B02F00F0423443B
:1017F0001976044B30BC43F82200704700E100E04A
:101800000060004078040022FCEC00E0F0B5846A3F
:1018100085B005460F4694466E46B4B194E80F0075
:1018200086E80F00EB6920461B7884F804C0EA6A5A
:101830002360A7606B6AE2609847AC6A1CB196E8C7
:101840000F0084E80F0005B0F0BD3446EAE700BFA2
:1018500058B351B34AB310B51A4B86464068984204
:101860002BD19EF8023003F00303022B1FD0DEF8C9
:10187000100020BBDEF820309C6824F440149C60EB
:101880009C6C6400FCD59C6824F010049C6093F868
:101890001CC01CF0100FFAD19C68CEF8102044F048
:1018A0001014CEF80C109C6010BD0120704741EA66
:1018B0000203DB07DBD5032010BD072010BD082085
:1018C00010BD00BF42494353002800F051812DE96B
:1018D000F0410C46002900F04881CD69002D00F050
:1018E00044816B68002B00F04081B04B4268064693
:1018F0009A4200F04A8140F21F230978CB4013F04E
:10190000010000F03F812B7B052B00F0338194F91F
:101910000530002BC0F22A8194F90730002BC0F269
:10192000258194F90930002BC0F2208194F90B2015
:10193000002AC0F21B81002701F5800101F55651F4
:1019400037700902C6E907416169B3787162A1691C
:101950003046C6E90A716178B94214BF01210221FB
:1019600061F30103B370A17AFFF718FF94F9052022
:101970002179FFF713FF94F90720A179FFF70EFFF4
:1019800094F90920217AFFF709FFEFF3108701216D
:1019900081F310884FF000402278854BD0405A6880
:1019A00022EA00025A605B68962002F0ABFE87F3E1
:1019B00010884FF48063E269306A57688360637807
:1019C000E17892F800C01B02890392F801E001F46B
:1019D000804103F440730B434FEA0C68517B4FEA9C
:1019E000CE3E08F040781FFA8EFE490543EA080310
:1019F00001F4001143EA0E030B43ACF1020143F47E
:101A00008053012994F800E0A478436140F2C78034
:101A10003B680361117B01F0030141F03001002CB0
:101A200040F0B58040F21F240027937824FA0EF48A
:101A30001B0703F080530B43E107C36048BF5D4BB6
:101A4000876148BF4362937BD17B03F0010301F0C0
:101A50001F0143EA01230021127C6D89564C02F0DC
:101A60001F0243EA0243F26903633161B1613581C8
:101A7000F1607161846692F90520504B02F5C65001
:101A800053F8204061F3104443F8204053F82000FD
:101A9000BFF35F8F012002F01F045209920002F190
:101AA000604202F5614200FA04F4C2F88041146019
:101AB000F26992F90B2002F5C65453F8245061F3F1
:101AC000104543F8245053F82440BFF35F8F02F0D1
:101AD0001F045209920002F1604200FA04F402F578
:101AE0006142C2F880411460F26992F9072002F560
:101AF000C65453F8245061F3104543F8245053F86A
:101B00002440BFF35F8F02F01F045209920002F1DC
:101B1000604200FA04F402F56142C2F880411460A8
:101B2000F26992F9092002F5C65453F8245061F382
:101B3000104543F8245053F82430BFF35F8F530906
:101B40009B0002F01F0203F16043904003F56143E4
:101B5000C3F8800118601A4B326A9360137FDB0769
:101B6000FCD5124B0020736000E00120BDE8F0813D
:101B7000012070474FF6FF736A899A427FF4C7AE1F
:101B80000320F3E740F27A50F0E70E20EEE7022C54
:101B900014BF4FF440734FF48073194342E709496F
:101BA000BCF1020F084B18BF0B4632E742494353C2
:101BB0000030204000001F1F1000079D0060004003
:101BC0001104010004FF00FF24FF00FF30B4EFF315
:101BD0000383103B1F4A5BB203F5C65152F8210044
:101BE00020F4803042F8210052F821201A4A52F89D
:101BF0002300C3691B699BB103690BB130BC7047FB
:101C0000026A00219368446A23F4801343F40013AA
:101C10009360C160002CF1D030BC8022FFF7F6BD8C
:101C20000369026A002BECD08178C46801F00305D7
:101C3000022D08D02578157101F003029B1A144477
:101C4000C0E90343D9E7258825F4DC45ADB25560EA
:101C5000F2E700BF006000407804002210B582B0B7
:101C6000EFF30383103B1F4A5BB203F5C65152F8F2
:101C7000210020F4803042F8210052F821201A4A35
:101C800052F82340A27802F00303022B236A0CBF10
:101C900019681978A3690CBFC1F30801C9B2019191
:101CA00043B9636AB3B10422204602B0BDE81040D4
:101CB000FFF7ACBD02F0030201A9606903F0E4FC88
:101CC000D4E90521A37803F003031A44C91AC4E92F
:101CD000052109B102B010BD636A002BFAD00122C0
:101CE000E2E700BF006000407804002210B5EFF387
:101CF00003830F4A103B5CB252F82400D0E908215C
:101D0000936823F4401323F01003936019B1022267
:101D10000021FFF77BFD074A04F5C65352F8231054
:101D200021F4803142F8231052F8233010BD00BF57
:101D3000780400220060004038B5EFF303831D4AA9
:101D4000103B5CB252F824008378056A03F0030369
:101D5000022B0CBF29682978AA6C08BFC1F30801BF
:101D6000C2F30073C2F3006C4FEA031343EA4C134F
:101D7000C2F3C06243EAC20C18BFC9B2DB066246B6
:101D800004D5AB6C1B0458BF4CF04002AB6E43F063
:101D9000C853AB66436A0BB1FFF738FD064A04F53A
:101DA000C65352F8231021F4803142F8231052F820
:101DB000233038BD7804002200600040084B002129
:101DC0001A6A22F001021A629A6842F001029A60CD
:101DD0001A6922F001021A61034608461960704729
:101DE000006C3440354B30B51A6A93F82430C2F396
:101DF00003344FEA123E03F00F028446DDB244EA98
:101E000002002F4B00071B6811D528074BD4012077
:101E10001EF0080F00FA02F04DD003240EF0070266
:101E200004FA02F200FB03F3B3FBF2F202E003FA5E
:101E300002F2E2402348244BA0FB0202920C1868F5
:101E4000013AD2B262F3070018601A6942F0010247
:101E50001A61DA69D207FCD50A680C795A60D86829
:101E6000194A64F30400D860986820F00100986073
:101E7000D369DB05FCD58B68144C1868C0F31200DD
:101E80005062187990625879D06298681063D86867
:101E900050631B7C00209363136A43F001031362B9
:101EA000CCE9004130BD032005F007051EF0080F06
:101EB00000FA05F0B1D10122A240B3E700E00140F1
:101EC0000406002283DE1B43006C34405049504D11
:101ED00030B5446905468C4685B0ACB194E80F0036
:101EE0000DF1100E0EE90F009CE80F0084E80F00C2
:101EF0002046EB6898476C6924B104AB13E90F00E6
:101F000084E80F0005B030BD0C46F1E7002841D051
:101F1000224B02689A4239D130B5CC0701F0010357
:101F200028D51F4AD2F80421920735D411F0020EA9
:101F300008BF7246047990F805C01CBF84F0010206
:101F400012078CF0010542EA0562BCF1000F18BFD0
:101F5000012390F806C0437141EA0C0181711CB95C
:101F6000BEF1000418BF01240D4B04710020C3F81A
:101F70000C2130BD11F0020E047990F805C007D095
:101F800084F001024FF0020E1207DEE707207047CF
:101F90007246DAE701207047052030BD4449504DB4
:101FA0000060344050B30346154A0068904223D184
:101FB00030B54FF0000E1A7911F002054FEA427069
:101FC00008BF7046CC0793F805C005D5CCF10004D6
:101FD000F44604F00074204383F805C012B1B5FA4A
:101FE00085F25209074C1A71C4F80C019A79002045
:101FF00022EA01029A7130BD072070470120704724
:102000004449504D00603440A8B1A1B10B4B026867
:102010009A420ED130B40A4B00201D69D3F82042F9
:10202000D3F824220D80C1E9014230BCC3F8282234
:102030007047072070470120704700BF4449504D4A
:1020400000603440002837D030B51E4B026804468B
:102050009A4285B02AD11C4D2B7853BB07230269C5
:10206000694603928DF80030FFF732FF174A136973
:10207000D80723D41369D90620D4A1688B7A087AAB
:102080009B02497A43EA002343EA412343F00103D8
:10209000C2F8003401E02B781BB9D2F810341B07CA
:1020A000F9D5012300202B7005B030BD072005B005
:1020B00030BD1E2005B030BD01207047082005B09E
:1020C00030BD00BF4449504D04040022006034403C
:1020D000002800F0AE80002900F0B580644B026853
:1020E0009A422ED12DE9F0478C68002C00F0A38095
:1020F0000A78002A00F09380012A04D18B88B3F576
:10210000806F00F29080887883061CD5860740F0A7
:102110008A808B88002B40F08680564B1D69ED0528
:1021200000F1818010F0240F0DD0002A7BD010F038
:10213000400914D01B6913F4807F0CBF04200820D1
:102140006BE00720704710F0400908D0494B1B692D
:10215000DE056BD4002A40F087804FF04009454BE4
:102160001D69ED0762D41B69C3F3001ADB065DD459
:102170004B78414D03F00F06082E8CBF0127002736
:10218000B1F804C04FEAC21605EBC21E5DD95FFA72
:102190008CF80CF47F4CB9F1000918BF4FF001091D
:1021A0001B0400F0030003F47C1343EA806343EA5A
:1021B00007634FF080774FEA825A0AF4400A43EAF5
:1021C0000A0343EA496343EA080343EA0C037351F1
:1021D000CEF804708D7805F02003002B14BF012683
:1021E000002604D015F00F0518BF01252B0643EA81
:1021F0008653CEF8083000B1CC68B2FA82F3A2F16F
:102200000102B2FA82F200201A4952095B09CEF8A3
:102210000C40C1F8C035C1F80026BDE8F0878B88B6
:10222000802B7FF670AF0320BDE8F0870820BDE863
:10223000F087012070478B88002BF4D10A78002AA0
:102240007FF45AAF5FE702207047BCF1000F09D05E
:10225000BCF1010F94F8008008D094F801C04FEA57
:102260000C2C98E7E04696E70420D6E7D44692E7A0
:102270004449504D006034408067344018B3144BDB
:1022800002689A4201D0072070478379EBB9114A5E
:10229000D2F81034590714D5D2F800340E4943F05F
:1022A0000203C2F8003401E00B781BB1D2F81034FD
:1022B0009B07F9D50022074B0A70D3F81024C3F806
:1022C000142400207047012070470820704700BF89
:1022D0004449504D0060344004040022F0B585B0FC
:1022E000002900F07B820546002800F07782DB4B56
:1022F00002689A4200F0A282D94BD3F850345B06B0
:1023000040F168820023D74ED74A33700C46A9604B
:102310001370EFF31087012181F31088D34B9A6873
:1023200022F480629A609B68962002F0EBF987F3B2
:1023300010882368D3E90001FFF754FD0746002801
:1023400040F04982CA4AD2F8003143F48073C2F89F
:102350000031D2F8103143F00103C2F81031D2F845
:10236000143103F01F031F2BF9D140F6FC70E37A00
:10237000013B43F44073C2F80031217BD2F80831AD
:1023800061F30703C2F8083194F82E3094F82C104A
:102390005B0743EA0143218D94F830C00B4394F866
:1023A0002F1043EA817394F82D1043EACC7309058A
:1023B00001F47001D4F804C00B43C2F82031DCF8FA
:1023C0000430AB491B0403F47F0EDCF8003000EA54
:1023D0008303DCF8080043EA0E0343EA0063C2F813
:1023E0001433DCF80C30C3F30903C2F81833E36983
:1023F000C2F81032236AC2F81432636AC2F8183283
:102400002369C2F8E0326369C2F8E432A369C2F812
:10241000E832E07AD2F81031400243F48033A0F57C
:102420008070C2F81031D1F8143103F403438342B1
:10243000F9D1D1F810318E4A23F48033C1F810312C
:10244000D1F8103123F00103C1F81031D2F8143162
:1024500013F01F03FAD1A16EDFF820C2C868C2F8DA
:1024600008020869C2F808034869C2F828038869A5
:10247000C2F81804C869C2F8D805086AC2F8180674
:10248000C2F8D4C5C2F814C6DFF8F4C1206EC2F891
:1024900014C4DFF8F0C1C2F804C26B61636EE86077
:1024A0002B6191F901000B7800284FEA0313DBB28E
:1024B000C0F2988100F1604202F5614282F8003377
:1024C0006C4A6D4B00F5C65C42F8205053F82CE086
:1024D0002EF4803E43F82CE053F82C30BFF35F8F8E
:1024E0004FF0010C43099B0000F01F0003F1604313
:1024F00003F561430CFA00F0C3F88001186091F90C
:1025000003008B7800284FEA0313DBB2C0F28E8100
:1025100000F1604C0CF5614C8CF80033564B00F523
:10252000C65C42F8205053F82CE02EF4803E43F86D
:102530002CE053F82C30BFF35F8F4FF0010C4309B0
:102540009B0000F01F0003F1604303F561430CFAA8
:1025500000F0C3F88001186091F905000B7900289C
:102560004FEA0313DBB2C0F2598100F1604C0CF565
:10257000614C8CF80033404B00F5C65C42F82050AB
:1025800053F82CE02EF4803E43F82CE053F82C3026
:10259000BFF35F8F4FF0010C43099B0000F01F0059
:1025A00003F1604303F561430CFA00F0C3F88001C6
:1025B000186091F907008B7900284FEA0313DBB20A
:1025C000C0F21E8100F1604C0CF5614C8CF80033B8
:1025D000294B00F5C65C42F8205053F82CE02EF44D
:1025E000803E43F82CE053F82C30BFF35F8F4FF060
:1025F000010C43099B0000F01F0003F1604303F549
:1026000061430CFA00F0C3F88001186091F90900E9
:102610000B7A00284FEA0313DBB2C0F2E98000F125
:10262000604C0CF5614C8CF80033134B00F5C65C24
:1026300042F8205053F82CE02EF4803E43F82CE072
:1026400053F82C30BFF35F8F4FF0010C43099B0010
:1026500000F01F0003F1604316E000BF4449504DF5
:1026600000303440050400220404002200302040E1
:102670000060344078040022006000401001097DB1
:102680000B00D00007E5F75703F561430CFA00F0A3
:10269000C3F88001186091F90B30897A002B4FEA5A
:1026A0000111C9B2C0F2B48003F1604000F561408D
:1026B00080F8001342F82350614A03F5C65152F8DE
:1026C000210020F4803042F8210052F82120BFF38D
:1026D0005F8F012103F01F025B099B0003F1604340
:1026E00003F5614301FA02F2C3F880211A60554BE9
:1026F000554A2B60D2F80031A86843F48073C2F8C1
:1027000000313170417B00290CBF01230323C2F843
:10271000043102E03378022B05D0D2F82033C3F322
:1027200080638B42F6D1022094F8323094F8332043
:102730001B04920502F4400203F47C13134394F843
:1027400031203070404E43EAC233C6F8203443F69D
:10275000FC71E26B3D4B94F838004FF0060C03EA35
:10276000024242EAC032606BC0F30B000243C6F87B
:102770002824D4E91002C0F30C0E354800EA0242C6
:1027800042EA0E02C6F82C24226D03EA024394F8B2
:102790004C2043EAC233A26CC2F30B021343C6F8C7
:1027A0003034A36D00EA0340636DC3F30C03184398
:1027B000C6F83404E36D284601EA83012B69C6F8A4
:1027C000041469468DF800C00393FFF781FB384677
:1027D00005B0F0BD1E27384605B0F0BD01273846CC
:1027E00005B0F0BD1B4A00F00F0C6244137667E69B
:1027F000DFF860C000F00F0EF4448CF8183014E7D6
:10280000DFF850C000F00F0EF4448CF81830DFE60B
:10281000104803F00F0C604401764BE7DFF834C03A
:1028200000F00F0EF4448CF81830A4E6DFF824C052
:1028300000F00F0EF4448CF818306FE60E27CAE74C
:10284000006000404449504D006034400000FF7F6C
:102850000000FF1FFCEC00E0002800F0D080F8B57D
:102860000268694B04469A4201D00720F8BD83797B
:10287000002B40F0C680654AD2F81034590714D5B1
:10288000D2F80034624943F00203C2F8003401E098
:102890000B781BB1D2F810349B07F9D500225B4BA3
:1028A0000A70D3F81024C3F814240325574AA768E4
:1028B000D2F80431574823F00103C2F80431797B80
:1028C000057001E003782BB1D2F82033C3F3C06365
:1028D0008B42F7D101260025BB6E4F4993F90120A9
:1028E00005704FEA521C02F01F020CF1200C06FA90
:1028F00002F241F82C20BFF34F8FBFF36F8F474A8E
:1029000093F9010042F8205093F903004FEA501C5C
:1029100000F01F0006FA00F00CF1200C41F82C002A
:10292000BFF34F8FBFF36F8F93F9030042F820502E
:1029300093F905004FEA501C00F01F0006FA00F062
:102940000CF1200C41F82C00BFF34F8FBFF36F8FB9
:1029500093F9050042F8205093F907004FEA501C04
:1029600000F01F0006FA00F00CF1200C41F82C00DA
:10297000BFF34F8FBFF36F8F93F9070042F82050DA
:1029800093F909004FEA501C00F01F0006FA00F00E
:102990000CF1200C41F82C00BFF34F8FBFF36F8F69
:1029A00093F9090042F8205093F90B004FEA501CAC
:1029B00000F01F0006FA00F00CF1200C41F82C008A
:1029C000BFF34F8FBFF36F8F396893F90B300868EF
:1029D00042F82350FFF7F2F92560EFF3108486F3F5
:1029E00010880F4B9A6842F480629A609B68962028
:1029F000314601F087FE84F310882846F8BD012097
:102A000070470820F8BD00BF4449504D0060344075
:102A1000040400220504002200E100E07804002202
:102A20000030204010B5114B84B0D3F8D045C3F826
:102A3000D445EFF30383103B0D4A5BB203F5C65157
:102A400052F8210020F4803042F8210052F8212071
:102A500000220848694650F82300019403698DF864
:102A600000200393FFF734FA04B010BD0060344037
:102A7000006000407804002210B5114B84B0D3F8F8
:102A80001046C3F81446EFF30383103B0D4A5BB2C4
:102A900003F5C65152F8210020F4803042F821009D
:102AA00052F8212001220848694650F82300019479
:102AB00003698DF800200393FFF70AFA04B010BDF4
:102AC00000603440006000407804002230B5344B90
:102AD00085B0D3F81044C3F81444EFF30383103BDC
:102AE000304A5BB203F5C65152F8210020F4803021
:102AF00042F8210052F821202B4A52F8235014F0BA
:102B0000080347D00122294B1A7002232A6928465C
:102B10006946019403928DF80030FFF7D9F914F457
:102B2000400F35D01E4AD2F8003143F48073C2F80A
:102B30000031D2F8103143F00103C2F81031D2F85D
:102B4000143103F01F031F2BF9D1AB68D2F8100129
:102B5000DB7A40F480305B021149C2F81001A3F522
:102B60008072D1F8143103F403439342F9D1D1F8C0
:102B700010310B4A23F48033C1F81031D1F81031F1
:102B800023F00103C1F81031D2F81431DB06FBD178
:102B900005B030BDA20744BF044A1370B5E700BFBB
:102BA00000603440006000407804002204040022E9
:102BB00070B5144C84B0D4F80052C4F80452EFF34A
:102BC0000383103B104A5BB203F5C65152F8210053
:102BD00020F4803042F8210052F8212003220B49D2
:102BE0000B4E51F82300694603690195CDE9026354
:102BF0008DF80020FFF76CF90123C4F83C3204B0D3
:102C000070BD00BF006034400060004078040022C6
:102C10004062344010B5114B84B0D3F80043C3F880
:102C20000443EFF30383103B0D4A5BB203F5C65137
:102C300052F8210020F4803042F8210052F821207F
:102C400004220848694650F82300019403698DF86E
:102C500000200393FFF73CF904B010BD006034403E
:102C6000006000407804002210B5194B84B0D3F8FE
:102C70002043C3F82443EFF30383103B154A5BB2B0
:102C800003F5C65152F8210020F4803042F82100AB
:102C900052F82120104A1148117850F823000129D8
:102CA00011D01378032B03D1230144BF00231370E9
:102CB000052302696946019403928DF80030FFF7FD
:102CC00007F904B010BD6101EBD502231370EFE7E3
:102CD00000603440006000400504002278040022B7
:102CE000034648B1054A0168914203D100221046CB
:102CF0001A607047072070470120704754524F50A8
:102D00002DE9F84F0388DBB14FF0000A80464FF001
:102D10000109DFF8D4B00024314D4FEACA07D8F8D2
:102D2000043035F8022BD919898891420AD0013430
:102D3000032CF4D1B8F800300AF1010A5345EAD85F
:102D4000BDE8F88FDB5909FA04F603F0B853B3F184
:102D5000807F244BF6B293F84C2C12D0324230D103
:102D600004F120021BF81230DB09E0D01BF812300E
:102D7000012123F08003C8200BF8123001F0C2FCBF
:102D8000D5E7324210D004F120021BF81230DB09E3
:102D9000CDD11BF81230012143F08003C8200BF87D
:102DA000123001F0AFFCC2E7012001F03DFD0D4BF8
:102DB000012093F84C2C324383F84C2C01F004FD95
:102DC000E1E7012001F030FD064B012093F84C2C87
:102DD00022EA060283F84C2C01F0F6FCC0E700BFA3
:102DE0001CFC0C0200E001400020204080B10A4B96
:102DF000006898420ED15AB10B0A08481B0153FAD9
:102E000081F150F821300020C3F340031370704764
:102E1000012070470720704754524F50000840402F
:102E200070B1094B006898420CD14AB1090A4901B6
:102E300001F1804101F580014B680020138070474B
:102E4000012070470720704754524F50E8B110B42A
:102E500000680F4CA04210D19BB1090A490123EA36
:102E6000020001F18041134043EA004301F5800173
:102E700000205DF8044B8B60704707205DF8044B21
:102E8000704703205DF8044B70470120704700BF76
:102E900054524F50E8B1104B0068984215D1012AA6
:102EA00015D801235FFA81FC03FA0CF3002A9AB2C9
:102EB0004FEA034308BF1A46090A490101F180415C
:102EC00001F5800100208A607047072070470320C9
:102ED00070470120704700BF54524F50F8B110B4F2
:102EE0000068104CA04212D1ABB1090A490101F1AE
:102EF000804101F580010C6803EA0200204362EA88
:102F0000030202405DF8044B00200A60704707206E
:102F10005DF8044B704703205DF8044B70470120B7
:102F2000704700BF54524F50A8B10E4B00689842F2
:102F300013D182B10123090A8B4013F01E0F0ED06A
:102F4000490101F1804101F580014B680020C3F384
:102F50000F431380704701207047072070470320FC
:102F6000704700BF54524F5018B3164B0068984238
:102F70001CD10120E2B10B0A00FA03FC1CF01E0F69
:102F80001ED010B45B0103F1804303F580035C683D
:102F9000C9B200FA01F18BB201EA14418B420AD0A6
:102FA000002300205DF8044B137070470720704722
:102FB00070470120704710705DF8044B0020704787
:102FC0000320704754524F5010B310B40068114C96
:102FD000A04219D1A3B10120090A884010F01E0FA8
:102FE0000ED0490123EA020001F18041134043EA77
:102FF000004301F5800100205DF8044BCB60704771
:1030000003205DF8044B704707205DF8044B7047C0
:103010000120704754524F5030B3164B006898420D
:103020001ED1012A1ED801200B0A10B400FA03F4A5
:1030300014F01E0F1AD05B0103F18043C9B203F5EF
:103040008003DC688840012A4FEA004113BF8443B3
:103050008C4304430C430020DC605DF8044B704754
:1030600007207047032070470120704703205DF858
:10307000044B704754524F50002853D070B52A4B20
:103080001546026886B09A4202D0072006B070BD8D
:10309000012601AB03A80C46ADF808100195049376
:1030A000ADF80C60FFF72CFEEFF3108186F310886B
:1030B0001E4B1A681AB91E480275402202751A681A
:1030C00001321A6081F31088E9034FEA1422E4B256
:1030D00019D4110117480A1940F82250EFF3108251
:1030E000012181F31088196811B11968013919603B
:1030F0001B681BB980200E490B75087582F3108878
:10310000002006B070BD0B48110104EB021250F80C
:10311000226026F4803640F8226025F4803640F89C
:103120002260D7E70120704754524F5070040022AC
:10313000000D404000084040F8B50446FFF7E0FDB0
:10314000EFF31082012383F31088254E33681BB9F7
:10315000402024490B75087533680133336082F3CE
:103160001088218849B3C9000839C90860681E4D14
:10317000013107E01B011344013945F8234000F1F8
:1031800008001AD004688288E7034FEA1223D2B2FB
:10319000F0D502EB031C55F82CE01B0124F480371A
:1031A0002EF4803E1344013945F82CE000F108006C
:1031B00045F82C7045F82340E4D1EFF31082012349
:1031C00083F31088336813B13368013B336033688D
:1031D0001BB9802003490B75087582F31088F8BD70
:1031E00070040022000D40400008404098B191B1A9
:1031F0004A6808B503464AB1094A186890420CD09B
:1032000008461A60FFF798FF002008BD0A88002AC8
:10321000F2D0012008BD012070470E2008BD00BF7C
:1032200054524F5080B108B5084A0368934209D1FF
:1032300031B14B6823B10846FFF77EFF002008BD7F
:10324000012008BD072008BD0120704754524F508F
:1032500050B1064B02689A4204D1D0E902320020F4
:103260009A6070470720704701207047545047000C
:1032700050B1064B02689A4204D1D0E902320020D4
:103280005A6070470720704701207047545047002C
:1032900050B1064B02689A4204D1D0E902320020B4
:1032A000DA6070470720704701207047545047008C
:1032B00070B5836984B004468C46164601AD9BB157
:1032C00093E8070085E8070083F804C0E1696269B4
:1032D00018469E6019609047A3691BB195E80700E6
:1032E00083E8070004B070BD2B46EDE7E8B1104B52
:1032F00002689A4217D1D0E90123D26910B4D2E909
:103300000114D06844F0004440F0004041F0004116
:103310005C61D2E904429861196100205C625DF849
:10332000044B9A627047072070470120704700BF26
:1033300054504700002800DA704710B400F1604C88
:10334000124C0901124BC9B20CF5614C8CF80013F8
:1033500000F5C65144F8202053F8212022F4803291
:1033600043F8212053F82130BFF35F8F0122430936
:103370009B0000F01F0003F1604303F561438240AE
:10338000C3F880211A605DF8044B7047780400226E
:1033900000600040002900F0BE802DE9F843CD69AF
:1033A0000C46002D00F0B4800646002800F0B080E6
:1033B0000B7A072B00F0AC80092B00F0A9800A2BB8
:1033C00000F2A6800A78032A00F2A780594B016810
:1033D000994200F0AB800123217C8B40C360C3F392
:1033E0000D00002800F09F806069002800F09780A1
:1033F00094F91220002AC0F29B80DBB2B3FA83F367
:1034000000275B094C4A3374A3690A441202C6E9D7
:10341000067370617460B260EFF31089012181F36B
:1034200010884FF00048454B207C1A6928FA00F0BC
:1034300022EA00021A611B69962001F063F989F300
:1034400010884FF42542B3681A60DF62DF639F641F
:10345000227A2178D205032942F4803108BF0A4636
:103460006168DA62AA69C3F81080C3F81480C3F8EF
:1034700018805F629F62DA61EA6901391A627268D4
:103480009966D069596690F83020A96BD70702D5A4
:10349000876A013FDF64920702D5C26A013A1A6562
:1034A00000229A63C3F8882031B995F8211095F865
:1034B0002020490741EA423195F830200327002AAD
:1034C00014BF4FF4A00E4FF4AA0E0120D6F80CC082
:1034D000C3F840E0C3F80CC059631F631863324659
:1034E000617C94F91200FFF725FF324695F822100F
:1034F00095F92400FFF71EFF95F92500324695F84F
:103500002310FFF717FF0B4B00203360BDE8F88353
:103510000120BDE8F883012070470520F9E7012A62
:103520007FF46BAF64E740F27A50F2E70E20F0E7E9
:103530000B20EEE75450470020324000003020407E
:10354000F0B5EFF30382103A1E4C53B203F5C65E9A
:1035500054F82E10980021F4803100F1804C44F88A
:103560002E100CF5404CDCF80013174951F82300DD
:1035700041680978012908D043692BB1BDE8F040C2
:1035800000221146FFF794BEF0BD0025D0E9026786
:10359000B760B564F564356554F82E6002F0FF023B
:1035A00065F3104644F82E60DCF80043BFF35F8FEC
:1035B000064C5B0902F01F029140603344F823106F
:1035C000DAE700BF006000407804002200E100E07C
:1035D0000620704784B001A880E80E0004B00620E1
:1035E000704700BFB0B32DE9F84F1F461A4B154680
:1035F000DFF86C805A5C0C4658F821102AB92DB2BD
:10360000002041F82570BDE8F88F002241F2501AE1
:10361000124E1A5506EB042B5BF80A304FF4806209
:10362000C3F3004989F0010909EB440306EB832643
:10363000304602F029F8314648F824605BF80A3039
:103640002DB269F310434BF80A30002041F8257081
:10365000BDE8F88F012070470C00002200203440A4
:103660000400002200B310B503780446012B19D1E1
:10367000C368D3F88430DB689A6818689368984701
:1036800002210A4B1A6842F480721A601A6842F0EA
:1036900001021A60D3F8402442F00102C3F840242A
:1036A000217010BD072010BD01207047003034404C
:1036B000002831D00378022B29D111F03F0028D106
:1036C000F0B502F11103174D1B02EC58E60725D4A3
:1036D000154C2468E40521D4002915BF4FF0030ED2
:1036E0004FF0010E0127002741F20C1C05EB0222CE
:1036F00002F5895426686EF301062660EC186760AF
:1037000042F80C10EA5842F00102EA50F0BD0520E0
:10371000704740F2EB3070470120704740F2EE30C6
:10372000F0BD00BF002034400030344050B349B3F6
:103730000278154B0A70D3F80021D20717D502235F
:10374000114A4B70D2F80032DB0703D50223002068
:103750008B7070470D4B0E481B6840689842F5D837
:10376000D2F85432002003F001038B7070470748F1
:10377000074A006812689042E1D3D3F8543103F04D
:103780000103DDE7012070470030344008040022C7
:1037900010040022C36810B5D3F884300446DB68F7
:1037A0009A681868D3689847A8B90D4BD3F80021D8
:1037B000D10711D4D3F80022D2070DD4D3F8C023F7
:1037C000D10709D41A68D20506D401211A6860F31A
:1037D00000021A60217010BD40F2EE3010BD00BF33
:1037E0000030344030B10378022B01D005207047FF
:1037F000FFF7D0BF01207047F8B5002872D00378DA
:103800000446002B71D03C4B1B68DA0767D4E36891
:10381000D3F88430DB689A68186853689847364B49
:1038200005469B69DB0563D4E36893F97720002A9A
:103830000EDB01213148530902F01F02203301FA47
:1038400002F240F82320BFF34F8FBFF36F8FE3687E
:1038500093F97820002A0EDB01212848530902F051
:103860001F02203301FA02F240F82320BFF34F8FEA
:10387000BFF36F8FE36893F97930002B0DDB0121E3
:103880001E485A0903F01F03203201FA03F340F8DF
:103890002230BFF34F8FBFF36F8F0026164BC3F854
:1038A0004064C3F844641A6866F300021A601A6838
:1038B00066F310421A60EFF31087012181F310883C
:1038C000A3F5A0139A6842F010029A609B689620B4
:1038D00000F018FF87F3108826702846F8BDFFF720
:1038E00059FF94E701252846F8BD07252846F8BD6D
:1038F00040F2EE352846F8BD0030344000E100E0EB
:1039000058B351B31346174AD25C42B3B1F804C05E
:10391000BCF1FF0F1ED8CA88B2F5807F1AD870B5E7
:1039200041F250161048096800EB0325AC5992008B
:10393000C4F3004484F0010404EB43030CEB032CB8
:1039400000EB8C0001F0A0FEAB59002064F31043A3
:10395000AB5170BD40F2EF3070470120704740F22C
:10396000EE3070470C000022002034402DE9F04F6B
:10397000AC4B047B0768856833F814E083B0002FF4
:1039800000F0ED8041F21C1AA74EDFF8B49216F851
:103990000480A64E14024FEA08782644B1F900309C
:1039A00046F80A80B9F804809C46984580F29A80CF
:1039B000B9F9003090F80EA0B1F902600093BAF1A5
:1039C000000F40F0DB800EFB05FEB9F80680D44600
:1039D000B0455346CDF804A04FEADE0EC0F2B180E8
:1039E000002EC588C0F2D480A8EB0608A8451FFAAF
:1039F00088F8B8BF454641F20C1BDFF83082A0447E
:103A000048F80B70477B002F5EEA0EBEBAF1000F3C
:103A100000F09C80078A4FF0000E41F2101007FB67
:103A200005F548F800E0009841F2181B844441F283
:103A3000281AB9F9020041F2241841F2301941F272
:103A40002C1E06449B097A48013F013B9BB200EAC9
:103A500007471F43019B00EA0C4C00EA06404CEA72
:103A60000306724BC5F30A052344284343F80B7041
:103A700043F80A6043F8096043F8080043F80E0071
:103A8000087A002860D0012841F2341514BF4FF4A1
:103A90007F06002641F2381041F203074B7A634952
:103AA0004FEA0343214418BF43F080734B51614BED
:103AB0000E501B686049023341F82230012141F267
:103AC00050100025594B11321C4403EB02235B4A72
:103AD00004F589563760596025501170517003B054
:103AE000BDE8F08F002B86885ADBA8EB0308B045B1
:103AF0001FFA88F8B8BF4646B9F9003000930EFBAC
:103B000006F3C6F30A060196DB0890F80EA0B1F999
:103B10000260BAF1000F05D04FF0010AB0F806803C
:103B200008FB03F30EFB05FE13F03F0FB9F8068008
:103B30001CBF23F03F034033B0454FEADE0EBFF613
:103B40004FAF0026354656E70327B7E72F4641F229
:103B500010154FEA0E4048F805003D4663E7012185
:103B6000324B02F1110003EB022202F5895203EB02
:103B7000002311605F6003B0BDE8F08F0023B0F850
:103B800006809C4601934FF0010A08FB03F3C9E746
:103B90003544002DD5DD06FB1E77ADB200262AE7A1
:103BA00003EB0608B8F1000F7FF702AFBEF1070F75
:103BB00020D84FF0010AD446C3F1000BB9F9003008
:103BC0006345009320DABBFBFAFA1AFB0CFA4FF0BC
:103BD000000CA6EB0A061FFA86F80BFB0EF307EBA8
:103BE000E30323F03F070EFB08F3C8F30A06019630
:103BF000DB088AE74FF0400C4FEADE0ABCFBFAFC18
:103C0000E2460FFA8CFCD7E7BBFBFAFC0AFB1CBCB4
:103C10001FFA8CFCE044CCF1000C1FFA88F80FFA74
:103C20008CFCDAE760FC0C0270FC0C0200203440D3
:103C30000000FF0708040022100400220C000022EC
:103C40001804002270B50446E8B10846D9B12178BD
:103C5000022916D113460E4E11331C023359D907CF
:103C600013D40C4B1B68C3F30025DB050DD400F106
:103C70001401FFF77BFE3359284643F0010333510B
:103C800070BD052070BD012070BD40F2EE3070BDEA
:103C900000203440003034402DE9F84F002800F077
:103CA000568203780546002B40F05A820C460029C4
:103CB00000F04D82D1F88400002800F04882098D80
:103CC000A1F11703B3F5FD6F00F2458240F2EC72EB
:103CD000678EA7F113039BB2934200F23C82B4F8C3
:103CE0002A80A8F11003B3F5FD6F80F0348240F212
:103CF000EB7EB4F834C0ACF110039BB2734500F214
:103D00002A82A28D531FB3F5FD6F80F02482E38ECB
:103D10009E1EB6B2764500F21E8240F2FE76B4F8E0
:103D20002EE0B64500F21782B4F838E0B64500F24E
:103D30001282424402328A4280F20D82634401338D
:103D4000BB4280F20882234640F2FB7CDFF8D0E3DE
:103D500004F128061A68F2B1970640F018821A7B1F
:103D600099683EF8122001FB02F212F4FC7F40F049
:103D70000E829F7BD9881FB11F8A17FB01F189B280
:103D8000614500F218829988C90700F11482B2F1E6
:103D9000022F80F010821433B342DBD14379002B21
:103DA00000F00682EFF31086012181F31088D34BD7
:103DB0009A6822F010029A609B68962000F0A2FC9C
:103DC00086F31088CE490B6843F480330B60D4F837
:103DD000846094F83C003279A0F10300B0FA80F0DE
:103DE000B2FA82F27379400903F03F0343EA0033E9
:103DF000520943EA022343F04003C1F8503494F8D7
:103E000040300BB14FF4BC73C1F8E4330023BC481D
:103E1000C0F8043496F9001096F901204F1C96F969
:103E2000023018D094F830C0E78DBCF1000F05D1F6
:103E3000D0F81CC44CF0100CC0F81CC4C7F30A0026
:103E4000B04FDFF8BCC257F82170396841F0020169
:103E50003960CCF81804511C14D094F83A00218F22
:103E600030B9A74FD7F80C0440F01000C7F80C0485
:103E7000A448C1F30A0150F82220A148176817602E
:103E8000C0F80814B4F83480B4F82AE05A1CE78E5D
:103E9000B4F82CC0CEF30A0BC8F30A0A1BD094F86E
:103EA0003F201AB90121964AC2F82814954A52F8BF
:103EB0002310954B0A6842F007020A60904903EA12
:103EC0000C4203EA074342EA0B0243EA0A03C1F841
:103ED0002024C1F810344FF00119608E218D8A4AD8
:103EE00094F84530C1F30A0102EA0040084394F80F
:103EF00046101B0203EB014394F844100B440CF1F1
:103F0000010102EA014141EA0B0107F1010B02EA5A
:103F10000B4242EA0A02DFF8E8A1CAF80400CAF834
:103F20000890DFF80092CAF810102046CAF80C205A
:103F300004F15C01CAF814300022A9F800C0A9F805
:103F400004E0A9F80270A9F80680FFF70FFD01222E
:103F500004F1680104F11400FFF708FD94F83C2017
:103F60006A4B94F83D009B5C01284FEA033343F011
:103F7000805008BF034694F83E0043F0807C01283F
:103F800008BF6346624994F85800895C032A43F4E9
:103F9000007208BF1346090428B1B279022A00F062
:103FA000F98041F480114FF4007C4FF00220474427
:103FB0007A1C534FC9F80850C7F8C433554BC7F89B
:103FC000D413C7F8C8C3C7F8CC03C7F8D033E36F1E
:103FD0006B60D4F88030C5E90234D7F8503262F310
:103FE0000A03C7F85032F368D3E90112186812685F
:103FF00090470446002840F0B78007220621EB686E
:10400000C7F84014C7F8442493F97720002A28DB26
:1040100093F8743002F160411B013F48DBB201F5B7
:10402000614181F800333D4B02F5C65140F8225002
:1040300053F8210064F3104043F8210053F8213075
:10404000BFF35F8F012153099B0002F01F0203F1B0
:10405000604303F5614301FA02F2C3F880211A605C
:10406000EB6893F97820002A28DB93F8753002F189
:1040700060411B012848DBB201F5614181F8003342
:10408000264B02F5C65140F8225053F8210020F487
:10409000803043F8210053F82130BFF35F8F0121B6
:1040A00053099B0002F01F0203F1604303F56143D3
:1040B00001FA02F2C3F880211A60EB6893F97920C3
:1040C000002A3FDB93F8763002F160411B01124871
:1040D000DBB201F5614181F80033104B02F5C651A6
:1040E00040F8225053F8210020F4803043F821009A
:1040F00053F82130BFF35F8F16E000BF003020403F
:104100000030344078FC0C020000FF075CFC0C021D
:1041100058FC0C028080800078040022006000407F
:1041200060FC0C0218040022012153099B0002F0DC
:104130001F0203F1604303F5614301FA02F2C3F881
:1041400080211A6001232B702046BDE8F88F0124DE
:104150002046BDE8F88F40F2E9342046BDE8F88FEC
:104160000E242046BDE8F88FEFF31085012181F37E
:104170001088124B9A6842F010029A609B68962051
:1041800000F0C0FA85F310882046BDE8F88F40F2B1
:10419000EB34DDE7727AF079120142EA0032B07A4C
:1041A0000243307A42EA002242F400121143FAE656
:1041B0004FF47A74CCE740F2EA34C9E7003020408B
:1041C000194B30B51A68194901321A601B688868A2
:1041D00083B023B900240025154BC3E90045012213
:1041E000144B41681A705A7031B1032382688DF8FC
:1041F00000306846019288470F4AD2F8483443F0AD
:104200000103C2F84834EFF30383103B0B4A5BB25F
:1042100003F5C65352F8231021F4803142F82310DD
:1042200052F8233003B030BD0804002218040022E5
:10423000100400220C0000220030344000600040D6
:10424000F8B50126154C6660EFF3108786F31088E9
:10425000134DAB6823F04003AB60AB68962031464A
:1042600000F050FA87F31088204600F04FF808B1AC
:104270002046F8BD0746EFF3108486F31088AB683C
:1042800043F04003AB60AB689620314600F03AFA49
:1042900084F310883C462046F8BD00BF2404002269
:1042A00000302040012904D00A2900D07047436023
:1042B0007047322A06D0920002F1402202F55012D5
:1042C0001360704741680029F5D053F8041B024A77
:1042D000C2F8C8100360704700403440012904D080
:1042E0000A290CBF406800207047920002F140226A
:1042F00002F550121068704701291DBFA1F10A0094
:10430000B0FA80F040090846704700BF70B42E260E
:104310000E4B0F4D1B780F4A0F4C1B010F49DBB2A0
:10432000C5F8C06082F800332060D1F8003323F470
:104330008033C1F80033D1F80033BFF35F8F012021
:10434000C2F88001106070BC704700BF08F30C0217
:104350000040344000E100E07804002200C000404A
:1043600010B4EFF303832E20134A103B11685BB2A5
:104370008906C2F8C0000CD5104951F823104868CE
:10438000A8B10868046894B150F8044BC2F8C8405A
:1043900008600B4A03F5C65352F8231021F480310C
:1043A00042F8231052F823305DF8044B704705495A
:1043B0000A6801320A60ECE70040344078040022C9
:1043C000006000402C04002200F014BC00F01ABC75
:1043D00001207047104600F00DBC00BF012070475F
:1043E000084670470846704708B5084611461A4601
:1043F00001F04AF9012008BD144A154992F8263007
:1044000092F82420DBB202F00F02082A15D0092A04
:1044100051F823300AD00A2A0ABF0E4AD340A2FB21
:1044200003230D4A08BFDB0813607047094AA2FB4B
:104430000323094A9B0813607047064A51F823304A
:10444000A2FB0323044A5B081360704700E00140AD
:10445000D4010022ABAAAAAA04060022704700BF1A
:10446000F8B54AF2035001237149724AA1F8FA03E0
:10447000938093889BB2002BFBD101249FED686B46
:104480009FED697B4FF400406B4B6C49C3E907110A
:104490005961148083ED007F1861FFF7ADFF092299
:1044A0001621634B83F8501A83F8A22093F8002C4E
:1044B00022B993F8013C980700F0AB805C4C94F86B
:1044C000003C002B00F09A800022594B83F8012C0D
:1044D00083F8002C0023564A82F8323092F83C30A0
:1044E0001907FBD545F6017040F211110023504C1D
:1044F0001085A2F84C1082F82A3094F83C309B06C4
:10450000FBD50422012505264A4B4D4F1A77276219
:1045100084F8245084F82660FFF76EFF9620294621
:1045200000F0F0F8002384F824302762FFF764FFDE
:104530009620294600F0E6F884F82660FFF75CFF35
:1045400084F8305084F8525084F8535094F8763000
:10455000374A43F0400384F8763092F87630DB092E
:10456000FBD0C423042082F86E0082F8763092F8E3
:1045700076302F4903F0BF0382F8763091F8763019
:10458000DB09FBD191F85530294A43F0400381F80B
:10459000553092F85530DB09FBD0C823042082F84F
:1045A000540082F8553092F85530214903F0BF038A
:1045B00082F8553091F85530DB09FBD191F85F3026
:1045C0001B4A43F0400381F85F3092F85F30DB090B
:1045D000FBD0C52082F85E3082F85F0092F85F3031
:1045E000134903F0BF0382F85F3091F85F30DB09B5
:1045F000FBD14FF42543A1F8FA33F8BD0121C820BF
:1046000084F8001C00F07EF894F8003C012BFBD1EC
:104610005AE74FF47A70FFF721FF5BE7AFF30080B2
:10462000006CDC0200127A0000800000002D3101D5
:1046300000E0014000C10140D401002200389C1C70
:104640003223123138B50025284C0121C82084F8C6
:10465000285000F057F884F8245094F82430002BA8
:10466000FBD194F82430214943F0020384F824302C
:1046700091F82430C3F340009B07F9D41B4A81F81A
:10468000220092F8223003F0FF00002BF9D192F8BB
:104690004030164960F3C71382F8403091F840303B
:1046A000DB09FBD191F84200104A63F3C71081F88F
:1046B000420092F84230DB09FBD192F844000B49EA
:1046C00063F3C71082F8440091F84430C3F3C01478
:1046D000DB09F9D1012000F0A7F8054B012083F890
:1046E0004C4CBDE8384000F06FB800BF00202040BF
:1046F00000E0014000BEFEE7A0F101000028FBD170
:10470000704700BF4FF47A7310B400FB01F1104CF6
:10471000104A2468B2FBF4F2A1FB034030B9B4FBA9
:10472000F2F058B15DF8044BFFF7E6BFB1FBF2F1D0
:10473000A1FB03132BB908460028F3D15DF8044B05
:1047400070474FF0FF3C5DF8044B6046FFF7D4BF65
:104750000406002200CA9A3B70B500240D4B0E4E91
:10476000B3F80021B3F82051ADB2154025FA04F397
:10477000DB0704D556F82430E0B203B19847013482
:10478000102CF3D1034AA2F81051B2F820311D4287
:10479000FBD170BD00C00040300400220022602325
:1047A00010B40748074C30F8021F02F5C65C01320E
:1047B00009B144F82C10013BF5D15DF8044B70476A
:1047C000E6FA0C0200600040EFF31081012383F34E
:1047D0001088124B33F8102092B22AB133F810200F
:1047E000013A92B223F8102033F810309BB293B9FB
:1047F0000B4A10B4B2F8FA330A4C9BB234F81000EA
:1048000043F4254323EA0003A2F8FA3381F3108826
:104810005DF8044B704781F310887047F80500225B
:1048200000E00140B4FC0C0230B4EFF3108101232E
:1048300083F310880E4A32F810309BB26BB90D4CDE
:104840000D4DB4F8FA3335F810C09BB243EA0C03AF
:1048500043F425439BB2A4F8FA3332F81030013305
:104860009BB222F8103081F3108830BC704700BF33
:10487000F805002200E00140B4FC0C020C4A08B527
:104880000346106840B103330A4923F0030303448D
:104890008B4205D8136008BD074908461160F2E74E
:1048A00000F0DCFE0C2203464FF0FF301A6008BD1A
:1048B00000060022501C00225007002200BE704754
:1048C00008B500F005F8FCF74BF8FEE7FFFFFFFF27
:1048D00070B5654B654D6B61BFF34F8FBFF36F8F45
:1048E000634A136843F004031360BFF34F8FBFF3B1
:1048F0006F8F4FF0E022936843F480339360BFF3EF
:104900004F8FBFF36F8F4FF470035A4CC5F8883048
:104910000020AC60FCF70EF8FFF7A2FD0120FCF7C9
:1049200009F82368A3F5805383F30A885248534A51
:104930000021121A00F076FE5148524A5249121ACA
:1049400000F0A2FE5149524A5248521AD20842F08F
:1049500009C800BFAFF30080F1E80223E0E80223BA
:104960000FF007C04C494D4A4D48521AD20842F048
:1049700009C800BFAFF30080F1E80223E0E802239A
:104980000FF007C0474B484A0020D21A0021D20836
:1049900042F007C0AFF30080E3E802010FF005C06A
:1049A000BFF34F8FBFF36F8F0024C5F85042BFF3A2
:1049B0004F8FBFF36F8F3D4B3D4D5B1BA34206DD19
:1049C0009E1055F8043B01349847A642F9DCFFF7E6
:1049D00013FDFFF737FE0320FFF726FF00234FF0FC
:1049E000100E1C464EF001E0324903F10C0221F892
:1049F000224001330FF007C80320FFF7E5FE032034
:104A0000FFF712FF2C4B03205C609C60DC601C6194
:104A10002A4CFFF7D9FED4F8D8335BB1D4F8D83399
:104A20000220FBF787FFFFF7B9FEBDE870400020CA
:104A300000F046B894F81031002BF1D00120FFF7B8
:104A4000F3FE94F8103103F0C003802BF9D100235A
:104A50001A4A84F8103192F810313F2BFBD801200C
:104A6000FFF7B2FEDCE700BF01020E0000ED00E040
:104A700000E001E0000000020002002250070022D6
:104A800000000022D401002208020D0220000D02C5
:104A900008020D0200000000E0030D02C0880D02B4
:104AA00000000020E0840020E0840020D0010022EB
:104AB000CC010022000D40400040204000E00140B9
:104AC000704700BF10B54A4AB2F8243C23F4E063B3
:104AD000A2F8243C92F8503C002BFBD10221B2F802
:104AE000243C434861F30713A2F8243C90F8503C5F
:104AF000002BFBD10522B0F8243C3D4962F30303AF
:104B0000A0F8243C91F8503C002BFBD191F8203CBC
:104B1000374A43F0010381F8203C92F8503C1907D2
:104B2000C3F3C000F9D492F8003C314960F3051397
:104B300082F8003C92F8023C43F0010382F8023C08
:104B400092F8013C60F3000382F8013C91F8503C7C
:104B5000002BFBD14FF40C72254BA1F8482C93F895
:104B6000502CD207FBD4052402214FF0030E4FF046
:104B7000070C4FF46A70D3F8442C64F31242C3F864
:104B8000442CD3F8442C61F30D32C3F8442CD3F8F1
:104B9000442C61F34B22C3F8442CD3F8442C42F448
:104BA0008072C3F8442CD3F8442C6EF30202C3F88D
:104BB000442C93F8402C61F3010283F8402CB3F8A5
:104BC000142C6CF30F32A3F8142CB3F8142C60F3EC
:104BD0000B02A3F8142C93F8162C42F0010283F870
:104BE000162C93F8002C42F0010283F8002C10BD23
:104BF00000300040024B0146186800F02DB800BF9D
:104C000010000022024B0146186801F02FBB00BFC4
:104C10001000002270B50F4E0C460546316811B9E0
:104C200000F00CFD30602146284600F007FD431CD3
:104C300003D14FF0FF34204670BDC41C24F00304A0
:104C4000A042F8D0211A284600F0F8FC0130F2D139
:104C5000EFE700BF080600222DE9F843CD1C064609
:104C600025F0030508350C2D38BF0C25002D01DB80
:104C7000A94204D90C2333600020BDE8F883DFF893
:104C8000D48000F069F8D8F800301C4644BB2946AF
:104C90003046FFF7BFFF431C044658D1D8F8004008
:104CA0002746002F43D1002C4BD02368394630468D
:104CB00004EB030900F0C2FC814542D12168304673
:104CC0006D1A2946FFF7A6FF01303AD023682B441E
:104CD0002360D8F800305A6862BBC8F800700FE053
:104CE0002268521B20D40B2A17D96119A3422560D0
:104CF00018BF5960636808BFC8F8001062514B6064
:104D0000304600F02FF804F10B00231D20F00700BF
:104D1000C21A1CBF1B1AA350AFE76268A3420CBFA4
:104D2000C8F800205A60EBE723466468AEE73C46CB
:104D30007F68B6E71A465B68A342FBD10023536045
:104D4000DEE70C233046336000F00CF894E7056092
:104D5000D6E700BF0C060022014800F085BC00BF6A
:104D60004C070022014800F080BC00BF4C07002225
:104D7000F0B52DED028BB0EE408B85B017460C469A
:104D80000D9D18EE902A0C9E25F02005002AB6BF36
:104D90002D220022B1EE408B462D1A7004D0452DF5
:104DA00000D10134022100E0032103ABB0EE480B37
:104DB0002246019302AB0093334600F009FD472DD4
:104DC00014D1FB070AD50219B5EE408B3021F1EE64
:104DD00010FA08BF0392039B934219D3039B0E9AC8
:104DE0001B1A136005B0BDEC028BF0BD462D00EB25
:104DF0000402E9D10378302B07D1B5EE408BF1EEF8
:104E000010FA1CBFC4F10104346033681A44DBE7B4
:104E10005C1C03941970DEE7F7B500290270BABF75
:104E200049422D232B230929437028DD0DF1070367
:104E30000A271D461A46013BB1FBF7F607FB16147D
:104E4000303402F8014C0C463146632CF2DC303130
:104E5000941E03F8011C411C2346AB420AD30DF1FA
:104E600009039B1AAC4288BF002302330344181A7B
:104E700003B0F0BD13F8016B01F8016FEDE73023CB
:104E800030318370031DC170F1E7FFFFFFFFFFFFAB
:104E90002DE9F04F8DB00C4616461F46DDF85880C0
:104EA000054600F0C7FBD0F800B0584600F0F9FB0B
:104EB000002394F818900A93D8F80030226807333A
:104EC000059023F0070303F10801C8F8001093EDE3
:104ED000000B9FED976BB0EEC07B84ED120BB4EE30
:104EE000467BF1EE10FA24DDB5EEC00BF1EE10FAC0
:104EF00002D52D2384F843308F49904BB9F1470FE9
:104F00008CBF8846984622F0040203234FF0000A23
:104F10002260236133460BAA21462846009700F001
:104F2000D1F9013040F089804FF0FF300DB0BDE87D
:104F3000F08FB4EE400BF1EE10FA09D710EE903A74
:104F40007F49002BBCBF2D2384F843307D4BD5E730
:104F5000636809F0DF0A591C39D10623636042F403
:104F6000806200232846226003930AABCDE90193B7
:104F700009AB00930DF123036168FFF7F9FEBAF165
:104F8000470F8046099929D1C81C02DB6368994202
:104F900041DDA9F102095FFA89F901394A4604F1B4
:104FA00050000991FFF738FF0A9A82461318012A28
:104FB000236102DC2268D20701D5013323619DF809
:104FC0002330002BA6D02D2384F84330A2E7BAF17A
:104FD000470FC4D1002BC2D10123BFE7B9F1650F40
:104FE000DBD9B9F1660F18D1002963680BDD2161A7
:104FF00013B92268D00702D501330B4423614FF067
:10500000000AA165DBE713B92268D20701D5023394
:10501000F4E70123F2E74FF067090A9B994205DBA9
:1050200023682161D807EAD54B1CE7E70029D4BFE4
:10503000C1F1020201221344E0E723685A0507D4B4
:105040002369424631462846B84701302AD16BE7EA
:10505000B9F1650F40F2E08094ED127BB5EE407B34
:10506000F1EE10FA33D10123374A31462846B847CA
:1050700001303FF459AFDDE90938434502DB2368CD
:10508000D8070FD5059B5A4631462846B847013008
:105090003FF44AAF4FF0000908F1FF3804F11A0A53
:1050A000C84509DC23689B0700F10781E0680B9B7A
:1050B0009842B8BF184639E7012352463146284680
:1050C000B84701303FF430AF09F10109E8E7099B27
:1050D000002B3BDC01231C4A31462846B8470130EF
:1050E0003FF422AFDDE9093959EA030302D123680D
:1050F000D907D7D5059B5A4631462846B8470130CF
:105100003FF412AF4FF0000A04F11A0B099B5B4207
:10511000534501DC4B4694E701235A463146284665
:10512000B84701303FF400AF0AF1010AEEE700BFD3
:10513000FFFFFFFFFFFFEF7FC0FC0C02BCFC0C0277
:10514000C8FC0C02C4FC0C02CCFC0C02A36DDDF804
:1051500028A05345A8BF5346002B994637DC0023AF
:1051600029EAE97904F11A020793A36D07990693D6
:10517000A3EB09038B4231DC099B9A453BDC236896
:10518000DA0738D4099BAAEB0309069BAAEB0303B1
:105190009945A8BF9946B9F1000F34DC4FF00008DB
:1051A00029EAE97904F11A0B099BAAEB0303A3EBA3
:1051B000090343457FF776AF01235A463146284617
:1051C000B84701303FF4B0AE08F10108ECE74246C1
:1051D00031462846B8470130C1D1A5E60123314602
:1051E00028460692B84701303FF49EAE079B069AC8
:1051F00001330793B9E7059B5A4631462846B8471D
:105200000130BFD190E6069A4B46314628464244CB
:10521000B8470130C2D187E6DDF82890B9F1010F17
:1052200001DCDB0736D50123424631462846B84724
:1052300001303FF479AE059B5A4631462846B847BF
:1052400001303FF471AE09F1FF3994ED127BB5EEF8
:10525000407BF1EE10FA18D04B4608F101023146BE
:105260002846B84701300CD15EE601235A46314644
:105270002846B84701303FF457AE08F10108C84549
:10528000F3DB534604F15002DCE64FF0000804F172
:105290001A0BF4E701234246E1E701234A4631466F
:1052A0002846B84701303FF43FAE08F10108E368F3
:1052B0000B995B1A4345F0DCF8E64FF0000804F167
:1052C0001909F4E72DE9F047164698468A6807461B
:1052D0000B690C46DDF820909342B8BF134633604B
:1052E00091F843200AB1013333602368990642BF25
:1052F000336802333360256815F0060506D104F1E2
:10530000190AE36832689B1AAB422BDC94F84330ED
:105310002268003B18BF0123920630D404F14302F7
:1053200041463846C847013023D023681A3454F820
:105330000A2C03F00603042B0ABF54F80E5C002568
:1053400033684FF0000608BFED1A54F8123C08BF4E
:1053500025EAE5759342C4BF9B1AED18B5421AD1F0
:10536000002008E00123524641463846C847013034
:1053700003D14FF0FF30BDE8F0870135C1E7E118F8
:105380005A1C30200233224481F8430094F845101F
:1053900082F84310C2E70123224641463846C847F7
:1053A0000130E6D00136D9E72DE9FF470F7E91465F
:1053B00080460C46782F9A460C9E01F1430207D88E
:1053C000622F0AD8002F00F0D180582F00F0B8804B
:1053D00004F1420684F842703AE0A7F16303152B0A
:1053E000F6D801A151F823F04154000255540002AF
:1053F000D1530002D1530002D1530002D153000215
:1054000055540002D1530002D1530002D15300027F
:10541000D1530002535500027F5400020D55000283
:10542000D1530002D153000275550002D15300023E
:105430007F540002D1530002D153000215550002DF
:1054400033681A1D1B68326004F1420684F842304A
:1054500001239CE033682068191D3160060601D5E0
:105460001D6803E04506FBD5B3F90050002D03DAB3
:105470002D236D4284F8433058480A2311E02168F7
:105480003368080653F8045B02D4490648BFADB23E
:105490006F2F3360514814BF0A230823002184F87A
:1054A00043106668002EA66005DB21682E4321F0BC
:1054B000040121604BD01646B5FBF3F103FB1157F5
:1054C000C75D06F8017D2F460D46BB42F4D9082B77
:1054D0000BD12368DF0708D5236961689942DEBFD5
:1054E000302306F8013C06F1FF36921B22614B4641
:1054F00003AA21464046CDF800A0FFF7E3FE0130A5
:105500004AD14FF0FF3004B0BDE8F087236843F084
:105510002003236078273248236884F845701F06EB
:10552000316851F8045B02D45F0648BFADB2316008
:10553000D90744BF43F0200323601DB11023ADE71A
:105540002648E9E7236823F020032360F6E71646A0
:10555000BDE733682568181D616930602E061B6839
:1055600001D5196002E06806FBD5198000231646B4
:105570002361BCE7336800211A1D32601E6862682F
:10558000304600F073F808B1801B606063682361E7
:10559000002384F84330AAE723693246494640464F
:1055A000D0470130ADD023689B0713D4E068039B3C
:1055B0009842B8BF1846A6E70123324649464046FE
:1055C000D04701309DD00135E36803995B1AAB42A7
:1055D000F2DCEBE7002504F11906F5E7CEFC0C023E
:1055E000DFFC0C020EB400B59CB06FF000411DABA7
:1055F00002900690079104910848094953F8042B3A
:10560000059102A90068019301F058FA029B00225B
:105610001A701CB05DF804EB03B070471000002254
:105620000802FFFF02440346934200D1704703F88B
:10563000011BF9E7004870475001002238B50023EC
:10564000054D044608462B60FFF718F9431C02D1AC
:105650002B6803B1236038BD48070022014B18684E
:10566000704700BF1000002270477047C9B2034660
:10567000024410B59342184601D1002003E004789B
:1056800001338C42F6D110BD0A44431E914200D131
:10569000704710B511F8014B914203F8014FF9D151
:1056A00010BD034613F8012B002AFBD1181A01384C
:1056B00070472DE9F74F036907460C69A342C0F212
:1056C0008380013C00F1140501F11408A30055F892
:1056D000242008EB8409009305EB8403019358F818
:1056E000243001339A42B2FBF3F631D34FF0000A73
:1056F000C446AE46D3465CF8043B98B2E1454FEA57
:10570000134306FB00A04FEA104280B206FB0323BE
:10571000DEF8002092B24FEA134AA2EB00029BB2DD
:10572000DEF800005A44C3EB224392B203EB10436D
:1057300042EA03424FEA234B4EF8042BDBD2009B94
:10574000EB582BB9019B043B9D421A4630D33C6178
:10575000384601F04BF8002826DB2946002058F88F
:10576000042BD1F800C01FFA82FEC1451FFA8CF34A
:105770004FEA1242A3EB0E030344C2EB23429BB257
:1057800002EB1C4243EA02434FEA224041F8043B49
:10579000E5D255F8242005EB840322B9043B9D4251
:1057A0001A460BD33C610136304603B0BDE8F08F9A
:1057B0001268043B002ACAD1013CC5E71268043BC9
:1057C000002AEFD1013CEAE70020EEE7FFFFFFFFF0
:1057D0002DE9F04FC76981462DED028B91B055EC54
:1057E000104B1C9E069109920C938DED020B7FB914
:1057F0001020FFF7FFF90246C9F81C0020B99E4BA4
:10580000EF219E48FEF776FFC0E901770760C76089
:10581000D9F81C30196859B15A6801234846934099
:105820004A608B6000F0ACFDD9F81C3000221A6091
:105830002B1EB7BF23F00043002301220393ACBF0C
:10584000336032608E4B039EB34310D142F20F732C
:105850000C9A1360C6F31303234300F0D5841D9BF9
:10586000884F002B00F0D784FB1C00F0D2BC9DEDCC
:10587000028BB5EE408BF1EE10FA0AD101230C9A9F
:1058800013601D9B13B1804B1D9A13607F4F00F076
:10589000C2BC0EAAB0EE480B0FA9484601F05AF858
:1058A000C6F30A530E9A0190002B45D018EE901AB9
:1058B000B0EE487BA3F2FF330025C1F3130141F0A2
:1058C0007F5141F44011B7EE086B07EE901A9FED3F
:1058D000645B37EE467B9FED646BA7EE056B07EECE
:1058E000903AB8EEE74B9FED625BB0EE467BA4EEDC
:1058F000057BB5EEC07BFDEEC76BF1EE10FA16EE40
:10590000908A08D5B8EEE66BB4EE476BF1EE10FA6C
:1059100018BF08F1FF38B8F1160F2DD85C4901EB1C
:10592000C80191ED007BB4EEC78BF1EE10FA01D502
:1059300008F1FF38002120E00F9B0125134403F2FA
:1059400032412029C9BFC1F14001C1F120018E407F
:1059500003F21241D8BF04FA01F103F1FF33C4BFCF
:1059600024FA01F1314307EE901AB8EE677B17EE87
:10597000901AA1F1F871A6E70121D21A0B91531EDA
:10598000059345BFC2F10103002200230592B8F13F
:10599000000F17DB059ACDF82880424405920022BB
:1059A0000792069A092A42D8052AC5BF043A00245C
:1059B00001240692069A023A032A43D8DFE802F04D
:1059C0003335160AC8F10002A3EB08030792002240
:1059D0000A92E6E701220892099A08EB020B0BF102
:1059E000010A5246012AB8BF012206E001220892AC
:1059F000099A002A29DD93469246D9F81C700021A5
:105A0000042000F11406964226D979604846049392
:105A100000F076FC049B074600283DD11D4B024652
:105A200040F2AF11EDE60022E1E70022D3E70124C6
:105A30000022089406924FF0FF3B00211222DA4622
:105A40000991DAE701220892F5E74FF0010BDA46F7
:105A50005A46CDF824B0D0E701314000D1E700BF6D
:105A600061436F63A787D23FB3C8608B288AC63F64
:105A7000FB799F501344D33FFDFC0C0214FD0C0234
:105A80000000F07FF9FC0C02CDFC0C02CCFC0C02F7
:105A900028FE0C026DFD0C02D9F81C20BAF10E0F85
:105AA00010606ED8002C6CD0B8F1000F40F3B480B9
:105AB00008F00F01C74A18F4807F02EBC1024FEAD9
:105AC000281192ED007B00F09B80C34A01F00F018A
:105AD00092ED086B032288EE066B8DED026BBE48DB
