:020000040200F8
:10000000E0290022D9B3000271B20002D5B3000288
:10001000D5B30002D5B30002D5B30002D5B30002B8
:10002000000000000000000000000000D5B3000246
:10003000D5B3000200000000D5B30002D5B3000222
:1000400095AE0002C9AC00027D9A0002D19A00026E
:10005000259B0002099C00026D9C0002C19C0002CD
:10006000B58C0002258C0002458D0002918D0002A6
:100070000000000000000000000000000000000080
:100080000000000000000000000000000000000070
:100090000000000000000000000000000000000060
:1000A0000000000000000000000000000000000050
:1000B0000000000000000000000000000000000040
:1000C0000000000000000000000000000000000030
:1000D0000000000000000000000000000000000020
:1000E0000000000000000000000000000000000010
:1000F0000000000000000000000000000000000000
:1001000000000000000000000000000000000000EF
:1001100000000000000000000000000000000000DF
:1001200000000000000000000000000000000000CF
:1001300000000000000000000000000000000000BF
:1001400000000000000000000000000000000000AF
:10015000000000000000000000000000000000009F
:10016000000000000000000000000000000000008F
:10017000000000000000000000000000000000007F
:10018000000000000000000000000000000000006F
:10019000000000000000000000000000000000005F
:1001A000000000000000000000000000000000004F
:1001B000000000000000000000000000000000003F
:1001C0000348044B834202D0034B03B118477047E6
:1001D000900000229000002200000000064B07491A
:1001E000C91A891048BF0131491003D0044B0BB123
:1001F00001481847704700BF90000022900000227D
:100200000000000010B5064C237843B9FFF7D8FF73
:10021000044B13B10448AFF300800123237010BDD9
:10022000C000002200000000F0D2000208B5054B1B
:100230001BB105490548AFF30080BDE80840FFF752
:10024000CDBF00BF00000000C4000022F0D20002B9
:10025000D0E9013210B50446501C984207D82368F3
:1002600099540246E16863680131C4E902019A4287
:1002700000D010BD2168206900F0E8FAA368984218
:1002800015BF4FF0FF330023E360A36010BD00BF34
:100290002DE9F84F91428A46DDE90A8415468346E6
:1002A0001E466AD30B460127B3FBF5F39D4207F1C7
:1002B0000107F9D9B74238BF374614F0010902D116
:1002C000B8F1000F40D1DBF80C30002B2CDB0124FF
:1002D000002E14BF3346234601E005FB04F4013B26
:1002E000FBD1BAFBF4F39D4205D805FB04F4BAFB3D
:1002F000F4F39D42F9D9224E06E0AC42B4FBF5F38B
:100300000CD31C46BAFBF3F3F156584604FB13AA70
:10031000FFF79EFFDBF80C30002BEEDAB9F1000F8F
:1003200002D0B8F1000F09D1BDE8F88F202158465E
:10033000FFF78EFFDBF80C30002BF5DBB84508F13A
:10034000FF38F3D8BDE8F88FA30711D420240CE0C0
:1003500021465846FFF77CFFDBF80C3008F1FF38E8
:10036000002BE1DBB8F1000FAFD0B845F0D8AAE719
:10037000002E0CBF30242024F7E701279AE700BFA6
:10038000D0C300022DE9F04F002340259BB00DF1B2
:10039000280A81460C461746CDE90553CDE90730BA
:1003A000CDF810A006E004A8FFF752FF079B002B32
:1003B000C0F2AD8014F9011B002900F0A0802529AE
:1003C000F1D10026234613F9012BA2F123010D29B7
:1003D00008D8DFE801F07F070707070707077B0753
:1003E00083070777A2F13001C9B209294FF0000550
:1003F0000FD805EB850502EB450593F900201C4657
:10040000A2F13001C9B20929A5F1300503F10103B8
:10041000EFD92E2A00F0FE804FF0000B94F9001067
:1004200021F0040068281C465CD02529BBD058392F
:10043000CBB2202BBAD82029B8D801A353F821F089
:1004400017050002AD030002AD030002AD03000278
:10045000AD030002AD030002AD030002AD030002D4
:10046000AD030002AD030002AD030002010600026D
:1004700099050002AD030002AD030002AD030002C6
:10048000AD030002AD030002AD030002AD030002A4
:10049000AD030002AD030002AD030002AD03000294
:1004A00061050002AD030002AD0300023305000246
:1004B000AD0300027F050002AD030002AD030002A0
:1004C000170500021C4646F002067BE71C4646F074
:1004D000040677E71C4646F0080673E71C4646F01C
:1004E00001066FE714F9011B21F00403682B9CD16E
:1004F00014F9011B21F00403682B96D1F2E7079B46
:10050000002B04DD069C002C40F09D8023441846FF
:100510001BB0BDE8F08F102238685B4601680430DC
:10052000CDE9005638600DEB0200FFF7B1FE079BE6
:100530003DE73B68784A191D39601D68002D08BFEA
:10054000154615F9011B00293FF430AF04A8FFF749
:100550007FFE079B002BF4DA18461BB0BDE8F08F36
:100560003A680823116804323A6000201022CDE96D
:1005700000300DEB0200FFF78BFE079B17E7386892
:100580005B4601680430CDE900560A22386004A8B1
:10059000FFF77EFE079B0AE73B684FF001081A68E9
:1005A00004333B6082EAE273A3EBE273092B03920C
:1005B00009DD5A481946A0FB03C3632908F1010865
:1005C0004FEAD303F6DCD84538BFD846002D43D1D7
:1005D000079900250B46002999DB039B002B65DB5F
:1005E00073076FD406F00303022B74D05B460A2214
:1005F000CDE90056039904A8FFF74AFE079BD6E60B
:100600003B6804A81A1D93F900103A60FFF720FE1A
:10061000079BCCE694F90110A1F13002D2B2092A6D
:1006200055D81C464FF0000B0BEB8B0201EB42023E
:1006300014F9011FA2F1300BA1F13003DBB2092B39
:10064000F2D9631CECE6224651464846039300F07B
:10065000FDF8039B23445AE7039A06F00203002A9D
:100660001ADB720718D4002B4CD0BBF1000F10D04E
:10067000F0070CD50DE0202104A8FFF7E9FD07994C
:10068000013D00290B46FFF642AF002DA3D0A8453F
:10069000F1D307990B469EE7013D13B1BBF1000F63
:1006A000F7D0F207F5D4002DF1D191E75B422D216F
:1006B00004A80393FFF7CCFD079900290B46FFF62A
:1006C00026AF8FE72B2104A8FFF7C2FDF4E74FF018
:1006D000000B0133A4E6BBF1000F87D1002D85D0BC
:1006E000454516D9302104A8FFF7B2FD0799013D11
:1006F00000290B46FFF60BAF002DF1D10029FFF6C4
:1007000006AF73E7F107C2D5079B002BBFF66EAFAC
:10071000FDE60B46F2E700BF84BD0002CDCCCCCC99
:100720000EB400B582B003AB53F8041B01AA0193C9
:10073000FFF728FE02B05DF804EB03B0704700BF7E
:100740000379202B17D8ABB1013B1F2B12D8DFE860
:1007500003F010221128111111141111111111118E
:100760001114111111111111111111111111111176
:1007700011147047FEE7402B05D11C4A136843F063
:10078000040313607047802B22D1184A136843F08A
:10079000100313607047154A136843F00103136098
:1007A0007047134B1B681B681A6A1368DBB20D2B6A
:1007B00053600ED00F4A1048118889B243541388F1
:1007C0009BB21F2B138898BF01339BB213807047D5
:1007D000D0E70020074B08491B88044A9BB2C85445
:1007E000136843F002031360704700BF000100224A
:1007F00004010022DC000022E00000220022034667
:1008000070B50D4C0D4D2260D0E9011200681268E0
:100810002B60904770B92D680246A968084B8E6915
:1008200028680849B04728B9074B1880236843F067
:100830000803236070BD00BF0001002204010022F4
:100840000801002241070002DC00002238B50A4BF3
:100850000A4C18682368154623F001032360836857
:1008600000689B68984720B92368DB07FCD52846B9
:1008700038BD0025284638BD0401002200010022B1
:10088000034B4168034A994208BF134643607047CF
:100890000000006880820C6810B504460AF0AEFCC7
:1008A000064B07495A68002093B24FEA124C0CFBE2
:1008B00003F35B00C4E90112E36010BD50CA0002FB
:1008C0000000006810B50446084602F067FF064ABB
:1008D000034606490020FFF723FF22460449002073
:1008E000FFF71EFF00BE10BDF0C300028CBD00026A
:1008F000A8BD00020B4610B50D4A04460D49002064
:10090000FFF70EFF0C48037833B922460B4900204D
:10091000FFF706FF00BE10BD09F052FD0028F4D01D
:10092000074B034A03490020FFF7FAFEEDE700BF3B
:10093000E0C300028CBD000230010022A8BD00020D
:10094000C8BD00020378032B02D10122014B1A70AB
:10095000704700BF1D010022C27AFD2A36D02DE962
:10096000F04106461A4D1B4FDFF86C8084B0441CE2
:1009700008E04FF47A7130780AF050FCE27D0D34D3
:10098000FD2A1CD00023E07A14F8011CFE2ACDE9D0
:100990000033029403938DF801208DF80200ADF826
:1009A0000410E6D0694638462B7008F0BDFB48B904
:1009B0002B78002BFCD0E27D0D34FD2AE2D104B06F
:1009C000BDE8F0814146FFF795FFF1E7704700BFB2
:1009D0001C01002240010022E4BD00022DE9F04F7D
:1009E000002187B0DFF82893B748FFF707FFB74922
:1009F0000020FFF795FED9F81030484698470AF0D6
:100A0000EDFD4FF4FC61B24AB2480BF00FF9B24968
:100A1000B24809F0C5FE002800F0AF830446B04B91
:100A2000B04AB1490020FFF77BFE2246AF490020C3
:100A3000FFF776FE00BEAE48FFF78EFFA74809F02D
:100A400033FC0446002800F09483AA4BA54AA6492B
:100A50000020FFF765FE2246A4490020FFF760FE54
:100A600000BEA54D2B78002BFCD0002630462E7002
:100A700002F02EFEA14C3146206002F09BFE0028C1
:100A800040F073839E49FFF74BFE9B21206801F0E5
:100A900035FD002840F065839A49FFF741FE0121AA
:100AA000206801F04BFD002840F057839649FFF77E
:100AB00037FE03220221206801F062FD002840F089
:100AC00048839249FFF72CFE00260127DFF880B209
:100AD000DFF880A28E48D9F8143098472B78002B85
:100AE000FCD00022D9F804107C482E7009F002FCDA
:100AF000804658B1874B884A7B490020FFF710FE9B
:100B000042467A490020FFF70BFE00BEBBF90030D9
:100B1000D9F80420B3F5257F059280F2B6817F4A8B
:100B20001278002A00F013839A1C12B2B2F5257FC6
:100B3000ABF8002080F22583A52A00F3DF82774BF3
:100B40001F70774B1E707748774AB0F90030B2F9C2
:100B50000020502B40F38A817449097831B17249E1
:100B6000023B023A1BB212B203800A80502A00F301
:100B7000B9826F49B3F53E7F0F706C490E70C0F2B9
:100B800009836A4A17706A4A1670BAF90020B2F5EA
:100B90008F7F80F25B816749097881B166480132B5
:100BA000018812B2013101806448B2F58F7F01885B
:100BB000AAF8002001F10101018000F04781402ADC
:100BC00000F3AF825B4A17705D4A16705D48B0F95A
:100BD0000020412A40F332815B49097829B1013A6A
:100BE00012B2412A028000F02981B2F5877FC0F25B
:100BF0009282B3F5877F03DA534B1F70534B1E70FD
:100C0000206805F01BFF80462068B8F1000F40F017
:100C1000598240F2563300934FF4F07305991A4607
:100C2000019707F019FC80462068B8F1000F40F0EA
:100C30003982002106F064FB80462068B8F1000F7D
:100C400040F02082012101F0DDFC80462068B8F1EF
:100C5000000F40F00782022101F0F4FC804620687A
:100C6000B8F1000F40F0C981002101F0FFFC80467F
:100C70002068B8F1000F40F0B081012102F00AFEB7
:100C800080462068B8F1000F40F097814FF47F0252
:100C9000002101F01DFC80462068B8F1000F40F0F3
:100CA0007C81BBF800204FF4347312014FF4B4512F
:100CB000009612B206F01CFC80462068B8F1000FC6
:100CC00040F05B8148E000BFC0CB00020CBE0002D8
:100CD000000519000000006850CA0002300100221F
:100CE00014BE000200C400028CBD0002A8BD0002B8
:100CF00018C4000274BE00021D010022240100225B
:100D0000C4BE0002F4BE000220BF000248BF0002C1
:100D10000000002274BF00020CC400022A0000225E
:100D2000210100221C0000221A00002218000022CB
:100D30001E010022220000222600002224000022A0
:100D400020010022200000221E0000221F0100229C
:100D50002C000022280000224FF47F42002101F0E5
:100D6000B7FB80462068B8F1000F40F0F6804FF4E2
:100D70003E530421CDE902314FF425530093A74B94
:100D8000BAF800101B8809011B011BB20193A44B88
:100D90004FF40C521B8809B21B011BB206F04EFB2C
:100DA00080462068B8F1000F40F0C780FF22002184
:100DB00001F08EFB80462068B8F1000F40F0AD8056
:100DC0004FF448630093974B4FF4A06219884FF497
:100DD0000763090109B206F09BFA80462068B8F162
:100DE000000F40F08A8000218F4A01F071FB80469D
:100DF0002068B8F1000F70D160230322CDE90132E1
:100E00008A4B4FF42F611B881B011BB20093884B48
:100E10001A884FF48263120112B206F0BBFA8046C0
:100E20002068B8F1000F48D105F046FE8046002842
:100E300033D1804A1368013313604BE67E490F704B
:100E40007E490E70774901320A80D2E6013AAAF84B
:100E500000207B4A724916707A4A17700A88013A54
:100E60000A806E490A88013A0A80AFE6502A00F3E8
:100E70003D816E4902320A80734A02331770734A09
:100E80001BB216706A4A13807FE6023BABF8003053
:100E90006F4B1F706F4B1E7055E6206802F07EFC92
:100EA0006D4A03466D490020FFF73AFC42466C4903
:100EB0000020FFF735FC00BEBBE702F06FFC664A7E
:100EC000034666490020FFF72BFC42466449002098
:100ED000FFF726FC00BE2068A6E702F05FFC5E4A32
:100EE00003465E490020FFF71BFC42465C49002098
:100EF000FFF716FC00BE20687EE702F04FFC564A62
:100F0000034656490020FFF70BFC42465449002097
:100F1000FFF706FC00BE206865E702F03FFC4E4A82
:100F200003464E490020FFF7FBFB42464C49002098
:100F3000FFF7F6FB00BE206842E702F02FFC464AAE
:100F4000034646490020FFF7EBFB42464449002098
:100F5000FFF7E6FB00BE206828E702F01FFC3E4AD0
:100F600003463E490020FFF7DBFB42463C49002098
:100F7000FFF7D6FB00BE2068F9E602F00FFC364A08
:100F8000034636490020FFF7CBFB42463449002098
:100F9000FFF7C6FB00BE2068DEE602F0FFFB2E4A2C
:100FA00003462E490020FFF7BBFB42462C49002098
:100FB000FFF7B6FB00BE206873E602F0EFFB264A9F
:100FC000034626490020FFF7ABFB42462449002098
:100FD000FFF7A6FB00BE206858E602F0DFFB1E4AC2
:100FE00003461E490020FFF79BFB42461C49002098
:100FF000FFF796FB00BE20683FE602F0CFFB164AE3
:10100000034616490020FFF78BFB42461449002097
:10101000FFF786FB00BE206826E600BF2400002202
:10102000260000222000002200FFFF001A000022FC
:101030001C000022180100221F0100221E000022B5
:1010400022000022200100221E010022180000229E
:10105000210100222A000022F0C300028CBD000200
:10106000A8BD000202F09AFB504A034650490020F6
:10107000FFF756FB42464F490020FFF751FB00BEE9
:101080002068E8E502F08AFB484A03464849002008
:10109000FFF746FB424647490020FFF741FB00BEF1
:1010A0002068CFE502F07AFB404A03464049002021
:1010B000FFF736FB42463F490020FFF731FB00BEF9
:1010C0002068B6E502F06AFB384A0346384900203A
:1010D000FFF726FB424637490020FFF721FB00BE01
:1010E000206896E5B3F53E7FBFF64BAD32490978EF
:1010F00000294FD1314BB3F9003046E5304B1B7816
:10110000002B3FF420AD931E9BB2A52BABF8003013
:101110003FF619AD13E52B49097800293FF469AD75
:1011200090E62949097800293FF450AD2748013A53
:10113000018812B2013901802548402A0188AAF8A5
:10114000002001F1FF3101803FF43CAD3EE51A463D
:10115000F2E42168FFF7B6FBB6E42168FFF7B2FBC3
:10116000A7E42168FFF7AEFB99E42168FFF7AAFB2B
:101170008BE41849FFF7D4FA73E41749FFF7D0FA64
:1011800059E4ABF8003001230D4A13700023134AD1
:101190001370D8E41249023202331BB20A80074AA4
:1011A000B3F53E7F1380FFF6F0ACEAE4F0C3000233
:1011B0008CBD0002A8BD00021E0100221C000022FE
:1011C000210100221F01002220010022260000220E
:1011D000240000229CBE000244BE00022A0000221D
:1011E0001A00002203781BB94368B3F5807F00D052
:1011F00070470122014B1A70704700BF1C0100228A
:10120000FFF7ECBB022800D07047024B0248596838
:1012100009F018B840CA00022801002208B5FFF7FB
:10122000EFFF002008BD00BF2DE9F04F85B0BDF9EC
:101230003870BDF93CC077B3BCF1000F2BDD4FF027
:10124000000EA2F11008B844A3F110076744F44659
:101250001FFA88F8BFB208F10F0B91462BF00F0B65
:1012600022F00F0207F10F0A1E462AF00F0A23F0A0
:101270000F0362F30F0E6BF30F0C0D4663F31F4E5B
:101280006AF31F4C02A90446CDF808E0CDF80CC063
:1012900007F04AF918B9002005B0BDE8F08F2946DB
:1012A000204605F047FC95F8D5300FFA88F89907E5
:1012B0003FB233D4DA0700F14E810023294620469D
:1012C00002AA009302F03EFF06460023294620466C
:1012D00002AA05F015F80023294602AA204606F0C6
:1012E00061FA0021D4F8B82102F10803C4F8B8313A
:1012F000D4F8BC311160013B8B425660C4F8BC315C
:1013000003DC2046D4F8C03198472046002202A9C9
:1013100005F0D8FE012005B0BDE8F08FDB0700F135
:101320001A8149EA080346EA07001B0700F00F008C
:1013300000F0A282D4E96EC3BDF908200CF10801C7
:10134000A2EB0902120302F58032C4F8B811CCF8FE
:1013500004200422013BCCF80020C4F8BC31002852
:1013600000F0C981002B05DCD4F8C0312046984735
:10137000D4E96E134FF00A0C4FF48030013B01F1B9
:101380000802002BC4F8B821C1E900C0C4F8BC3180
:1013900005DCD4F8C03120469847D4E96E230021FB
:1013A0004FF0100C013B02F108008B42C4F8B80169
:1013B000C2E900C1C4F8BC3105DC2046D4F8C03114
:1013C0009847D4E96E034FF0050CBDF90820013BA6
:1013D000A8EB0202120302F5803200F10801002B93
:1013E000C4F8B811C0E900C2C4F8BC3105DCD4F8B7
:1013F000C03120469847D4E96E130B20013BDFF83B
:1014000074C401F10802002BC4F8B821C1E9000C32
:10141000C4F8BC3105DCD4F8C03120469847D4E983
:101420006E2300214FF0110C013B02F108008B42AA
:10143000C4F8B801C2E900C1C4F8BC3105DC2046DB
:10144000D4F8C0319847D4E96E034FF0060CBDF9CB
:101450000A20013B921B120302F5803200F10801C1
:10146000002BC4F8B811C0E900C2C4F8BC3105DCD7
:10147000D4F8C03120469847D4E96E1300200C26DA
:10148000013B01F108028342C4F8B821C1E90060C0
:10149000C4F8BC3105DCD4F8C03120469847D4E903
:1014A0006E2312264FF48031013B02F10800002B1D
:1014B000C4F8B801C2E90061C4F8BC3105DC2046BB
:1014C000D4F8C0319847D4E96E030726BDF90A2045
:1014D000013BBA1A120302F5803200F10801002B19
:1014E000C4F8B811C0E90062C4F8BC3105DCD4F816
:1014F000C03120469847D4E96E1300200D26013BE9
:1015000001F108028342C4F8B821C1E90060C4F8BF
:10151000BC3105DCD4F8C03120469847D4E96E23AD
:1015200002F10801C4F8B8111321013BD148002B86
:10153000C2E90010C4F8BC3103DC2046D4F8C03145
:1015400098470F26042300962946204602AA02F057
:10155000F9FD0646B9E60420D4E96EE3BDF908209A
:10156000D5F81011A2EB090201FB02F2013B01EBDD
:1015700012120EF1080C002BC4F8B8C1CEE900021B
:10158000C4F8BC3140F36D810A20013B0CF1080224
:10159000002BC4F8B821CCE90001C4F8BC3140F3F9
:1015A000598100211020013B02F1080C8B42C4F844
:1015B000B8C1C2E90001C4F8BC3140F344814FF026
:1015C000050EBDF90820D5F81011A8EB020201FBA9
:1015D00002F2013B01EB12120CF10800002BC4F8DF
:1015E000B801CCE900E2C4F8BC3140F323814FF0EC
:1015F0000B0C013B494200F10802002BC4F8B82152
:10160000C0E900C1C4F8BC3140F30D8100204FF0A7
:10161000110C013B02F108018342C4F8B811C2E980
:1016200000C0C4F8BC3140F3F7804FF0060CBDF9A0
:101630000A20D5F81001921B00FB02F2013B00EBDF
:101640001210002B01F10802C4F8B821C1E900C052
:10165000C4F8BC3140F3D98000200C26013B02F1D4
:1016600008018342C4F8B811C2E90060C4F8BC3173
:1016700040F3C4801226D5F81021013B01F1080087
:10168000002BC4F8B801C1E90062C4F8BC3140F3D2
:10169000AC800726BDF90A10013B791A02FB01F163
:1016A000002B02EB111200F10801C4F8B811C0E9D7
:1016B0000062C4F8BC3140F3918000200D26013B4C
:1016C00001F108028342C4F8B821C1E90060C4F8FE
:1016D000BC317CDD1320D5F81011013B494202F1E9
:1016E0000806002BC4F8B861C2E90001C4F8BC3197
:1016F0003FF727AF21E7002B05DCD4F8C0312046A7
:101700009847D4E96E130A264FF48030013B01F16B
:101710000802002BC4F8B821C1E90060C4F8BC314C
:1017200005DCD4F8C03120469847D4E96E23002167
:101730001026013B02F108008B42C4F8B801C2E94F
:101740000061C4F8BC3105DC2046D4F8C0319847AC
:10175000D4E96E030526BDF90820013BA8EB02027F
:10176000120302F5803200F10801002BC4F8B81111
:10177000C0E90062C4F8BC3105DCD4F8C0312046B1
:101780009847D4E96E130B27013B3A4801F1080250
:10179000002BC4F8B821C1E90070C4F8BC3105DCE5
:1017A000D4F8C03120469847D4E96E23002002F1D6
:1017B0000801C4F8B8111121013B8342C2E90010AD
:1017C000C4F8BC3140F3D88003260223BBE6D4F82A
:1017D000C03120469847D4E96E237BE7D4F8C03166
:1017E00020469847D4E96E1367E72046D4F8C03105
:1017F0009847D4E96E03D5F810214AE7D4F8C031F0
:1018000020469847D4E96E1334E7D4F8C031204617
:101810009847D4E96E231FE7D4F8C0312046984793
:10182000D4E96E1301E7D4F8C03120469847D4E9D3
:101830006E23EBE62046D4F8C0319847D4E96E0316
:10184000D5F81011D3E6D4F8C03120469847D4E932
:101850006EC3B4E6D4F8C03120469847D4E96E236D
:101860009FE6D4F8C03120469847D4E96EC3D5F836
:10187000101189E60000FFFF00283FF41EADBDF9FE
:101880000A20D4F8BC31921B0426D4F8B801013BDD
:10189000120302F5803200F10801002BC4F8B811E0
:1018A000C0E90062C4F8BC3105DCD4F8C031204680
:1018B0009847D4E96E1300200A26013B01F1080283
:1018C0008342C4F8B821C1E90060C4F8BC3105DC2A
:1018D000D4F8C03120469847D4E96E2310264FF43F
:1018E0008031013B02F10800002BC4F8B801C2E9C5
:1018F0000061C4F8BC3105DC2046D4F8C0319847FB
:10190000D4E96E030526BDF90A20013BBA1A120379
:1019100002F5803200F10801002BC4F8B811C0E9CB
:101920000062C4F8BC3105DCD4F8C03120469847C9
:10193000D4E96E1300204FF00B0C013B01F10802BB
:101940008342C4F8B821C1E900C0C4F8BC3105DC49
:10195000D4F8C03120469847D4E96E2302F108013B
:10196000C4F8B8111121013B0648002BC2E9001050
:10197000C4F8BC313FF728AF2046D4F8C0319847AF
:1019800022E700BF0000FFFF30B594468E461C469C
:1019900083B0BDF91850816A72466346CDE90045AF
:1019A000FFF742FC002003B030BD00BF10B582B08D
:1019B000BDF9104000930194B0F86EE0B0F87030BB
:1019C000134401EB0E021BB2C16A12B2FFF72CFCEA
:1019D000002002B010BD00BF2DE9F04FB0F96C40FF
:1019E00091B0002CBDF968C044DD102C0F460646AE
:1019F0009846C16A0BD091F8D730012B3ED1B1F98E
:101A0000D830A3423ADD91F8D530DB0736D41FFA3F
:101A10008CFA95B2A2B2AB1AB8B20AEB420B0FFA2B
:101A200083F90FFA8BFB821A4B46079012B23046AD
:101A30000094CDF804B0FFF7F7FBCDE900844B46E6
:101A40003A46F16A3046FFF7EFFB0798CDF804B04D
:101A500000EB080200944B46F16A12B2304655443E
:101A6000FFF7E2FBF16A3A463046CDE900842BB23B
:101A7000FFF7DAFB002011B0BDE8F08FBFB292B2E1
:101A8000A8F10808ACF1080C94440194B844C4F3DC
:101A90004F04083F083A3F1B121BA044644492B213
:101AA000BFB21FFA88F8A4B2ADF82220ADF8262004
:101AB000ADF82070ADF82C70ADF82480ADF828801A
:101AC000ADF82A40ADF82E40002304259DED907E10
:101AD0000CAA82ED807E3046CDE903330295009555
:101AE00004F0D2FC002011B0BDE8F08F2DE9F041E8
:101AF00005461C460F46904682B0BDF92060203452
:101B00000096FFF769FF2036284604F0DDFF36B265
:101B1000A8F11003A7F1100224B2A96A1BB212B2F5
:101B20002846CDE90046FFF77FFB284604F0EAFF90
:101B3000002002B0BDE8F0812DE9F04104460E46D8
:101B400017461D4682B0BDF920800093CDF8048071
:101B5000B0F870301344B0F86E201BB20A4412B2D1
:101B6000C16AFFF761FB204604F0AEFFA16A3B4665
:101B700032462046CDE90058FFF756FB204604F0D8
:101B8000C1FF002002B0BDE8F08100BF2DE9F041A7
:101B90000446D0F87230D0F87620806E82B0C70646
:101BA0000D46CDE90032616C01D4032949DD2046A0
:101BB00001F006FBD4E96E131920013B01F1080284
:101BC000002BC4F8B821C1E90005C4F8BC3105DC1C
:101BD000D4F8C03120469847D4E96E230020013B59
:101BE00002F108018342C4F8B811C2E90000C4F848
:101BF000BC3105DCD4F8C03120469847D4E96E13D7
:101C00000120626D013B42F0A07201F1080542F42F
:101C10008052002BC4F8B851C1E90002C4F8BC31AD
:101C200003DC2046D4F8C03198470022204669469C
:101C300005F048FA204601F0C3FA002002B0BDE8E2
:101C4000F081042797FBF1F7206C90FBF7F107FB7D
:101C500011000028ABD1E16B8E07A8D1E16C880799
:101C6000A5D143F30B100FFA83FC00289FD1013953
:101C700042F30B10884216B299D1A16C072900F3E8
:101C8000C180002910DB07290ED8DFE801F004CF5E
:101C90000DBE0D0DB8A805F07F4141EA15612D0E6E
:101CA00041EA054141EA0525A6EB0C0820461E1431
:101CB000C6EB224601F084FAD4E96E231920013BD9
:101CC0004FEA2818361102F10801002BC4F8B811A8
:101CD00008F10108C2E9000506F10106C4F8BC31AB
:101CE00005DCD4F8C03120469847D4E96E130020B3
:101CF000013B01F108028342C4F8B821C1E90000A8
:101D0000C4F8BC3105DCD4F8C03120469847D4E98A
:101D10006E230121013B5E4D02F10800002BC4F847
:101D2000B801C2E90015C4F8BC3105DC2046D4F87E
:101D3000C0319847D4E96E03226C1F2592FBF7F25D
:101D4000013B00F1080192B2002BC4F8B811056004
:101D50004260C4F8BC3105DCD4F8C0312046984755
:101D6000D4E96E13B8FBF7F21E20013B01F1080520
:101D700042EA0642002BC4F8B851C1E90002C4F897
:101D8000BC3103DC2046D4F8C0319847636C022B89
:101D90006BD0042B57D0012B7FF44CAF2025BDF91D
:101DA0000220BDF90030216C12111B1101FB02331E
:101DB000E06BD4F8B811D4F8BC211844013A01F111
:101DC0000806002AC4F8B861C1E90050C4F8BC2173
:101DD0003FF730AF2046D4F8C03198472AE705F0E6
:101DE000F0014FEA152E41EA157128090EF47045ED
:101DF000294300F47060014301EB014554E74FEAC9
:101E0000356551E741297FF44FAF290C280B00F4C9
:101E1000706001F470410143280A00F0F000C5F33E
:101E200003150143294301EB01453DE7290A6809F0
:101E300001F4784100F4FC60C5F3C4050143294373
:101E400001EB014530E7BDF90220BDF90030216CFE
:101E500012111B1101FB0233E06B2025D4F8B811DD
:101E6000D4F8BC2100EB8300A8E7BDF90220BDF93E
:101E70000030216C12111B1101FB0233E06B202595
:101E8000D4F8B811D4F8BC2100EB430096E700BFAA
:101E9000001060012DE9F04F89B0BDF94C80BDF90B
:101EA00048909EB206F10F03B8F1000F04460F46AA
:101EB0001FFA89FC95B29BB240F3E98000200246EC
:101EC0000CEB680C1FFA8CFC05F10F0EE644A5EB39
:101ED0000C0B6344A6EB0C0AA9EB68016BF30F0033
:101EE0006EF30F026AF31F4063F31F42082920F0CC
:101EF0000F1022F00F123DDDB7F9DA30CDE90602FE
:101F0000002B41DDB4F972C001B2C91A614509B2B2
:101F1000A8BF8C46B4F97410ADF818C0C3EB204CC0
:101F20008C4540F30F40A4BFC01A01B2ADF81A109F
:101F3000B4F9761003FA82F0884200B2D8BF0146A5
:101F4000ADF81C10B4F9781003EB2240884242F33C
:101F50000F42C8BFADF81E109B462046D8BF9B1845
:101F600006A9D8BFADF81E3006F0DEFAA0B909B058
:101F7000BDE8F08FB7F9DA304FF00008002BCDE95B
:101F800006020FFA8CF9BDDC204606A94FF0000BC3
:101F900006F0CAFA0028EAD0BDF818303946ED1A22
:101FA000BDF81A302046F61A2DB204F0C3FD36B241
:101FB000D7F828A1B8F1000F00F0C78008FB08F39C
:101FC0004B451FFA89FB04DA97F8D52012F001027D
:101FD00074D000224FF0010908EBD878C8F34F08FD
:101FE00008EB0B031BB239462046CDE903290193C8
:101FF00002922B46009600F05FFBABEB080B744A95
:102000000FFA8BF33946019302922B4602222046A7
:10201000CDE90399009600F04FFBD4F880300AF424
:10202000206A5B014AF0C50105D597F8D5301B063B
:1020300003F080731943042306AA00912046394611
:1020400002F080F8D4E96E230021013B02F108057B
:102050008B42C4F8B851C2E90010C4F8BC316FDD3E
:102060004FF0000B3946204606AA002304F048F939
:1020700000233946204606AA05F094FB20465A461E
:1020800006A905F01FF8012009B0BDE8F08F002077
:1020900002460CF10F01A5EB0C0E294463446EF3CC
:1020A0000F00A6EB0C0C61F30F026CF31F4063F3FF
:1020B0001F4220F00F1022F00F121DE701210491A2
:1020C00008F1100101EBD1710BF1010B49100FFA6E
:1020D0008BF3090320460096019303922B4602914D
:1020E0000AF4007A394600F0E7FA4AF4004242F076
:1020F0004102022339460092204606AA02F022F845
:102100004FF0160CD4F8BC31D4F8B811013B4FEAAB
:10211000083601F10802002BC4F8B8210546C1E9D0
:1021200000C6C4F8BC314CDD0021013B02F10800BF
:102130008B42C4F8B801C2E90015C4F8BC318FDC89
:102140002046D4F8C03198478AE701212B46424601
:10215000049120463946CDE902880096CDF80490D6
:1021600000F0AAFAD4F880200AF4007A4AF4400376
:10217000520143F0410305D597F8D520120602F02D
:10218000807213433946009306AA0223204601F0C9
:10219000D9FFD4E96E230021013B02F108058B42EF
:1021A000C4F8B851C2E90010C4F8BC3103DC2046C1
:1021B000D4F8C0319847CB440BF10F0B4FEA1B1BEF
:1021C00050E7D4F8C03120469847D4E96E23ABE7F6
:1021D0000080FFFF30B594468E461C4683B0BDF9A3
:1021E0001850816A72466346CDE90045FFF752FEFA
:1021F000002003B030BD00BF10B582B0BDF9104063
:1022000000930194B0F86EE0B0F87030134401EB25
:102210000E021BB2C16A12B2FFF73CFE002002B0F0
:1022200010BD00BF2DE9F047B0F96CA082B0BAF143
:10223000000FBDF9289017DDB9F1000F06460F46D3
:1022400090469DB2CAF34F0412DC09EBD97C05EB32
:102250006C052C44CDF804A024B2F16A43463A46FA
:1022600030460094FFF716FE002002B0BDE8F0876C
:10227000A5EB69031B1B1BB20093CDF804A013460A
:102280000A46C16AFFF706FEDFE700BF2DE9F0410D
:1022900082B0BDF920801D46B8F1000F04460E46FD
:1022A0001746B0F96C301EDD002B11DC204604F01F
:1022B0000BFCA16A3B4632462046CDE90058FFF7A9
:1022C000E9FD204604F01EFC002002B0BDE8F081CC
:1022D00008EB43031BB2CDE9005313460A46C16A1B
:1022E000FFF7D8FDE2E7E1D1002BDFDDA3F110021B
:1022F00002EBD27205EB620208331BB212B20193F9
:1023000000923B460A46C16AFFF7C4FDCEE700BF14
:102310002DE9F04104460E4617461D4682B0BDF930
:1023200020800093CDF80480B0F870301344B0F8EA
:102330006E201BB20A4412B2C16AFFF7ABFD204601
:1023400004F0C2FBA16A3B4632462046CDE9005864
:10235000FFF7A0FD204604F0D5FB002002B0BDE849
:10236000F08100BFFFFFFFFF2DE9F84306464FF461
:10237000BE7003F043FF0446002800F096804FF043
:102380007F436FF07F4200254FF0FF370221C0E905
:102390005333C0E9022280F8D510076180F80E514E
:1023A000D6F88020C0F8543112F0006F4FF01003BF
:1023B0004FF004024FF4703C80F8E9204660C0F80A
:1023C00028518382404B4FF4B05008BF4FF4800334
:1023D0004FF4803101229FED384B9FED395B80EF48
:1023E000506040F2011EC4F834C14FF400294FF090
:1023F000400C4FF0AA08C4E94703706DC4F81011EF
:10240000034343F4012343F4C06384ED315FC4F814
:102410002431C4F8162084F8D420C4F83011C4F84C
:102420001811A4F8D6E0C4F8D8C004F11C00C4E91F
:102430003F55C4F82C91C4F8148184F80F51C4E9B5
:10244000415584ED4F7FA4F80C2101F073FE04F197
:10245000340001F06FFE04F14C0001F06BFE04F15A
:10246000640001F067FE04F17C0001F063FE04F1FA
:10247000940001F05FFE04F1AC0001F05BFE0C2261
:10248000124B3046C4F8E4302146C4E93757C4F84B
:10249000387184F8E82005F06DF8F3692046236070
:1024A00086F8C651F461BDE8F883012586F8C65167
:1024B0002046BDE8F88300BFAA0000000400000029
:1024C000000000001000000008004020010303038A
:1024D00003464FF0000C10B45C6A22F07F420231D8
:1024E00044F8212094F80E21604642F0010284F85D
:1024F0000E2183F8C6C15DF8044B704700B5436AEE
:10250000024693F812C093F80E018C4540F0010E7C
:1025100018BF40F0070083F80EE118BF83F80E01E2
:10252000987D9974C0074FF0000044BF0906C3F8B6
:102530004C1182F8C6015DF804FB00BF00B5436A88
:10254000024693F816C093F80E018C4540F0010E38
:1025500018BF40F00700997583F80EE118BF83F8A3
:102560000E01C90758BF4FF07F414FF0000044BF34
:10257000997C0906C3F84C1182F8C6015DF804FB8A
:1025800010B4446A032994F80E31844643F00103E1
:1025900084F80E3127D81A4B53F82110032A22D879
:1025A000DFE802F02B04022841F480610022D4F815
:1025B0002001D4F82C31C4F81C110343DCF854007A
:1025C0000343D4F83C010343D4F840010343D4F857
:1025D000440103430B43C4F824318CF8C621104650
:1025E0005DF8044B704710228CF8C62110465DF848
:1025F000044B704741F4A051D8E741F48051D5E72E
:1026000080D1000230B4426A034692F8D50059B135
:10261000002440F002010020C2F8284182F8D510C1
:1026200083F8C60130BC70474FF480354FF0100C72
:102630004FF4FC4400F0FC01C2F81051A2F814C0A1
:10264000E9E700BF00220346022914BF94464FF079
:10265000030C10B45C6A104684F8D61084F80FC1DD
:1026600083F8C6215DF8044B704700BF0346002283
:1026700010B45C6A104684F8D71083F8C6215DF860
:10268000044B70476FF07F43D0F84C11027C90F8F8
:1026900011C0090A01FB023201FB0C3390F80E1144
:1026A00002F07F4203F07F4321F00201C0E954238E
:1026B00080F80E11704700BF2DE9F04F87B0BDF9CB
:1026C00044C0BDF940E091F8D5B01FFA8CF7AEEBED
:1026D00007061BF0010FA3EB07071546DDE912897A
:1026E00004461FFA86FAB8B2149A36B23FB279D0CD
:1026F000C3F108030393CEF10803049306FB06F32A
:1027000007FB073303F1FF00002BB8BF03463E442D
:10271000D1F81001B1F914A00CEBDC7106EB6106E5
:10272000F117A6FB00764FEAE37B059700FB0166F5
:102730001F12002A40F0FD8062464FF07840D31708
:102740004FF0FF3108F0E2FF524650EA0F21D31755
:1027500008F0DCFF0BFB00FB07FB01BBA0FB07370E
:102760001BEB070702D50F3347F100079A46BB461C
:10277000059B019600935AEA2F1BDDE9006756EA94
:102780000F17BAEB06026BEB07061346321E02DA8E
:10279000FF3342F100021E46174656EA2F27002952
:1027A0000A46334605DA40F6FF728218104641F1B8
:1027B0000002934682465AEA2F3B039A02FB0AF62E
:1027C0007600002E06F10F02B8BF1646049A3611A5
:1027D00002FB0AF77F00002F07F10F02B8BF174670
:1027E0003F112FE050EA0A0000F09080C3F1080189
:1027F0008A4BCEF1080E93FBFCFA06FB06F33E442F
:1028000007FB073787FB0A273B4652EAEF234FEACD
:10281000EA0A0AFB01F10AFB0EFE0CEBDC7C490024
:1028200006EB6C064FEA4E070029A2EB063301F1D6
:102830000F02B8BF1146002F07F10F02B8BF1746AD
:102840000E113F11D4E96E0205F1040C013A00F1BA
:102850000801B9F1000F40F09F804344002AC4F8FA
:10286000B811C0E900C3C4F8BC2105DC2046D4F887
:10287000C0319847D4E96E12013A01F10803681D8E
:10288000002AC4F8B8314E600860C4F8BC2105DCE9
:10289000D4F8C03120469847D4E96E32013A03F1AA
:1028A000080105F11000002AC4F8B8115F60186033
:1028B000C4F8BC2105DC2046D4F8C0319847D4E9DF
:1028C0006E12013A4FEA4A0601F1080305F10B00C6
:1028D000002AC4F8B8314E600860C4F8BC2105DC99
:1028E000D4F8C03120469847D4E96E32013A03F15A
:1028F00008011135002AC4F8B811C3E90056C4F81C
:10290000BC2140F3848007B0BDE8F08F444BCCF18C
:10291000080293FBFCFACCEB4C56F3020AFB02F6DE
:102920007600002E06F10F02B8BF16463611374664
:1029300088E7D4F880305B017FF5FEAE4FF0784336
:1029400093FBFCF39B0193FBFAF3039A4FEA231AE0
:1029500002FB0AF6049A83FB071002FB0AF2002E20
:1029600006F10703B8BF1E46002A02F10703B8BFED
:102970001A4600284FEAE6064FEAE20704DA11F1A8
:102980000F03194640F100000A46034652EA2F138E
:102990000599A2EB810355E75B42A3EB0803002AEC
:1029A000C4F8B811C0E900C3C4F8BC2105DC204656
:1029B000D4F8C0319847D4E96E12013A764201F159
:1029C0000803681D002AC4F8B8314E600860C4F8D6
:1029D000BC2105DCD4F8C03120469847D4E96E32DA
:1029E000013A7F4203F1080105F11000002AC4F802
:1029F000B8115F601860C4F8BC2105DC2046D4F82B
:102A0000C0319847D4E96E12CAEBCA7A59E720461A
:102A1000D4F8C03107B0BDE8F04F18470000C0FF40
:102A20000000F8FFF8B5054614200E46AF6903F024
:102A3000E5FB002835D00022AB6E044606EB86018C
:102A40008660C260D8074FEA810113D5084603F0BB
:102A5000D5FB606010B30022AB6E2261D90705D4AC
:102A6000D5F88430DA0613D49B0707D400232360FB
:102A70002046F8BD284603F0FFFBEAE7A2680421E0
:102A800002EB82023846920008F03EFA2061EDE740
:102A90000146384608F042FA2061E7E7204603F095
:102AA000AFFB0024E4E700BFF8B5876911B3064621
:102AB0000C460CE0304603F001FC2A691AB1D6F846
:102AC00084309B070DD4284603F09AFB94B1254629
:102AD000B36E2468DA076968ECD5084603F090FB0A
:102AE000EBE73846042108F013FA284603F088FB88
:102AF000002CECD1F8BD00BF836810B504461868FF
:102B000038B1D0E901230021C1602261E361A060F6
:102B100010BD216A2068FFF785FF10B1A368186017
:102B2000EFE71522236883F8C72110BD2DE9F04790
:102B300045690446C26982B0002D3CD0AB69002AC9
:102B400034D10168012BD1F8188040F29A8087684F
:102B5000D5F810A0F968D7E9019606EB860609EBCF
:102B6000860300690AEB860609B10E60FA608342AB
:102B700007D91A1A013A22F003028021043209F01F
:102B800055F8BB68102703EB83039B004A46514668
:102B90004046009708F0C6F9AB692E61013BAB6176
:102BA000204602B0BDE8F047FFF7A6BF012B22D0B8
:102BB00002B0BDE8F0870669764B40F2FF3733601C
:102BC0003346D0F808C0013A43F8045F06F10C011F
:102BD000CCF80C30B760C0E906520161FFF78CFFFA
:102BE000236893F9C731002B7CD1A3685B687360BD
:102BF00002B0BDE8F087EA690168012AD1F81880BF
:102C000044D9EE68A1687068013A0F46EA6100286D
:102C100000F0AC80FA682369002A56D010600022C8
:102C2000FA60A2691F46032A0FD8DFE802F0554177
:102C3000023440F2FF32DA601A88103342F0004268
:102C400042F4000243F8102C23614FF0100C0027CF
:102C5000E3694046013BE361D1E9012303EB8303D0
:102C600029699B00CDF800C0A76108F05BF9736883
:102C7000002B95D0331DEB6072686B692A61AB61E4
:102C80008EE7EA69012ABCD88AD1012B04BF15233B
:102C900081F8C73184E740F2FF321A611A681433B1
:102CA00022F07F4242F0004243F8142C2361CCE72B
:102CB00040F2FF329A601A780C3342F0802242F4DC
:102CC000000243F80C2C2361BFE7324A03F10807E6
:102CD0001A6043F8040FCB6040F2FF3347F8043B1F
:102CE0002761B2E72369A269A3F10C012161032ADC
:102CF00011D8DFE802F0162D1E0240F2FF3053F823
:102D00000C2C03F1080122F07F4242F0004243F80C
:102D10000C2C586021610022E369013BC4E90623C1
:102D200046E740F2FF31A3F1080243F80C1C226190
:102D3000F1E7194640F2FF3033F80C2C42F0004224
:102D400042F4000243F80C2C41F8040B2161E2E745
:102D500040F2FF3113F80C2C43F8041C42F080229F
:102D600042F4000243F80C2C2361D4E7AA68042142
:102D700002EB82024046920008F0C6F8706008B18B
:102D8000A16847E70122236883F8C7212369A16866
:102D900047E700BF3280808083690269032B0CD82B
:102DA000DFE803F0100220111146137843F080236E
:102DB00043F4000341F8083B01610022C369013B71
:102DC000C0E90623704711461368002223F07F43B1
:102DD00043F0004341F8103BC3690161013BC0E986
:102DE0000623EFE711461388002243F0004343F423
:102DF000000341F80C3BC3690161013BC0E90623B4
:102E0000E0E700BF38B504460068816E11F020018C
:102E100004D13B2200F5BC7008F008FF62686369CA
:102E2000C4E902223BB1D3E90010D9600D685969A9
:102E30001D61C3E90610D2E9011200232161C4E932
:102E40000632E36238BD00BF2DE9F0474FF00008BD
:102E50000D4686692C6814F0803F14D0B4F1803F91
:102E60003DD02204E7B23CD5322F00F0968039469F
:102E700030466A6801F03AFA202F65D0AC68083510
:102E800014F0803FEAD15FFA84FA514630466A680E
:102E900001F02CFABAF1200FC4F30729C4F3074755
:102EA0004FEA14644CD049463046AA6801F01EFA35
:102EB000B9F1200F40D039463046EA6801F016FAE1
:102EC000202F35D0214630462A6901F00FFA202CF8
:102ED0002AD01435BEE7002C42DBFF2F17D0043573
:102EE000B8E72302F7D5FF2FC4F3072430D03946C3
:102EF00030466A6801F0FAF9202F55D02146304655
:102F0000AA6801F0F3F9202C4AD00C35A2E7C4F3EB
:102F10000728B8F1020F02D0B8F1040F3DD13046B6
:102F2000043501F0E9F995E7304601F0E5F9D0E71D
:102F3000304601F0E1F9C5E7304601F0DDF9BAE7C6
:102F4000304601F0D9F9AEE7304601F0D5F995E702
:102F5000022C21D1304601F0CFF9A046043579E7A3
:102F6000394630466A6801F0C1F9202FC4F30729B9
:102F7000C4F3074424D049463046AA6801F0B6F9A4
:102F8000B9F1200F18D021463046EA6801F0AEF9B9
:102F9000202C0DD010355DE7A0464046BDE8F087F7
:102FA000304601F0A9F9B0E7304601F0A5F9A5E7F0
:102FB000304601F0A1F9EDE7304601F09DF9E2E776
:102FC000304601F099F9D6E72DE9F04FD0E96D517F
:102FD000876EC468A1EB050817F0200781462268B8
:102FE000A66987B04FEAE80851D1A942236947D0C2
:102FF00002F5BC718946DFF8C4A1083502F18C0BDB
:10300000019005E00137B84505F1080534D922687B
:1030100092F9C72103EB860E701C6ABB55E9022C9E
:103020001AF8021061B119F9021019B15BF82210F7
:103030006145E7D04FF0010109F802104BF822C0BA
:103040009A55E26A10F0030602F10102CEF804C0BC
:10305000E262D7D1E2692369013A1433012A23617C
:10306000E261CFD82046A6610137FFF75FFDB84582
:10307000236905F10805CAD8DDF80490D9F8B451E0
:10308000A6614023C9E96E5307B0BDE8F08FE36A3B
:103090004344E36292F9C731002BF2D136B3206981
:1030A000B8F1000FEDD0424605F1080302E0083305
:1030B000002E7CD053E90217013A815500EB8601BE
:1030C00006F101069C464F6006F0030608F1FF3842
:1030D000EDD11F46002ED4D10022E3691430013B0C
:1030E000012BC4E90623206163D93D465FEA980AB3
:1030F0004FF0000705D130E00137574505F12005B5
:103100002BD0236893F9C7313BBB1A462E68296937
:1031100066F30702AE68236966F30F2261F3174274
:10312000A96903F1140061F31F6243F8042B6A6874
:103130000292EA6803926A690492EA6905929DED37
:10314000027F83ED007FE3692061013B012BE36196
:10315000D2D82046FFF7EAFCCEE718F00308D9F8EA
:10316000B42122D0236808F1010893F9C73105F191
:10317000080105EBC808C3B9A8EB0108A8F1080EBF
:103180004FEADE0E0EF1010E4EF001E0A369206958
:1031900051E90256C5545D1C00EB83035E6005F0E7
:1031A00003030831A3610FF00DC8154669E76746B0
:1031B00092E72046FFF7BAFC3D4697E790D1000220
:1031C00038B50446FFF700FFE06882690369032A07
:1031D0000FD8DFE802F03326021940F2FF451A88C3
:1031E00003F1100142F0004242F400021A60DD6077
:1031F00001610022C369013B012BC0E9062323D9E9
:10320000002084F8C60138BD40F2FF451A6803F17A
:10321000140122F07F4242F000421A601D610161F8
:10322000E7E740F2FF451A7803F10C0142F08022F3
:1032300042F400021A609D600161DAE740F2FF4249
:1032400043F8042B0361D4E7FFF770FC002084F8F7
:10325000C60138BD38B50446FFF7B6FEE06882699E
:103260000369032A0FD8DFE802F03326021940F27F
:10327000FF251A8803F1100142F0004242F40002D7
:103280001A60DD6001610022C369013B012BC0E9C6
:10329000062323D9002084F8C60138BD40F2FF255B
:1032A0001A6803F1140122F07F4242F000421A60D2
:1032B0001D610161E7E740F2FF251A7803F10C0177
:1032C00042F0802242F400021A609D600161DAE758
:1032D00040F2FF2243F8042B0361D4E7FFF726FCFA
:1032E000002084F8C60138BD2DE9F041036882B0A2
:1032F0009D6E15F0010526D1D0E90274BC428046CE
:103300009E6912D0236830461BB1E2680AB11B697E
:103310001360A368626803EB830321699B00009537
:1033200007F000FE2468A742ECD10025D8F81C0065
:10333000A36862681B1A03EB8303216930469B0074
:10334000009507F0EFFD02B0BDE8F08103689A6ECA
:10335000D20720D42DE9F041D0E90264B4420746F7
:103360009D690BD0A368626803EB830304212846A0
:103370009B0007F0DFFD2468A642F3D1FA69A36839
:1033800028469B1A03EB830362680421BDE8F041E1
:103390009B0007F0CFBD704703689A6ED20726D412
:1033A0002DE9F041D0E90264B44207469D6911D08D
:1033B0002368042128461BB1E2680AB11B69136027
:1033C000A368226903EB83039B0007F0B3FD246825
:1033D000A642EDD1FA69A36828469B1A03EB830342
:1033E00022690421BDE8F0419B0007F0A3BD7047AE
:1033F0002DE9F0410C46064682B008681746FFF7F3
:10340000E3FDA2692369032A0FD8DFE802F0423501
:10341000022840F2FF311A88D96042F0004242F49B
:1034200000021A6003F1100222610021E369F26FC9
:10343000013BC4E90613002A55D06369002B46D02E
:103440006FBB00232046E361FFF770FBA26863694E
:10345000E260002B60D0186902B0BDE8F08140F254
:10346000FF311A68196122F07F4242F000421A606F
:1034700003F114022261D8E740F2FF311A78996013
:1034800042F0802242F400021A6003F10C02226131
:10349000CBE740F2FF3243F8042B2361C5E7002558
:1034A000206800F0F5F9E169A268D2E901235B1A0E
:1034B000616903EB830309699B00009507F032FD06
:1034C0002046FFF79FFC002318466362C4E7D6F846
:1034D000843020469A0730D4DB0629D5FFF75CFFFD
:1034E000002FAED0ECE7D4F80880D8F800508DB1AA
:1034F000A36A01333C2BA3629FD129462D6825B1D5
:10350000884629462D68002DFAD12068FFF7CCFAAD
:10351000C8F80050A56290E7D6F8843013F0120F77
:1035200002D01069002897D1206902B0BDE8F0816F
:10353000FFF70CFF002F84D0C2E7FFF7D5FE002F66
:103540003FF47FAFBCE700BFB1F9342010B5002ACB
:103550000C46086B03DD0021920008F067FB002396
:10356000E38610BDB1F934002DE9F041B1F93650D0
:10357000431EAB420C4617460E6B09DD4FEA850829
:103580006B1C46F8257006EB0800E386BDE8F08169
:10359000103000B201223146A086800002F032FED7
:1035A000B4F93420064695422063E7DA521B002125
:1035B000920000EB85004FEA850808F037FBDFE753
:1035C0002DE9F8430027D0F87C8006460C460860B9
:1035D0004F61B8F1000F6BD0D8F8003020204B605D
:1035E00002F00CFE0546606100285ED0D8F80800A5
:1035F000800002F003FE81462860002855D0D8E9FB
:103600000121D6F888306A6103FB02F26960AA6082
:1036100079B101239942076009D001F1FF3E4EF0D4
:1036200001E0296841F8237001330FF007C0D5F895
:10363000009002EB82020421B069C5F80C90920060
:1036400007F062FCC9F800002B681B686BB369685F
:103650006A6960682B61E961AA61E06028B30023B0
:10366000102245688168A060C4E906314020C4E9A1
:103670000A332561A28602F0C1FD2063A8B1636907
:10368000DBB11B681D68B4F93420002A03DD00217A
:10369000920008F0CBFA00232A4621463046E38602
:1036A000FFF760FF0120BDE8F8830020BDE8F88344
:1036B0001146FFF7B7F96060CFE7D6F8842063685A
:1036C00012F0120F02D01D69002DDCD15D68DAE71F
:1036D000F8B505464FF4EA7002F090FD0446002864
:1036E00057D000264FF0000202234FF40011A0F83B
:1036F000C621C0E90666C0E91236856641650665E1
:10370000FEF732FEA6EE100B6A0684ED087F03D4A6
:10371000702002F073FD0646002315F0040F0CBF65
:1037200005210421C4E90D33C4E90F33C4E91B3377
:1037300084F8C63184F8C43163646367A4F87830D0
:10374000636180EF50602B074FF033004FF00005AE
:103750004FF0010748BF21F00401221D2663676670
:1037600082ED007F40F22712C4F88800E16504F181
:103770008C0029462566E56708F058FA0822064BB2
:10378000C4F88050196884F8C851216084F8C521B4
:103790001C602046F8BD00BF90010022034630B1F6
:1037A00090F9C60108B993F9C70100F015BC0220D1
:1037B00000F012BC70B5044600F072FDA061002854
:1037C0005ED03B22002104F5BC7008F02FFAE56FB3
:1037D0007DB1D4F888102046FFF724F90646D4F8C6
:1037E000881020462E60FFF71DF92B6830601A689C
:1037F0001360D4F888202046114603F087F803466A
:10380000D4F8882023611146204603F07FF822690E
:1038100003466061F2B1E8B10025C4E902226360A9
:103820004FF40070656302F0E9FC184B4022C4F8C5
:10383000C03103460A21C4E96D33A069C4F8BC2134
:1038400084F8C95107F0DCFA48B9002384F8C6317E
:10385000184670BD012384F8C631184670BDFF2399
:103860002A460A21A06907F0A1FA2A460A21A0697E
:1038700007F0B8FAFF2804BF012384F8C931E4E750
:10388000052384F8C631184670BD00BFC92F000259
:1038900080697047002839D038B5436E04468B42A2
:1038A0000D460DD0082B10D008291FD003F03CF98D
:1038B000626A92F80E31656643F0010382F80E31B8
:1038C000002384F8C631184638BD426A616692F812
:1038D0000E3143F0010382F80E3103F013F9082D85
:1038E0000CD0002384F8C631184638BD426A6166A0
:1038F00092F80E3143F0010382F80E31204603F0B6
:10390000E3F8002384F8C631184638BD022070471A
:1039100040B110B5044600F0F9FC002384F8C6312C
:10392000184610BD022070472DE9F04F89B0DDE93F
:10393000127C149C07FB07FED4F810411CF0010F09
:1039400008BFA346804618BF4FF0000B03FB03E0FF
:103950001CF0020F1D4608BFA2468946164618BF36
:103960004FF0000A02F0D2FB159B240194FBF0F407
:1039700003B11C60784204FB00F005FB04F44D44E5
:10398000241104FB05F50011374400FB1755149B67
:10399000C9F10001D3F810210AEB2513029300FBB3
:1039A00001F304FB163300FB06F604FB0166CDE9C8
:1039B0000504520802EB23120BEB2616049207961D
:1039C0009DED045F43460094424264420394019299
:1039D0009DED007FA3EC045F83ED007FC8F820001D
:1039E00009B0BDE8F08F00BF2DE9F04F89B0DDE9E7
:1039F00012B60BFB0BFC6FEA0609804603FB03C003
:103A00001D468A461746149C02F080FB4FF4801333
:103A100086F00206C6F340064FEA094993FBF0F030
:103A2000360409F4803904B12060CBF1000300FBB7
:103A300003F300FB05F41B115544CAF1000A03FB14
:103A40000AF2241104FB1722BB4403FB07F704FB13
:103A50000A77CDE90534121102F5004209EB271768
:103A6000049207979DED045F424604FB05F503FBB6
:103A70001B55009406EB25165942644202960191AB
:103A800003949DED007FA2EC045F82ED007FC8F8F7
:103A9000203009B0BDE8F08F2DE9F04F89B0DDE9A5
:103AA0001245EF4385F0020CCCF3400C3F04002B91
:103AB000DDF850904FEA0C4C07F4803704EB020518
:103AC00003EB01084ADB002C23DBC2F1000AA3420E
:103AD0004FEA0A3A69DD5E42240494FBF6F402FBE5
:103AE00004FE04FB05F501FB04F64FEA2E1E2D1122
:103AF000C5EB0835AEEB013EAAEB2616C4F1000873
:103B0000B9F1000F01D0C9F800304FF480337D497E
:103B100065E0C4F1000A4E429A454FEA063BC0F206
:103B200096801B0493FBFAF301FB03FE08FB03F8EA
:103B300002FB03F62D034FEA2E1EC5EB2815CEEB34
:103B4000023EABEB26165942B9F1000F01D0C9F87D
:103B500000A04FF48034DFF8AC8140E0002CC0F2CC
:103B600091805E42A6424FEA013A52DD240494FB62
:103B7000F3F401FB04F604FB05F502FB04FE4FEA37
:103B80000838C8F100083611A8EB2515C6EB023637
:103B90000AEB2E1EC4F10008B9F1000F01D0C9F8DC
:103BA00000304FF48031574B19E01B0493FBF4F3C2
:103BB00003FB02F2121108FB03F8C2EB013603FB10
:103BC00001F12D03AAEB211E05EB28155942B9F18D
:103BD000000F38D04FF48038C9F80040494C06F542
:103BE0000046CDE904647744079706939DED045F92
:103BF00002466544CDE90251CDF8048000939DED65
:103C0000007FA2EC045F82ED007F046209B0BDE892
:103C1000F08F1B0493FBF4F301FB03FE02FB03F69E
:103C200008FB03F82D03C2F1000B4FEA2E1EAAEB8E
:103C3000261605EB2815CEEB0B3E5942B9F1000FC5
:103C400001D0C9F800404FF480382E4CC7E75E42DF
:103C5000240494FBF6F401FB04F604FB05F502FBD7
:103C600004FEC2F1000A36112D11C5EB08350BEB2D
:103C70002E1EC6EB0A36C4F10008B9F1000F7FF41E
:103C800042AF42E7A3424FEA023E1EDA240494FB0D
:103C9000F3F401FB04F604FB05F5AEEB261602FB7C
:103CA00004FE4FEA0838C8F100084FEA013AA8EBD1
:103CB00025150AEB2E1EC4F10008B9F1000F3FF4E0
:103CC00070AF5B42C9F800306BE764421B0493FBA2
:103CD000F4F302FB03F6C1F1000A08FB03F803FB4F
:103CE00001F12D033611AEEB211EC5EB2815C6EBF5
:103CF0000A365942B9F1000F3FF42BAFC9F8004022
:103D000027E700BF0000FFFF10B4002B019C2CDB55
:103D1000002C16DBA34238DD240494FBF3F44FF4AB
:103D2000803304FB01F112036442C2EB2111029AB9
:103D3000C0E90143002A51EA01915DF8044B01609A
:103D40007047C4F1000C194422449C4512B209B2D8
:103D5000E2DB1B0493FBF4F303FB02F209034FF4D1
:103D600080345B42C1EB2211E1E7002C22DBC3F17E
:103D7000000CA44514DD240494FBF3F404FB01F1CE
:103D80000911104BC1EB0231D1E71B0493FBF4F393
:103D900002FB03FC4FEA2C1C0A4CCCEB0131C6E7BA
:103DA0001B0493FBF4F303FB02F21211054CC2EB6C
:103DB0000131BCE719442244A34212B209B2DADD50
:103DC000C7E700BF0000FFFF2DE9F043002BDDE94E
:103DD000075EDEF8104138DB002D1EDBAB424ADC0B
:103DE0004FEA034C9CFBF5FC8CFB04631F4656EA30
:103DF0002F4702FB0CF212116542C2EB0132BEF9F1
:103E00001430120192FBF3F204EBD47302EB630261
:103E1000C0E901560260BDE8F0836E4219442A44AD
:103E20009E4212B209B247DA2D0495FBF3F585FBE9
:103E30000483994658EA2F4901FB05F51203C2EBAA
:103E400025122646C8F10005D9E7002D44DB5F4264
:103E5000AF42C4F100061FDD2D0495FBF3F585FB91
:103E60000483994658EA2F4901FB05F52D11C5EB4E
:103E700002324546C3E72D0495FBF3F383FB04852B
:103E8000A94658EA2F4901FB03F312032646C2EB69
:103E90002312C8F10005B2E71B0493FBF5F3354686
:103EA00083FB0486B14658EA2F4903FB02F2121144
:103EB0004646C2EB0132A2E71B0493FBF5F383FBFA
:103EC00004652F4656EA2F4703FB02F209032546F5
:103ED000C1EB2212764292E719442A44AB420FFA10
:103EE00082FC09B20FDD1A0492FBF5F282FB046337
:103EF0001F4656EA2F470CFB02F209032546C1EB89
:103F0000221276427BE72D0495FBF3F585FB0483B3
:103F1000994658EA2F4901FB05F52D11C5EB0C32E6
:103F2000664245466BE700BF10B4019C002C03DAE3
:103F30001944224409B212B204FB01F103FB12122C
:103F40001B0383601302029A6442002A53EA03931C
:103F5000240303F50043446003605DF8044B70479D
:103F60002DE9F041069D0646002D0C4690461F4661
:103F700004DA1C44A84424B20FFA88F805FB05F0C3
:103F800007FB070002F0C2F84FF48013B3FBF0F018
:103F90006D4200FB05F500FB07F72D11644205FBA0
:103FA00004F43F1107FB1842079B1211002B52EA41
:103FB000029202F50042C6E901573260BDE8F08185
:103FC0008268036810B401FB0233544284600360CA
:103FD0005DF8044B704700BF16289ABF024B53F898
:103FE00020000248704700BFD0D100029CBF0002F1
:103FF0002DE9F0410D46B1F9141004466868891A9C
:1040000000FB01F1B5F91620069FD21AAB6803FB3D
:1040100002132A681B11591C12F0080F18BF0B4617
:1040200012F0100FA3F5803118BF0B46510751BF96
:10403000012640F20126A3F5004303F1FF335206A7
:1040400006FA07F604D54FF4003279088A40164381
:10405000C3F10008079BD4E96EC207F1040E013AD0
:104060000CF1080143BB002AC4F8B811CCE900E800
:10407000C4F8BC2155DD013A01F10803C4F8B83198
:10408000002A486007F10A000860C4F8BC2141DD3D
:10409000A9681037013A03F10800002AC4F8B801F2
:1040A000C3E90071C4F8BC2103DC2046D4F8C03158
:1040B00098473046BDE8F0814FEA8813002AC4F8DB
:1040C000B811CCE900E3C4F8BC211BDD8001013A42
:1040D00001F10803C4F8B831002A486007F10A006A
:1040E0000860C4F8BC2103DDA96810378901D1E755
:1040F000D4F8C03120469847D4E96E32A968103709
:104100008901C7E72046D4F8C0319847D4E96E1238
:104110006868DBE7D4F8C03120469847D4E96E32AE
:10412000B6E72046D4F8C0319847D4E96E126868E3
:10413000A1E700BF002380EF5060036080ED017FA6
:10414000436170472DE9F0411D464B7E0C46D9076F
:104150008046174682B011D5E269D20706D5052DF3
:10416000089E6CD9304602B0BDE8F081042D00F203
:104170008480089A023522F4000208929E0738D4FF
:10418000089EA37D990719D5627E520716D5E26C69
:10419000D00777D5052DE5D806F080730193B7F9E0
:1041A000023000954046B7F9002004F14C01FFF7BA
:1041B0001FFFA37D3043013520F400065907D1D5F8
:1041C000637E1A07CED5636EDB0762D5052DC9D88D
:1041D00006F080730193B7F90230B7F9002040462A
:1041E000009504F16401FFF703FF304320F400065B
:1041F000B8E7636BD8071BD5052D089EB2D806F02B
:1042000080730193B7F9023000954046B7F900205A
:1042100004F13401FFF7ECFE636B304320F4000639
:1042200013F0400F20F4400018BF06460135A8E700
:10423000042D22D8089B023523F40006A1E706F0DE
:1042400080730193B7F902300095B7F9002004F1AB
:104250001C01FFF7CDFEE369013513F0400F089B09
:1042600040EA030020F4000220F4400018BF024698
:10427000637E08929E0783D5BBE7089E304602B056
:10428000BDE8F081042D3FF66DAF26F4000602353F
:1042900094E726F40003052D38BF1E4662E700BFF1
:1042A00038B50546084606F04FFD0446B8B1012270
:1042B000114606F097FD420144BF012385F8C8313D
:1042C0008303C5F880000CD5312201212046EB6D17
:1042D00006F06CFD204606F01FFEC5F8840020465F
:1042E00038BDAB6E43F00103AB66EDE78C46134679
:1042F0000121624606F05ABD10B504460022012194
:10430000204606F06FFDC307F8D410BD38B5836EA4
:1043100005468469D8070AD501210022204606F007
:1043200061FD8107F8D138BDAB6E9A0707D5002231
:104330000121204606F056FD0307F5D4F3E7C82215
:104340000421204606F090FDF1E700BF70B50B6B2D
:104350004C68816E0546C90786690CD41A684AB153
:1043600090F9C91191B13046BDE870403222012167
:1043700006F01CBD70BD5AB9002CFBD02846616800
:10438000FEF762FD0328F5D02468F5E71346EAE757
:104390001968BDE87040FEF757BD00BF2DE9F04F2A
:1043A000ABB0BDF9D0E0BDF9D4C0AEEB0209ACEBC7
:1043B000030A0D4659EA0A01BDF9D880379F00F07B
:1043C000278295F8D6B008F10F010446BBF1010F22
:1043D0004FEA61000F90089000F0308217F400510E
:1043E000099140F01982099914911FFA8EF1B9F1DF
:1043F000000FBDF820600C9192B240F33D820F3166
:104400003144901B21F00F0120F00F0009B200B2DF
:10441000ADF87410ADF870001FFA8CF198B2BAF1D3
:10442000000F0B910A9040F31B8201F10F033344FC
:10443000811B23F00F0321F00F011BB209B2ADF86D
:10444000721020461CA90792ADF8763004F06CF883
:10445000002800F0DD81BDF87030079AB8F12F0F09
:10446000A2EB030213B20D930A9ABDF872301793B0
:10447000A2EB03031BB20E9304DCBBF1020F08BFD7
:104480004FF0010B07F0010195F8D53007F003025A
:104490001091032A07F0020103F00303119100F0C9
:1044A000A382032B00F02284DDE90D121EAB184617
:1044B0001593B8F11F0F19AB0293CDE900A74B4636
:1044C00040F3E681FFF790FA1E9BBBF1010F03EB6F
:1044D000C8231E934FEA0833139300F0CE82294677
:1044E000204602F027FBD5F82831BAF1000F1293CD
:1044F00040F32E824FEAD9730793AB7D129ADFF80F
:10450000289B02F4185213F0060F42EA090916D04C
:10451000099ABBF1020F14BF02230523002A18BF1A
:104520000523CDF80090294620461CAAFFF70AFE75
:1045300010F4000F079B08BF00238146079395F8EE
:10454000D42093072ED50D9B2399A5F890300E9B70
:10455000D5F8D000A5F892302123EB6795F80E31FD
:10456000090143F0080312F0080F85F80E3191FBA2
:10457000F0F1229B00F09F825B421B0193FBF0FC59
:104580000B46D5F8CC10C5E9203C52074FEA013361
:10459000C5F8883006D5199B1B0193FBF0F30B443B
:1045A000C5F8CC3029462046079B1CAA01F0A8FE7E
:1045B00029462046079B1CAA03F0F4F8BBF1020F22
:1045C00000F0CF81109B002B40F01482119B002B38
:1045D00040F076829846169317F4C05F14D03905E0
:1045E00005D521AB93E80700389B83E80700FA0460
:1045F00005D5389B24AA0C3307CA83E807001CABF7
:1046000003CB399B18605960079B0A93002B40F03D
:104610001F82099BA3B1149B03F5803ABB0506D505
:104620003A9BD3E9002352EA030140F003847B055F
:1046300006D53A9BD3E9022352EA030140F09E8358
:10464000D4E96E730422013B1E9807F10801002B88
:10465000C4F8B811C7E90020C4F8BC3105DCD4F8AF
:10466000C03120469847D4E96E130A27013B1F98B2
:1046700001F10802002BC4F8B821C1E90070C4F8A8
:10468000BC3105DCD4F8C03120469847D4E96E230C
:104690001027013B209802F10801002BC4F8B81143
:1046A000C2E90070C4F8BC3105DCD4F8C031204642
:1046B0009847D4E96E13219801F10802C4F8B82193
:1046C000013B4860B8F1000F00F0E5800820002BA6
:1046D0000860C4F8BC3105DCD4F8C03120469847E6
:1046E000D4E96E230E26013B229802F10801002B2B
:1046F000C4F8B811C2E90060C4F8BC3105DCD4F8D4
:10470000C03120469847D4E96E131426013B239804
:1047100001F10802002BC4F8B821C1E90060C4F817
:10472000BC3105DCD4F8C03120469847D4E96E236B
:104730000526013B249802F10801002BC4F8B811AA
:10474000C2E90060C4F8BC3105DCD4F8C0312046B1
:104750009847D4E96E130B26013B259801F1080216
:10476000002BC4F8B821C1E90060C4F8BC3105DCF5
:10477000D4F8C03120469847D4E96E231126013B76
:10478000269802F10801002BC4F8B811C2E90060B4
:10479000C4F8BC3105DCD4F8C03120469847D4E9D0
:1047A0006E131620013B139E01F10802002BC4F882
:1047B000B821C1E90006C4F8BC3105DCD4F8C03129
:1047C00020469847D4E96E230021013B02F10800FE
:1047D0008B42C4F8B801C2E90019C4F8BC3103DC4B
:1047E0002046D4F8C03198470F9B089E20461E44AF
:1047F0000F36079B361132461CA9002B00F0A5800E
:1048000002F0EEFCBBF1020F00F06181012000E03C
:1048100000202BB0BDE8F08F95F8D7104FEA680064
:10482000042900F03F81B5F9D810014401EB810063
:104830000903149140F38F010891D6E507F00301B5
:1048400003293FF4CBAD00EB4001C0EBC10141F3C4
:104850000F11089117F4005109913FF4C4ADDBE743
:104860000A9B0B990F333344891B23F00F0321F06C
:104870000F011BB209B2E2E50C9802F10F013144BD
:10488000801B21F00F0120F00F0009B200B2BFE53C
:10489000FFF702F918E60520002B0860C4F8BC31C8
:1048A00005DCD4F8C03120469847D4E96E230B26A6
:1048B000013B229802F10801002BC4F8B811C2E9AB
:1048C0000060C4F8BC3105DCD4F8C03120469847FC
:1048D000D4E96E131126013B239801F10802002B45
:1048E000C4F8B821C1E90060C4F8BC3105DCD4F8D3
:1048F000C03120469847D4E96E230826013B24980E
:104900009119002BC4F8B811C2E90060C4F8BC3199
:1049100005DCD4F8C03120469847D4E96E130E2642
:10492000013B259801F10802002BC4F8B821C1E928
:104930000060C4F8BC3105DCD4F8C031204698478B
:10494000D4E96E231426013B1AE702F0BBFB59E7BA
:1049500000F01082B9F1000FD4BF002301230793A8
:10496000CBE508F11008109B4FEA68021692002B65
:1049700000F072810C99BDF87030CB1A07991BB208
:10498000002940F0E181BDF872100B98411A09B27C
:1049900003EB420000289C464FF0000B4FEA420216
:1049A0001DDD4FF001088818002813DDBDF97400E3
:1049B000BDF970E0ACEB020CA0EB0E00844509DA07
:1049C000BDF97600BDF972C08A1AA0EB0C008242D4
:1049D000C0F21183109B13B3B8F1000F0CD04FF04D
:1049E000010849F400590BE0032B00F077824FF0E7
:1049F000000B59E5002316934FF0000849F4806935
:104A0000BB0500F14881219BBAF1000F03F500427C
:104A100002F1010203F50043C8BF13462193119B25
:104A2000002B3FF4D9ADB8F1000F4BD049F48069A9
:104A3000780500F14081249BBAF1000F03F5004294
:104A400002F1010203F50043D8BF13462493C3E5E6
:104A5000BDF97220BDF9763015989B1A1B111E46C0
:104A600019460A93FFF7ACFA314621A8FFF7A8FAD6
:104A7000314624A8FFF7A4FACBE5109B33B9139A6B
:104A8000219BA2F5803203EB62032193119B002B43
:104A90007FF425AD139A249BA2F5803203EB6203C9
:104AA00024931CE5089901EB810141F38F010891E2
:104AB0000103149199E41B0193FBF0F38C4660E52C
:104AC000109B16934FF0000849F40059B0E70022FC
:104AD000DDF858800C991FFA88F31AAFA1EB03098F
:104AE00001F10F0E394617460B989E4400F10F0C4A
:104AF0009C4469F30F02C31A6EF30F0763F31F425E
:104B00006CF31F4722F00F1227F00F1720461A925E
:104B10001B9703F009FD00283FF478AE00270B989F
:104B2000BDF86A300C99C31A1BB20093BDF8683007
:104B30002046CB1A3A4629461BB2CDE90377CDF879
:104B400004800297FDF7B8FD129BDFF8E09403F4B0
:104B50000073294620461AAA43EA09093B4601F098
:104B6000CFFB3B46294620461AAA02F01BFEAB7D2E
:104B700013F0060F40F02B82BDF96830BDF97020AC
:104B8000BDF96A109B1A4FEA231CBDF972302698B2
:104B9000C91A079B09111BB10A9B4042C91A2690EA
:104BA0000625249B259F5A420CFB172200FB11224D
:104BB000D4E96E13013B02F1011201F10800002B50
:104BC000C4F8B801C1E90052C4F8BC3106DC204683
:104BD000D4F8C0319847D4E96E03259F0C25013BDA
:104BE0007F4200F10801002BC4F8B811C0E900575A
:104BF000C4F8BC3105DCD4F8C03120469847D4E96C
:104C00006E131225269A013B5042002B01F1080237
:104C1000C4F8B821C1E90050C4F8BC3105DCD4F8AF
:104C2000C03120469847D4E96E230021013B02F1B0
:104C300008008B42C4F8B801C2E90019C4F8BC31BD
:104C400003DC2046D4F8C031984720461AA946F321
:104C50000B1202F037FAD9E5079B0E9953B1BDF854
:104C60007630179919440B46BDF872105B1A0A99F1
:104C70005B1A19B2119800286CD00D984FF0000BF8
:104C800000EB4203002B84464FEA42027FF71AAF43
:104C9000D8460D9B87E60023DDE90D1201933A9B70
:104CA00021A85B6800933A9B1B68FFF73DF97300EE
:104CB0001BB20893B3E60123BDF8722001930B9B4E
:104CC000BDF870109A1A0C9B12B2591A3A9B09B28D
:104CD000DB6824A85B4200933A9B9B685B42FFF72A
:104CE00023F9089B5B001BB2089375E41EAB1846C2
:104CF000DDE90D12159319AB0393CDE901754B4610
:104D0000CDF800A0FEF710FED5F810311E9908FB73
:104D100003F2BBF1010F01EB62111E914FEA221168
:104D20004FEA621209D1109810B9219810442190CD
:104D3000119810B92498104424905B08A3F580338F
:104D40000B441393FFF7CBBBBDF876100B98091AF1
:104D500009B21DE60D9BDDF834E003EB4203002BA6
:104D6000F446804649F400594FEA42027FF734ACDA
:104D7000734618E6CDF81CA0FFF7BFBB00920022D7
:104D80000B990192BDF872200C988A1ABDF8701028
:104D90005B42411A129812B200F4805040EA0900B6
:104DA00009B240F0080927A8FFF7DAF8079B002BA3
:104DB00040F01781D4E96E033E04279A03F1FF33D4
:104DC00000F1080140F1D9805244C4F8B8114260A2
:104DD0000722002B0260C4F8BC3105DCD4F8C031D6
:104DE00020469847D4E96E130D27013B289801F11E
:104DF0000802002BC4F8B821C1E90070C4F8BC3126
:104E000005DCD4F8C03120469847D4E96E2313203E
:104E10002999013B02F10807002BC4F8B871C2E9D7
:104E20000001C4F8BC313FF70DAC2046D4F8C031C6
:104E3000984705E4002001901298009200F4006069
:104E400040EA09005B4240F00409DDE90D1227A8A1
:104E5000FFF786F8079B002B40F0C880D4E96E036B
:104E60007E04279903F1FF3300F1080250D4514426
:104E7000C4F8B82141600621002B0160C4F8BC31A0
:104E800005DCD4F8C03120469847D4E96E230C20C5
:104E9000013B289E02F10801002BC4F8B811C2E9B9
:104EA0000006C4F8BC3105DCD4F8C0312046984770
:104EB000D4E96E131222013B299E01F10800002B58
:104EC000C4F8B801C1E90026C4F8BC313FF7AFAB64
:104ED0002046D4F8C0319847FFF7A9BB1EAB18464F
:104EE000DDE90D12159319AB0393CDE901754B461E
:104EF000CDF800A0FEF718FDD5F810311E9A08FB7A
:104F000003F102EB61124FF0000B1E92091114E73E
:104F1000AAEB0101C4F8B82141600621002B016011
:104F2000C4F8BC3105DCD4F8C03120469847D4E938
:104F30006E230C262899013B4842002B02F1080100
:104F4000C4F8B811C2E90060C4F8BC3105DCD4F87B
:104F5000C03120469847D4E96E131220299A013BAC
:104F6000524201F10806002BC4F8B861C1E9000201
:104F7000C4F8BC313FF75BABAAE7AAEB0202C4F866
:104F8000B81142600722002B0260C4F8BC3105DC76
:104F9000D4F8C03120469847D4E96E130D27289ADB
:104FA000013B5042002B01F10802C4F8B821C1E9CD
:104FB0000070C4F8BC3105DCD4F8C03120469847F5
:104FC000D4E96E2329991320013B494222E7CDF809
:104FD00000902946032320461AAAFFF7B3F881461A
:104FE000CAE50A9927A8FEF7EBFFE3E60A9927A886
:104FF000FEF7E6FF32E74FF0000C169A009101929F
:10500000294602222046CDE903CCCDF808C0FDF7A1
:1050100053FB129B03F4006343EA090343F4801932
:1050200049F08409D6E400BF1380C0004508400061
:105030004FF0000C2DE9F0479EB2634688B0BDF9F1
:1050400040501FFA82F91035C5F34F07884609F121
:105050000F013944A9EB070E06F10F023A4461F340
:105060000F03F71B6EF30F0C67F31F4C62F31F4324
:105070002CF00F1723F00F1306A904460697079389
:1050800003F052FA10B908B0BDE8F0870022BDF86D
:105090001A306D10F61A36B2BDF818300195009628
:1050A000D8F82861A9EB030341462046CDE9032245
:1050B0001BB20292FDF700FB06F4007242F480027C
:1050C00042F04102022300924146204606AAFFF721
:1050D00039F8119B0F3506462D09002B5BD0139B29
:1050E000BDF91A20B3F90090BDF91830A9EB0309F6
:1050F000139B4FEA2919B3F902309B1A4FEA231A7E
:10510000119BDA0776D40227119B9B0744D5072110
:10511000129BDB68C3F58032129BD3F810C058692C
:1051200009FB0C22D4E96EE300FB0A22013B0132A9
:105130000EF10800002BC4F8B801CEE90012C4F843
:10514000BC3140F3B480CCF100014FF00D0C013BB9
:1051500000F10802002BC4F8B821C0E900C1C4F86E
:10516000BC3140F3888013201299013B496902F158
:10517000080C4942002BC4F8B8C1C2E90001C4F8C8
:10518000BC3173DD032F46F480560CBF0427022781
:1051900046F0080600E002273B464146009606AA74
:1051A0002046FEF7CFFFD4E96E230021013B02F138
:1051B00008068B42C4F8B861C2E90010C4F8BC31DB
:1051C00003DC2046D4F8C03198474146204606AA61
:1051D000002301F095F800234146204606AA02F07C
:1051E000E1FA20462A4606A901F06CFF012008B02A
:1051F000BDE8F0870621129B1B68C3F58032129B25
:1052000058689B6809FB002203FB0A22D4E96EC39D
:10521000013B01320CF10807002BC4F8B871CCE94E
:105220000012C4F8BC3139DD0C22013B404207F1C9
:105230000801002BC4F8B811C7E90020C4F8BC313C
:1052400025DD1220129A013B926801F108075242B3
:10525000002BC4F8B871C1E90002C4F8BC3111DDFB
:1052600046F40066032746F004064DE72046D4F8CE
:10527000C031984786E7D4F8C03120469847D4E932
:105280006E2370E72046D4F8C0319847E8E7D4F899
:10529000C03120469847D4E96E13D2E72046D4F8AF
:1052A000C0319847129B5868D4E96E73BCE720461A
:1052B000D4F8C0319847129BD3F810C0D4E96E03DC
:1052C00041E700BF2DE9F04FADB0BDF9E040BDF9B9
:1052D000D850BDF9DCA00994BDF9E440CDE9105ADD
:1052E0000F950894AD1A0446AAEB0300069355EAFD
:1052F00000030C9203D100202DB0BDE8F08F00FB1D
:1053000000F091F8D63005FB05008946079300F0C0
:10531000FDFE4FF0807393FBF0F3069A03FB05F557
:10532000A2EB0A0603FB06F6099936122D1206FBBC
:1053300001F805FB01F70899159306FB01FB05FB36
:1053400001F20C994FEA6B4301EB68404FEA684C5D
:10535000A1EB68480699129353144FEA674E1393D2
:1053600001EB6743A1EB67470F990D9001EB6B4091
:10537000A1EB6B410B910AEB624BAAEB6241079ADE
:105380000E90022A0A9100F0CF823A9A02F00302AC
:10539000032A00F04F83079A012A1AD13A9AD007BC
:1053A00007D40D9AA8EB0E08A2EB0E020D926344EF
:1053B00067443A9A91070CD413990E9A0A440E92B4
:1053C0000B9A0A440B9212990A9AABEB010B521AF0
:1053D0000A92DDE90D129142A8BF11460B9A42458F
:1053E000A8BF42469142ADBF22F00F0221F00F014B
:1053F0000AB212B2ADF87820DDE90D129142B8BFC1
:1054000011460B9A4245B8BF4246914240F347824B
:105410000F3121F00F010AB2ADF87C200A9A5B45EA
:105420001946A8BF5946BA42A8BF3A469142ADBFF5
:1054300022F00F0221F00F010AB212B2ADF87A2069
:105440000A9A5B451946B8BF5946BA42B8BF3A46B0
:10545000914240F31F820F3121F00F010AB2204622
:105460001EA91293ADF87E2003F05EF800283FF4E9
:1054700042AFDDE90D23D31ABDF87AC00D93129B1C
:10548000BDF87800A3EB0B01A3EB0C030FFA83FE2E
:10549000069B121AA3EB0C030FFA83FB0F9BAAEBDC
:1054A0000C0C1B1A1BB205FB03F30FFA8CFC06FB5A
:1054B0001C331B1103F500431B930E9106FB0BF3EA
:1054C00011B20C9A2596101A00B205FB10331B116D
:1054D000764203F5803319951A9618939DED187F3F
:1054E0001FFA88F212920B9A99F8D530A2EB0802B3
:1054F00013920A9A03F00303D21B6D42032B1492FA
:105500008DED207F724616902495BEB200F0B082D9
:1055100000250E9B0195009326AB184617930D9B13
:10552000FEF7F2FB1298BDF87A20BDF87810149BB4
:10553000411AB21A009329A8139B019512B209B21D
:105540001290FEF7E1FB269B03F500432693299B6F
:1055500003F5004329933A9B03F00106079B012BB7
:1055600000F06B824946204601F0E4FA079BD9F827
:105570002851022B0BD145F40073002E08BF1D46A5
:105580003A9B13F0020F45F4806308BF1D4699F85B
:10559000D42093072DD5169BD9F8D000A9F89030C8
:1055A0002123C9F87C3099F80E3112F0080F43F02E
:1055B000080389F80E31229B21994FEA031393FBCC
:1055C000F0F3A9F892B000F094824942090191FBEE
:1055D000F0FCD9F8CC10C9E9203C0B03C9F888309D
:1055E000530706D5159B1B0193FBF0F30B44C9F839
:1055F000CC300A9B9F4240F357810B9BA8EB0303DF
:105600000D930D9B002BC0F2598100234946204683
:105610001EAA00F075FE0023494620461EAA02F08D
:10562000C1F8069B9A4580F286824FF00008BDF9CA
:105630007A30AAEB0303DDE908128A42B8BF0A46B2
:1056400099F8161005F4F05742F30B1247F440078F
:10565000D31811F0060F47F00F070A9340F0458169
:10566000002E00F0528100230B9301230D93089B21
:1056700043F34F030E93C346B8F1000F40F0158279
:10568000D4E96E130020013B01F108028342C4F803
:10569000B821C1E90007C4F8BC3105DCD4F8C03139
:1056A00020469847D4E96E2399F8D51001F00301FC
:1056B000032900F0938120990425013B02F10800A1
:1056C000002BC4F8B801C2E90051C4F8BC3105DCB4
:1056D0002046D4F8C0319847D4E96E030A25013B2F
:1056E000219A00F10801002BC4F8B811C0E900525A
:1056F000C4F8BC3105DCD4F8C03120469847D4E961
:105700006E131025013B229801F10802002BC4F80A
:10571000B821C1E90050C4F8BC3105DCD4F8C0316F
:1057200020469847D4E96E230525013B239802F1D2
:105730000801002BC4F8B811C2E90050C4F8BC310C
:1057400005DCD4F8C03120469847D4E96E130B2508
:10575000013B249801F10802002BC4F8B821C1E9EB
:105760000050C4F8BC3105DCD4F8C031204698475D
:10577000D4E96E231125013B259802F10801002B85
:10578000C4F8B811C2E90050C4F8BC3105DCD4F843
:10579000C03120469847D4E96E130625013B269870
:1057A00001F10802002BC4F8B821C1E90050C4F887
:1057B000BC3105DCD4F8C03120469847D4E96E23CB
:1057C0000C25013B279802F10801002BC4F8B81101
:1057D000C2E90050C4F8BC3105DCD4F8C031204621
:1057E0009847D4E96E131225013B289801F108026D
:1057F000002BC4F8B821C1E90050C4F8BC3105DC65
:10580000D4F8C03120469847D4E96E230725013BE0
:10581000299802F10801002BC4F8B811C2E9005020
:10582000C4F8BC3105DCD4F8C03120469847D4E92F
:105830006E130D25013B2A9801F10802002BC4F8D4
:10584000B821C1E90050C4F8BC3105DCD4F8C0313E
:1058500020469847D4E96E231321013B2B9802F18F
:105860000805002BC4F8B851C2E90010C4F8BC31D7
:1058700003DC2046D4F8C031984720460A9A1EA976
:10588000B8F1000F63D001F0ABFC079B022B63D093
:10589000012031E50F3222F00F0212B2DFE50F32A4
:1058A00022F00F0212B2B7E50E9B002B3FF7A9AE14
:1058B0003FF4ABAE0D9B002B7FF7A7AE012349460B
:1058C00020461EAA00F01CFD01231EAA49462046C0
:1058D00001F068FF069ABDF97E3092454FF001084D
:1058E000B4BF9B1AA3EB0A03A5E60097042349461D
:1058F00020461EAAFEF726FC10F4000F074608BF3C
:105900004FF00008002E7FF4AEAE3A9B13F0020376
:1059100000F0F480069B0B9611930C9B0D96109350
:10592000099B5B100E93A6E6099A0899302A3A9AC9
:10593000B8BF42F001022F293A9202F0030240F36D
:10594000CC80033A18BF01225200079241E501F0D2
:10595000B9FB079B022B9BD100231E46BDF83810D4
:10596000BDF84050BDF8442005EB010C8F186D1AAE
:105970000CF10F0C521A0F3765F30F036CF30F067F
:1059800062F31F4367F31F4623F00F1326F00F1631
:1059900020461CA91C931D9602F0C6FD002840F06D
:1059A000E1800B9B002B3FF473AF20463C9C0D9B8A
:1059B00003943B9C012B0294DDE908534FF0010452
:1059C00008BF1D460C99069B0F9A14BF53460A4602
:1059D000009549460194FFF72BFB59E707990229E7
:1059E0003FF469AEAE0520990FD4219E2298B9F9F3
:1059F00014703601000196FBF7F690FBF7F00901F1
:105A000091FBF7F1CDE92160209168053FF554AE97
:105A10002498239D07012598B9F914C02D0106018A
:105A200095FBFCF597FBFCF796FBFCF6CDE92357BD
:105A3000259641E600220792CBE43EB9099A209BC5
:105A40001203A2F5803203EB620320933A9B9A077C
:105A500078D4089A239B1203A2F5803203EB6203E9
:105A600049462046239301F065F8D9F828518EE580
:105A70000E9BCDF80490009326AB184617930D9B10
:105A8000FEF7A2F91298BDF87A20BDF87810149BA1
:105A9000B21A411A009329A8139BCDF8049012B2B0
:105AA00009B21290FEF790F955E5BDF97A20BDF9DB
:105AB0007E3020A89B1A4FEA231B5946FEF780FA36
:105AC000594623A8FEF77CFA59461798FEF778FA4C
:105AD00059461298FEF774FAD2E542F00202033AF0
