:020000040200F8
:10000000485B0022191F0102AD1C0102291F0102D9
:10001000291F0102291F0102291F0102291F0102B4
:10002000000000000000000000000000291F010285
:10003000291F010200000000291F0102291F0102DF
:1000400099150102DD0E010235DB00028DDB000295
:10005000E5DB00027DDC0002E5DC00023DDD0002A4
:1000600015C600023FC50002DFC6000231C700020C
:10007000C1F60002000000000000000000000000C7
:100080000000000000000000000000000000000070
:100090000000000000000000000000000000000060
:1000A0000000000000000000000000000000000050
:1000B0000000000000000000000000000000000040
:1000C0000000000000000000000000000000000030
:1000D0000000000000000000000000000000000020
:1000E0000000000000000000000000000000000010
:1000F0000000000000000000000000000000000000
:1001000000000000000000000000000000000000EF
:1001100000000000000000000000000000000000DF
:1001200000000000000000000000000000000000CF
:1001300000000000000000000000000000000000BF
:1001400000000000000000000000000000000000AF
:10015000000000000000000000000000000000009F
:10016000000000000000000000000000000000008F
:10017000000000000000000000000000000000007F
:10018000000000000000000000000000000000006F
:10019000000000000000000000000000000000005F
:1001A000000000000000000000000000000000004F
:1001B000000000000000000000000000000000003F
:1001C0000348044B834202D0034B03B118477047E6
:1001D000700100227001002200000000064B074958
:1001E000C91A891048BF0131491003D0044B0BB123
:1001F00001481847704700BF7001002270010022BB
:100200000000000010B5064C237843B9FFF7D8FF73
:10021000044B13B10448AFF300800123237010BDD9
:10022000A0010022000000009C49010208B5054B16
:100230001BB105490548AFF30080BDE80840FFF752
:10024000CDBF00BF00000000A40100229C490102B4
:1002500080B588B000AF634B5B68DB68BB61614B06
:100260005B68DB681B687B615E4B1A6A5D4B5B6A8F
:1002700013403B614FF00043FB61ADE03A69FB691D
:100280001340B3F1807F00F08280B3F1807F7DD88E
:10029000102B1ED0102B79D8002B0AD0012B12D096
:1002A00074E0FB69012B02D0FB695B0800E00023CE
:1002B000FB61FB69002B00F08E80FA693B691340FB
:1002C000002BEED087E0474BDB6A0133454AD3620F
:1002D0005EE07B699A68434B9968424BDB899B00DF
:1002E0000B44926C1A603F4BDA893E4B9B899A42D1
:1002F00004D03C4BDB8901339BB200E00023394A38
:10030000D381BB699B68DB6878699847BB699B6848
:100310005B687869984700F045FB7B699A68314BC8
:100320001969304BDB8A9B000B44926C1A602D4B91
:10033000DA8A2C4B9B8A9A4204D02A4BDB8A0133FF
:100340009BB200E00023274AD382264B1B6B184642
:1003500000F004FA7B699A68224B9969214BDB8B88
:100360009B000B44926C1A601E4BDA8B1D4B9B8BCF
:100370009A4204D01B4BDB8B01339BB200E000237D
:10038000184AD38301F0F0FA02E0FFE7FDE700BF6F
:100390000023FB60EFF310833B603B68FB600123AD
:1003A0007B607B6883F3108800BF0E4B1A6AFB6981
:1003B000DB4313400B4A1362FB68BB60BB6883F3EB
:1003C000108800BFFB69012B02D0FB695B0800E0CD
:1003D0000023FB6100E000BFFB69002B7FF44EAF00
:1003E00042E700BF0000002290B585B000AF786002
:1003F0004D4B4FF080721A624B4B4C4A5A624A4B3B
:100400004B4A1A61484B4FF480629A82464B012254
:10041000DA82454B474A9A61434B40F201429A8344
:10042000414B0222DA83404B434A9A603E4B40F2F2
:1004300002429A813C4B0322DA813B4A7B6853603B
:10044000394B00221A60384B5B689B68FB60FB6885
:100450009B681B69FA68126810469847B860FB6889
:100460009B68DC6AFB681868344B00223449A0475B
:100470000246BB681343BB60FB689B685B68FA6815
:100480001268104698470246BB681343BB60BB68BE
:10049000002B05D02B4B2C4A78212C4811F062FB05
:1004A000214B5B68DB68FB60FB689B681B69FA6833
:1004B000126810469847B860BB68002B05D0214BE6
:1004C000214A7C21214811F04DFB174B5B681B68CA
:1004D0005B681B68144A1363134B5B681B685B689B
:1004E0009B881A46104B5B681B685B68DB8802FBC5
:1004F00003F35B001A460C4B5A6301F0F7F900BF97
:10050000094B1B6A03F01003002BF9D0064B1B6A42
:1005100023F01003044A136200F042F80023184647
:100520001437BD4690BD00BF000000221F0000012F
:10053000BC010022BC110022BC210022BC310022DF
:1005400051050002242A0102582A0102382A010218
:1005500080B582B000AF78607B681B79002B05D036
:10056000002B0ADB013B092B07D80CE0084B1B6A68
:1005700043F00103064A136205E0064B064A2221B6
:10058000064811F0EFFA00BF0837BD4680BD00BF36
:1005900000000022682A0102902A01026C2A01024E
:1005A00080B500AF002004F005F90346244A13602B
:1005B000234B1B680021184604F002FA0346214A27
:1005C0001360204B1B681E4A12681146184600F043
:1005D00027FC1B4B1B689B21184602F058FA034668
:1005E000184A1360174B1B68154A126811461846C3
:1005F00000F016FC124B1B680121184602F07EFA2F
:100600000346104A13600F4B1B680D4A12681146CF
:10061000184600F005FC0A4B1B680322022118460D
:1006200002F0AAFA0346074A1360064B1B68044A05
:1006300012681146184600F0F3FB00BF80BD00BFF2
:10064000C8310022CC31002280B584B002AF78607E
:10065000404B1B68184608F091FF03463E4A136062
:100660003D4B1B683B4A12681146184600F0D8FB08
:10067000384B18680123019340F2563300934FF42E
:10068000F0734FF4F07279680AF0FCFF0346324AC7
:100690001360314B1B682F4A12681146184600F050
:1006A000BFFB2C4B1B680021184609F06DFC03466C
:1006B000294A1360284B1B68264A126811461846BF
:1006C00000F0AEFB234B1B680121184602F0DAFA5A
:1006D0000346214A1360204B1B681E4A12681146CC
:1006E000184600F09DFB1B4B1B680221184602F0C8
:1006F0000AFB0346184A1360174B1B68154A126819
:100700001146184600F08CFB124B1B68002118465E
:1007100002F01BFB0346104A13600F4B1B680D4A87
:1007200012681146184600F07BFB0A4B1B6801213A
:10073000184604F017FA0346074A1360064B1B6875
:10074000044A12681146184600F06AFB00BF0837D9
:10075000BD4680BDC8310022CC310022F0B587B043
:1007600004AF78607868FFF76FFF7B4B1B684FF42E
:100770007F020021184602F067F90346774A1360AA
:10078000764B1B68744A12681146184600F048FB05
:10079000714B1868724B1968714B1B891A460423F8
:1007A0000093202309F0F4FD03466C4A13606A4B62
:1007B0001B684FF47F420021184602F045F90346BA
:1007C000664A1360654B1B68634A126811461846F7
:1007D00000F026FB604B1868624BB3F900301B0138
:1007E0001CB2614BB3F900301B011DB25F4BB3F972
:1007F00000301B011EB25E4BB3F900301B011BB26F
:100800003B605C4AB2F90020120112B25A49B1F9B8
:100810000010090109B204230393029101923B687D
:10082000009333462A46214609F0F6FC03464B4A1C
:1008300013604A4B1B68484A12681146184600F07C
:10084000EFFA454B1B68FF220021184602F0FCF826
:100850000346424A1360414B1B683F4A12681146E7
:10086000184600F0DDFA3C4B1868444BB3F90030F1
:100870001B0119B2424BB3F900301B011AB2414BB4
:10088000B3F900301B011CB23F4BB3F900301B0120
:100890001BB20093234609F089FB03462F4A1360DD
:1008A0002E4B1B682C4A12681146184600F0B8FA05
:1008B000294B1B68354A0021184602F0C5F803464B
:1008C000264A1360254B1B68234A126811461846B6
:1008D00000F0A6FA204B18682D4BB3F900301B012D
:1008E00019B22C4BB3F900301B011CB22A4BB3F9DF
:1008F00000301B011DB2294BB3F900301B011BB2A4
:10090000274AB2F90020120112B203260296019280
:1009100000932B46224609F0D5FB03460F4A13608D
:100920000E4B1B680C4A12681146184600F078FA04
:10093000094B1B68184608F046FE0346074A136039
:10094000064B1B68044A12681146184600F068FA04
:1009500000BF0C37BD46F0BDC8310022CC310022AB
:100960007000002280000022820000228400002209
:1009700086000022880000228A0000228E000022C9
:1009800090000022920000229400002200FFFF004D
:10099000980000229A0000229C0000229E00002263
:1009A000A000002280B483B000AF00237B60DBE0B6
:1009B0004C4B1A687B685B001344B3F900309AB261
:1009C000484B59687B685B000B44B3F900309BB21D
:1009D000134499B2434B1A687B685B0013440AB214
:1009E0001A80404B1A687B685B001344B3F90030EF
:1009F000002B32DC3B4B1A687B685B0013440022FF
:100A00001A80384B5A687B685B001344B3F9003096
:100A1000002B10DD334B5A687B685B001344B3F93D
:100A200000309BB2083B99B22E4B5A687B685B0042
:100A300013440AB21A802B4B5A687B685B0013443C
:100A4000B3F900309BB25B4299B2264B5A687B687F
:100A50005B0013440AB21A8083E07B6803F0010351
:100A6000002B41D01F4B1A687B685B001344B3F91D
:100A7000003043F25F52934273DD1A4B1A687B6871
:100A80005B00134443F260521A80164B5A687B682D
:100A90005B001344B3F900309BB25B4299B2114B37
:100AA0005A687B685B0013440AB21A800D4B5A687F
:100AB0007B685B001344B3F90030002B51DD094B18
:100AC0005A687B685B001344B3F900309BB2083B63
:100AD00099B2044B5A687B685B0013440AB21A80CF
:100AE0003FE000BF700000229D4B1A687B685B00EE
:100AF0001344B3F90030B3F5F05F18DB984B1A6874
:100B00007B685B0013444FF4F0521A80944B5A6890
:100B10007B685B001344B3F900309BB25B4299B22F
:100B20008F4B5A687B685B0013440AB21A808C4B67
:100B30005A687B685B001344B3F90030002B10DD6A
:100B4000874B5A687B685B001344B3F900309BB253
:100B5000083B99B2824B5A687B685B0013440AB227
:100B60001A807B6801337B607D4B1B895B007A6850
:100B70009A42FFF61DAF7B4BB3F90030B3F5257FEA
:100B80000CDA794B1B78002B08D0764BB3F9003088
:100B90009BB202339BB21AB2724B1A80714BB3F9FB
:100BA0000030B3F5257F05DB704B01221A706E4BC8
:100BB00000221A706B4BB3F90030A52B0CDD6B4B88
:100BC0001B78002B08D0674BB3F900309BB2023B77
:100BD0009BB21AB2634B1A80624BB3F90030A52B5B
:100BE00005DC614B01221A70604B00221A70604BC9
:100BF000B3F90030502B15DD5E4B1B78002B11D064
:100C00005B4BB3F900309BB2023B9BB21AB2584B1C
:100C10001A80594BB3F900309BB2023B9BB21AB217
:100C2000554B1A80544BB3F90030502B05DC534B15
:100C300001221A704F4B00221A704D4BB3F900304D
:100C4000B3F53E7F15DA4D4B1B78002B11D0484B86
:100C5000B3F900309BB202339BB21AB2444B1A80F4
:100C6000454BB3F900309BB202339BB21AB2424BF0
:100C70001A803F4BB3F90030B3F53E7F05DB3D4BA7
:100C800001221A703D4B00221A703D4BB3F900301F
:100C9000B3F58F7F1EDA3B4B1B78002B1AD0384BF5
:100CA000B3F900309BB201339BB21AB2344B1A80B5
:100CB000354BB3F900309BB201339BB21AB2324BC1
:100CC0001A80324BB3F900309BB201339BB21AB297
:100CD0002E4B1A802A4BB3F90030B3F58F7F05DB1A
:100CE000284B00221A702A4B01221A70244BB3F9A8
:100CF0000030402B1EDD264B1B78002B1AD0204BDA
:100D0000B3F900309BB2013B9BB21AB21C4B1A8064
:100D10001D4BB3F900309BB2013B9BB21AB21A4B88
:100D20001A801A4BB3F900309BB2013B9BB21AB246
:100D3000164B1A80124BB3F90030402B05DC114BD7
:100D400001221A70124B00221A70124BB3F90030B4
:100D5000412B2CDD104B1B78002B28D01EE000BF50
:100D6000700000227C0000227E000022D031002290
:100D70009A000022A20000229E000022D33100220D
:100D8000800000228C0000228400002288000022C3
:100D9000D13100228E000022960000221C4BB3F9B4
:100DA00000309BB2013B9BB21AB2194B1A80184B10
:100DB000B3F90030412B05DC164B01221A70164B9B
:100DC00000221A70124BB3F90030B3F5877F0CDAAA
:100DD000104B1B78002B08D00D4BB3F900309BB2A1
:100DE00001339BB21AB20A4B1A800C4BB3F9003094
:100DF000B3F5877F05DA084B01221A70054B0022F4
:100E00001A7000BF0C37BD465DF8047B704700BF09
:100E10008E000022D2310022960000229A00002289
:100E200080B582B000AF786039607B68002B11D04C
:100E3000386803F0B5FD0346084A0949002000F070
:100E400081FB7B68002B05D07A680649002000F002
:100E500079FB00BE00BF0837BD4680BDE02A010215
:100E6000A42A0102C02A010280B584B000AF7860D4
:100E70000B46FB707B689B68FB60FB685A1C7B68B9
:100E80005B689A420ED87B681A68FB681344FA784C
:100E90001A70FB685A1C7B689A607B68DB685A1C76
:100EA0007B68DA607B689A687B685B689A4215D1D8
:100EB0007B6818697B6819687B689B681A4600F034
:100EC0009FFB02467B689B689A4204D07B684FF088
:100ED000FF32DA6002E07B6800229A6000BF1037C0
:100EE000BD4680BD80B58AB000AFF860B9607A6059
:100EF0003B60BB683B6201237B620123FB6107E02F
:100F00003A6A7B68B2FBF3F33B62FB690133FB6136
:100F10003A6A7B689A42F3D23A68FB699A4201D9ED
:100F20003B68FB617B6B03F00103002B26D13B6B1D
:100F3000002B23D07B6B03F00203002B05D03B6812
:100F4000002B02D13023FB7601E02023FB760CE05E
:100F50003B6B013B3B6397F91B301946F868FFF781
:100F600083FFFB68DB68002B07DB3B6B002B05D0A6
:100F7000FA693B6B9A42EBD300E000BFFB68DB6889
:100F8000002B56DB3B68012B03D93B68013B3B60E0
:100F900009E0BA687B6AB2FBF3F37B617A697B682C
:100FA0009A4200D205E07B6A7A6802FB03F37B6217
:100FB000E8E7BA687B6AB2FBF3F37B617B697A6A24
:100FC00002FB03F3BA68D31ABB601C4A7B69134463
:100FD00093F900301946F868FFF746FFFB68DB68B5
:100FE000002B08DB7A6A7B68B2FBF3F37B627B6AD7
:100FF000002BDED100E000BF7B6B03F00103002B70
:1010000017D03B6B002B14D00AE03B6B013B3B63DA
:101010002021F868FFF728FFFB68DB68002B07DB5F
:101020003B6B002B05D0FA693B6B9A42EDD300E095
:1010300000BF00BF2837BD4680BD00BFF82A0102AF
:1010400080B588B002AFF860B9607A603B60BB6879
:10105000002BB8BF5B423B6101237B6107E07B68EB
:101060003A6992FBF3F33B617B6901337B617B68F7
:101070003A699A42F3DA3A687B699A4201D93B6845
:101080007B613B6A002B0AD0BB68002B04DB7B6AC8
:1010900003F00403002B02D03B6A013B3B627B6AF6
:1010A00003F00203002B02D03B68002B1CD07B6AAC
:1010B00003F00103002B17D13B6A002B14D00AE088
:1010C0003B6A013B3B622021F868FFF7CDFEFB68DD
:1010D000DB68002B07DB3B6A002B05D07A693B6A93
:1010E0009A42EDD300E000BFFB68DB68002B4ADBCF
:1010F000BB68002B07DABB685B42BB602D21F86838
:10110000FFF7B2FE08E07B6A03F00403002B03D074
:101110002B21F868FFF7A8FEFB68DB68002B32DBA9
:101120007B6A03F00203002B1FD07B6A03F00103EC
:10113000002B1AD13B68002B17D13B6A002B14D02F
:101140000AE03B6A013B3B623021F868FFF78CFE06
:10115000FB68DB68002B07DB3B6A002B05D07A6954
:101160003B6A9A42EDD300E000BFFB68DB68002BCE
:1011700009DBB9687B6A01933B6A00933B687A6834
:10118000F868FFF7AFFE00BF1837BD4680BDFFFF10
:1011900080B5A2B002AFF860B9607A6007F11003C1
:1011A0003B6540237B650023BB65FB683B660023F2
:1011B000FB65BB681B7887F87F30BB680133BB6079
:1011C00097F97F30002B00F0A48197F97F30252B11
:1011D00040F0928100233B670123BB67BB681B780B
:1011E00087F87F3097F97F30233B0D2B3ED801A243
:1011F00052F823F05D1200026D1200026D1200021F
:101200006D1200026D1200026D1200026D120002DA
:101210006D1200024D1200026D1200022D1200022A
:101220006D1200026D1200023D1200023B6F43F08E
:1012300001033B67BB680133BB601AE03B6F43F0BF
:1012400002033B67BB680133BB6012E03B6F43F0B6
:1012500004033B67BB680133BB600AE03B6F43F0AC
:1012600008033B67BB680133BB6002E00023BB6738
:1012700000BFBB6F002BB1D10023FB66BB681B789E
:1012800087F87F3097F97F302F2B12DD97F97F3069
:10129000392B0EDCBB680133BB60FA6E13469B0032
:1012A00013445B001A4697F97F301344303BFB66CA
:1012B000E4E700237B67BB681B7887F87F3097F9EA
:1012C0007F302E2B1DD1BB680133BB60BB681B7800
:1012D00087F87F3097F97F302F2B12DD97F97F3019
:1012E000392B0EDCBB680133BB607A6F13469B0061
:1012F00013445B001A4697F97F301344303B7B67F9
:10130000E4E7BB681B7887F87F3097F97F306C2B58
:1013100003D097F97F30682B07D1BB680133BB60DE
:10132000BB681B7887F87F30EFE797F97F30252B74
:1013300000F0D680252BC0F2DA80782B00F3D7801E
:10134000582BC0F2D480583B202B00F2D08001A251
:1013500052F823F04B140002EF140002EF140002C5
:10136000EF140002EF140002EF140002EF14000269
:10137000EF140002EF140002EF140002EF14000259
:10138000D9130002FF130002EF140002EF14000251
:10139000EF140002EF140002EF140002EF14000239
:1013A000EF140002EF140002EF140002EF14000229
:1013B000EF140002BB140002EF140002EF1400024D
:1013C00071140002EF14000225140002EF14000251
:1013D000EF1400024B1400027B681B68191D7A6829
:1013E00011601B68BB67BB6F87F8673097F9672090
:1013F00007F1500311461846FFF736FD78E07B6889
:101400001B68191D7A6811601B68BB6707F15000E3
:101410003B6F0193FB6E00937B6F0A22B96FFFF75E
:101420000FFE65E07B681B68191D7A6811601B68F8
:10143000BB67B96F07F150003B6F0193FB6E0093E0
:101440007B6F0A22FFF74EFD52E07B681B68191D77
:101450007A6811601B68BB67B96F07F150003B6F7A
:101460000193FB6E00937B6F1022FFF73BFD3FE083
:101470007B681B68191D7A6811601B68BB66BB6EB0
:10148000002B01D12E4BBB66BB6E1B7887F87F30DB
:10149000BB6E0133BB6697F97F30002B0BD097F9F9
:1014A0007F2007F1500311461846FFF7DDFCFB6D66
:1014B000002BE9DA1CE000BF1AE07B681B68191DED
:1014C0007A6811601B68BB67B96F07F15000002391
:1014D00001930823009308231022FFF703FD07E080
:1014E00007F1500325211846FFF7BEFC00E000BFBE
:1014F000BB680133BB6007E097F97F2007F1500319
:1015000011461846FFF7B0FCFB6D002BBFF651AE3D
:1015100000E000BFFB6D002B0DDDBB6D002B06D086
:10152000BA6D07F110031946F86800F069F8FB6D11
:10153000BA6D1344FB65FB6D18468037BD4680BD10
:10154000F02A01020EB480B585B000AF786007F1D3
:101550002003BB6007F108031A46F9697868FFF7B2
:1015600017FEF860FB6818461437BD46BDE880409A
:1015700003B0704790B585B000AF786039601B4B01
:1015800000221A601A4A7B681360194B1B689B681B
:101590001B68174A12681068154A1268526811468B
:1015A0009847F860FB68002B01D0FB681AE0104BED
:1015B0001B689B689C690E4B1B6818680D4B0022CA
:1015C0000D49A047F860FB68002B01D0FB6809E0DB
:1015D0000A4B00221A80054B1B6843F00803034A9C
:1015E0001360002318461437BD4690BDE831002231
:1015F000E4310022D43100225916000210320022B8
:1016000080B586B000AFF860B9607A60104B1B6897
:1016100023F001030E4A13600E4B1B689B689B6806
:101620000C4A126810687A68B968984778617B69D3
:10163000002B01D0002307E000BF054B1B6803F01F
:101640000103002BF9D07B6818461837BD4680BDD2
:10165000E8310022E431002280B487B000AF786026
:101660007B681B79802B00F0B080802B00F3B58065
:10167000202B49DC002B40F3B080013B1F2B00F2F4
:10168000AC8001A252F823F0DD1700020F17000210
:10169000DB1700021D170002DB170002DB17000238
:1016A000DB17000293170002DB170002DB170002B2
:1016B000DB170002DB170002DB170002DB1700025A
:1016C000DB170002A1170002DB170002DB17000284
:1016D000DB170002DB170002DB170002DB1700023A
:1016E000DB170002DB170002DB170002DB1700022A
:1016F000DB170002DB170002DB170002DB1700021A
:10170000DB170002AF170002402B57D065E0374BC4
:101710001B6843F00103354A136060E0344B1B68DB
:101720001B681B6A1B68DAB2324B1A70314B1A788D
:101730002F4B1B681B681B6A5A602E4B1B780D2BA6
:101740000ED12D4B1B889BB21A462C4B002199546D
:10175000264B1B6843F00203244A136000BF3EE09F
:10176000254B1B889BB21A46224B1978234B995460
:10177000214B1B889BB21F2B05D81F4B1B889BB28C
:1017800001339BB202E01C4B1B889BB21A4A1380A8
:1017900025E0164B1B6843F00403144A13601EE057
:1017A000124B1B6843F00403104A136017E00F4B01
:1017B0001B6843F004030D4A136010E00B4B1B68D9
:1017C00043F00403094A136009E0084B1B6843F027
:1017D0001003064A136002E0FFE7FDE700BF00BF09
:1017E0001C37BD465DF8047B704700BFE83100221E
:1017F000E4310022EC31002210320022F0310022CC
:1018000080B588B000AF78600023BB617B68FB6166
:101810003CE007F1080300221A605A609A60DA601F
:10182000FB69DB7A7B72FB691B7BBB72FB691B78F4
:10183000BB81FB6901333B617B7AFE2B07D17B685F
:101840001B784FF47A71184610F096F91BE0144B90
:1018500000221A7007F10803194612480BF026FD02
:10186000B861BB69002B05D00F4B104AB42110485A
:1018700010F078F900BF0A4B1B78DBB283F001034C
:10188000DBB2002BF7D1FB690D33FB61FB69DB7A1F
:10189000FD2BBED100BF00BF2037BD4680BD00BFBD
:1018A000123200222032002230310102583101026E
:1018B0004431010280B483B000AF78607B681B784C
:1018C000002B08D17B685B68B3F5807F05D1064BA0
:1018D00001221A7001E000BF00E000BF00BF0C371A
:1018E000BD465DF8047B70471232002280B582B09D
:1018F00000AF00237B60174B5B681B683B603B6855
:101900009B681B683A6810683A68526811469847A5
:1019100078607B68002B05D00F4B104A19211048C6
:1019200010F020F90F48FFF76BFF3B689B689B683E
:101930003A6812681046984778607B68002B05D09B
:10194000054B064A1F21064810F00CF900BF083766
:10195000BD4680BD000000226C31010294310102BD
:1019600080310102082B010280B582B000AF124B1A
:101970005B681B685B681B687B600F4B1B6B7A683E
:101980009A4205D10C4B5B6B9B007A68134400E0D4
:101990007B68094A1363084B5B681B689B685B693B
:1019A000054A526812681068034A116B0022984772
:1019B00000BF0837BD4680BD0000002280B483B060
:1019C00000AF78607B681B78032B05D1054B1B6A41
:1019D00043F01003034A136200BF0C37BD465DF8A5
:1019E000047B70470000002280B485B000AF7860AF
:1019F0007B68FB60FB685B68064A934201D1064A3C
:101A000000E0044AFB685A6000BF1437BD465DF829
:101A1000047B70470000006880820C6880B584B049
:101A200000AF78607B68FB60FB68184610F076F8C2
:101A3000FB680C4A5A600C4B9A88FB681A810A4B67
:101A4000DA88FB685A81FB681B891A46FB685B8948
:101A500002FB03F35A00FB68DA60002318461037D4
:101A6000BD4680BD000000682833010280B582B009
:101A700000AF00237B6000212E48FFF77BFD2E493D
:101A80002E480DF0D7F878602D492E480DF0D2F889
:101A900002467B6813437B607B68002B05D02A4B92
:101AA0002A4A5D212A4810F05DF810F0C1FB294B4D
:101AB0009B6B29489847294B1B6928489847254B19
:101AC000DB6B9847254B5B692448984700BF214B47
:101AD0001B6A03F01003002BF9D01E4B1B6A23F086
:101AE00010031C4A13621D4B5B68002219461C48F8
:101AF0000EF0E2F978607B68002B0ED0194B1A4A81
:101B00001A490020FFF71EFD7B68002B05D07A687C
:101B100017490020FFF716FD00BEFEF743FF0F4BED
:101B20005B681846FEF71AFE124B1B680133114A18
:101B30001360C7E7A035010240350102B032002230
:101B4000D834010290320022A03101022832010271
:101B5000B431010200000022BC000022A4000022D7
:101B600038320022C431010234320102EC31010268
:101B7000083201021432002280B500AFFFF776FF71
:101B800000BF80BD80B582B000AF0346FB71FB791A
:101B9000022B05D1044B5B68194604480CF098F9F8
:101BA00000BF0837BD4680BDC03301024832002265
:101BB00080B500AFFFF7E0FF0023184680BD80B579
:101BC00086B000AFF860B9607A60FB68D3F8B831CE
:101BD0007B61FB68D3F8B83103F10802FB68C3F8F6
:101BE000B8217B69BA681A607B697A685A60FB68B9
:101BF000D3F8BC315A1EFB68C3F8BC21FB68D3F88C
:101C0000BC31002B04DCFB68D3F8C031F86898477E
:101C100000BF1837BD4680BD80B58CB002AFF860FC
:101C2000B96011461A460B46FB801346BB80B7F9D4
:101C30003030002B03D0B7F93430002B01DC002307
:101C400005E23B8E103B9BB23B86BB8E103B9BB2AA
:101C5000BB86FA883B8E13449BB27B83BA88BB8ECB
:101C600013449BB23B83FB8823F00F031BB23B82E0
:101C7000BB8823F00F031BB27B827B8B0F339BB29D
:101C80001BB223F00F031BB2BB823B8B0F339BB203
:101C90001BB223F00F031BB2FB8207F1100319469E
:101CA000F86809F09FFD0346002B01D10023CEE127
:101CB000B968F86807F03AFEBB6893F8D53003F0CE
:101CC0000203002B10D0FA887B8B13431BB29BB20C
:101CD00003F00F037B62BA883B8B13431BB29BB2AA
:101CE00003F00F033B6203E000237B6200233B62AF
:101CF000BB6893F8D53003F00103002B00F0978008
:101D0000B7F910301A46B7F90630D31A1A46BB682D
:101D1000D3F8103102FB03F31A09BB68D3F8103172
:101D200013441A460421F868FFF749FFBB68D3F84B
:101D300010311A460A21F868FFF741FF00221021EE
:101D4000F868FFF73CFFB7F91A30B7F910209B1A73
:101D50001A46BB68D3F8103102FB03F31A09BB68BB
:101D6000D3F8103113441A460521F868FFF727FF0E
:101D7000BB68D3F810315B421A460B21F868FFF7B5
:101D80001EFF00221121F868FFF719FFB7F9123082
:101D90001A46B7F90430D31A1A46BB68D3F8103183
:101DA00002FB03F31A09BB68D3F8103113441A4637
:101DB0000621F868FFF703FF00220C21F868FFF7FF
:101DC000FEFEBB68D3F810311A461221F868FFF7FF
:101DD000F6FEB7F91830B7F912209B1A1A46BB68FD
:101DE000D3F8103102FB03F31A09BB68D3F81031A2
:101DF00013441A460721F868FFF7E1FE00220D217F
:101E0000F868FFF7DCFEBB68D3F810315B421A4676
:101E10001321F868FFF7D3FE07F110020F23009398
:101E20000423B968F86804F039F8F861F3E07B6AD4
:101E3000002B48D13B6A002B0AD107F11002002386
:101E400000930023B968F86804F028F8F861E2E02C
:101E5000B7F912301A46B7F90430D31A1B0303F549
:101E600080331A460421F868FFF7A9FE00220A21F0
:101E7000F868FFF7A4FE4FF480321021F868FFF7EE
:101E80009EFEB7F91830B7F912209B1A1B0303F511
:101E900080331A460521F868FFF791FE00220B21D6
:101EA000F868FFF78CFE6C4A1121F868FFF787FE8F
:101EB00007F11002032300930223B968F86803F0C6
:101EC000EDFFF861A7E03B6A002B3AD1B7F910307B
:101ED0001A46B7F90630D31A1B0303F580331A46A6
:101EE0000421F868FFF76BFE4FF480320A21F8688E
:101EF000FFF765FE00221021F868FFF760FEB7F9D2
:101F00001A30B7F910209B1A1B0303F580331A46C9
:101F10000521F868FFF753FE4F4A0B21F868FFF7D9
:101F20004EFE00221121F868FFF749FE07F110026A
:101F3000032300930223B968F86803F0AFFFF86148
:101F400069E0B7F910301A46B7F90630D31A1B0307
:101F500003F580331A460421F868FFF730FE4FF48A
:101F600080320A21F868FFF72AFE00221021F86863
:101F7000FFF725FEB7F91A30B7F910209B1A1B039B
:101F800003F580331A460521F868FFF718FE324A38
:101F90000B21F868FFF713FE00221121F868FFF704
:101FA0000EFEB7F912301A46B7F90430D31A1B03E4
:101FB00003F580331A460621F868FFF700FE002279
:101FC0000C21F868FFF7FBFD4FF480321221F8680E
:101FD000FFF7F5FDB7F91830B7F912209B1A1B036C
:101FE00003F580331A460721F868FFF7E8FD002261
:101FF0000D21F868FFF7E3FD174A1321F868FFF792
:10200000DEFD07F110020F2300930423B968F8687E
:1020100003F044FFF86107F110020023B968F86883
:1020200006F078FD07F110020023B968F86808F09F
:10203000D7FCFB691A460021F868FFF7C0FD07F1DD
:10204000100300221946F86807F078FE01231846AD
:102050002837BD4680BD00BF0000FFFF80B58AB0B5
:1020600000AFF860B9607A60FB68B3F972303B8208
:10207000FB68B3F97630BB82FB68B3F974307B82BE
:10208000FB68B3F97830FB82FB685B6C042292FB3F
:10209000F3F33B62FB689B6E03F01003002B40F0F0
:1020A0004381FB685B6C032B00F33E81FB681B6C78
:1020B0003A6A93FBF2F2396A01FB02F29B1A002B97
:1020C00040F03281FB68DB6B03F00303002B40F030
:1020D0002B81FB68DB6C03F00303002B40F02481B1
:1020E000B7F910301B111BB2002B40F01D81B7F95E
:1020F00014301B111BB21A46FB68DB6C013B9A4281
:1021000040F01281FB689B6C072B17DC002B72DB05
:10211000072B70D801A252F823F000BF4321000220
:10212000C3210002F721000261210002F721000211
:10213000F7210002ED21000295210002412B0FD072
:1021400059E07B681B0E7B607B681A067B681B046A
:102150001A437B681B0213437A6813437B624DE08A
:102160007B681B0C03F470427B681B0B03F47063E9
:102170001A437B681B0A03F0F0031A437B681B09B0
:1021800003F00F0313437B607B681B047A681343DF
:102190007B6233E07B681A0F7B681B0A03F4704391
:1021A0001A437B681B0903F470631A437B6803F0CE
:1021B000F00313437B607B681B047A6813437B62E4
:1021C0001CE07B681B0A03F478427B685B0903F41C
:1021D000FC631A437B68DB0803F01F0313437B6037
:1021E0007B681B047A6813437B6207E07B684FEAD5
:1021F00033637B6202E07B687B6200BFB7F9143017
:102200001A46B7F91030D31A1B110133FB61B7F925
:1022100016301A46B7F91230D31A1B110133BB61BD
:10222000F86801F07BFF7B6A1A461921F868FFF70E
:10223000C6FC00220021F868FFF7C1FC4E4A0121CC
:10224000F868FFF7BCFCFB681A6C3B6A92FBF3F37F
:102250009BB21A461F21F868FFF7B1FCBB691A044C
:10226000F9693B6AB1FBF3F313431A461E21F86880
:10227000FFF7A5FCFB685B6C042B37D0042B4EDC0E
:10228000012B02D0022B18D049E0FB68DA6BB7F9BA
:1022900010301B111BB21946B7F912301B111BB2BB
:1022A0001846FB681B6C00FB03F30B4413441A46EF
:1022B0002021F868FFF783FC32E0FB68DA6BB7F99E
:1022C00010301B111BB21946B7F912301B111BB28B
:1022D0001846FB681B6C00FB03F30B445B001344C4
:1022E0001A462021F868FFF76AFC19E0FB68DA6BF0
:1022F000B7F910301B111BB21946B7F912301B1178
:102300001BB21846FB681B6C00FB03F30B449B00DD
:1023100013441A462021F868FFF751FC00E000BF83
:10232000F86801F0FBFE23E0F86801F0F7FE7B6837
:102330001A461921F868FFF742FC00220021F868CC
:10234000FFF73DFCFB685B6D43F0A07343F48053E3
:102350001A460121F868FFF732FC07F1100300224A
:102360001946F86807F0EAFCF86801F0D7FE00BFEC
:1023700000BF2837BD4680BD0010600180B586B023
:1023800002AFF860084611461A4603467B810B46A9
:102390003B811346FB80FB68996AB7F90800B7F9DF
:1023A0000A20B7F918300193B7F9063000930346B5
:1023B000F868FFF731FC002318461037BD4680BD92
:1023C00080B586B002AFF860084611461A4603464B
:1023D0007B810B463B811346FB80FB68D96AFB6817
:1023E000B3F96E309AB27B8913449BB218B2FB6882
:1023F000B3F970309AB23B8913449BB21AB2B7F961
:1024000018300193B7F90630009313460246F86876
:10241000FFF702FC002318461037BD4680BD90B57B
:1024200093B006AFF860084611461A4603467B8112
:102430000B463B811346FB80FB68B3F86C30FB8591
:10244000FB68DB6ABB62B7F92E30002B40F3DF80FC
:10245000B7F92E30DA0F13445B10FB84B7F92E3036
:10246000102B12D0BB6A93F8D730012B6FD1BB6A07
:10247000B3F9D830B7F92E209A4268DABB6A93F8DC
:10248000D53003F00103002B61D1FB68D96A7A894A
:10249000FB8DD31A9BB218B23A89FB8DD31A9BB22B
:1024A0001CB2FB8D5B009AB2B7F8403013449BB26C
:1024B0001BB20193B7F92E30009323460246F86809
:1024C000FFF7AAFBFB68D96A3A89FB8DD31A9BB246
:1024D00018B2B7F90A20B7F92E300193B7F90630D0
:1024E00000930346F868FFF797FBFB68D96A7A897F
:1024F000FB8813449BB218B23A89FB8DD31A9BB266
:102500001CB2FB8D5B009AB2B7F8403013449BB20B
:102510001BB20193B7F92E30009323460246F868A8
:10252000FFF77AFBFB68D96A3A89B7F84030134461
:102530009BB218B2B7F90A20B7F92E300193B7F958
:10254000063000930346F868FFF766FB5FE07A8980
:10255000FB8CD31A9BB2083B9BB21BB2BB823A895D
:10256000FB8CD31A9BB2083B9BB21BB2FB827A89CD
:10257000FB8813449AB2FB8C13449BB2083B9BB27A
:102580001BB23B833A89FB8CD31A9BB2083B9BB2AC
:102590001BB27B837A89FB8813449AB2FB8C134469
:1025A0009BB2083B9BB21BB2BB833A89B7F8403061
:1025B00013449AB2FB8C13449BB2083B9BB21BB2F0
:1025C000FB837A89FB8CD31A9BB2083B9BB21BB26C
:1025D0003B843A89B7F8403013449AB2FB8C1344D9
:1025E0009BB2083B9BB21BB27B8407F11402002311
:1025F00004930023039304230293B7F92E3001932D
:10260000042300930023B96AF86806F0E3FA002374
:1026100018463437BD4690BD90B587B002AFF8601C
:10262000084611461A4603467B810B463B811346FA
:10263000FB80B7F90600B7F90820B7F90A10B7F917
:10264000203000930346F868FFF7E9FEF86807F0CA
:1026500057F8FB68996A7B89103B9BB218B23B899B
:10266000103B9BB21CB2FB8820339BB21BB23A8C4E
:10267000203292B212B20192009323460246F868C9
:10268000FFF7CAFAF86807F081F8002318461437F4
:10269000BD4690BD80B586B002AFF86008461146D1
:1026A0001A4603467B810B463B811346FB80FB6841
:1026B000D96AFB68B3F96E309AB27B8913449BB236
:1026C00018B2FB68B3F970309AB23B8913449BB2DD
:1026D0001AB2B7F918300193B7F9063000931346D0
:1026E0000246F868FFF798FAF86807F009F8FB68FF
:1026F000996AB7F90800B7F90A20B7F918300193B9
:10270000B7F9063000930346F868FFF785FAF868D2
:1027100007F03CF8002318461037BD4680BD80B551
:1027200082B000AF786039607B689B6A3A6819466E
:102730007868FFF793FC002318460837BD4680BD34
:1027400080B483B000AF786039603B685AB27B6870
:1027500083F8C6213B6818460C37BD465DF8047BFC
:102760007047FFFF80B584B000AF78604FF4BE7053
:1027700005F0EFFFF860FB68002B05D101217868B8
:10278000FFF7DEFF002358E1FB687A685A60FB68B8
:102790006FF07F429A60FB686FF07F42DA60FB68FF
:1027A000FF229A74FB68FF22DA74FB684FF07F42C5
:1027B000C3F84C21FB68FF221A74FB68FF225A748D
:1027C000FB684FF07F42C3F85021FB684FF07F4217
:1027D000C3F85421FB68022283F8D520FB6800224D
:1027E000C3F82821FB68002283F80E21FB68102221
:1027F0009A82FB684FF48032C3F81021FB684FF4D3
:10280000B052C3F81C217B68D3F8803003F000631A
:10281000002B05D1FB684FF48002C3F820210BE0A8
:10282000FB68884AC3F82021FB68D3F8203143F4C1
:102830008002FB68C3F82021FB684FF47032C3F8B4
:102840003421FB68042283F8E920FB684FF400225E
:10285000C3F82C21FB680022C3F83C21FB6800224E
:10286000C3F84021FB680022C3F844217B685A6DFD
:10287000FB68D3F820311A43FB68D3F81C311A43A4
:10288000FB68D3F82C311A43FB68D3F83C311A4368
:10289000FB68D3F840311A43FB68D3F844311A433C
:1028A000FB68C3F82421FB6800225A76FB680122EA
:1028B0009A75FB680022DA75FB6800221A76FB68BD
:1028C000AA22C3F81421FB68AA22C3F8C420FB681B
:1028D000012283F8D420FB684FF48032C3F8302102
:1028E000FB680022C3F8CC20FB681022C3F8D0207C
:1028F000FB684FF48032C3F81821FB680422C3F848
:10290000C820FB68012283F8D620FB68012283F8E7
:10291000D720FB684022A3F8D820FB680022A3F848
:10292000DA20FB68002283F80F21FB680022C3F83D
:10293000FC20FB680022C3F80021FB680022C3F8DA
:102940000421FB680022C3F80821FB68012283F8F8
:102950000C21FB68002283F80D21FB680022C3F8DC
:102960004821FB681C33184603F0CBF9FB6834336D
:10297000184603F0C6F9FB684C33184603F0C1F95A
:10298000FB686433184603F0BCF9FB687C331846D7
:1029900003F0B7F9FB689433184603F0B2F9FB680B
:1029A000AC33184603F0ADF9FB680C2283F8E8203D
:1029B000FB684FF0FF32C3F83821FB68002283F830
:1029C000DC20FB68002283F8DD20FB68002283F80E
:1029D000DE20FB68002283F8DF20FB68FF2283F8FB
:1029E000E020FB68FF2283F8E120FB68FF2283F8E8
:1029F000E220FB68FF2283F8E320FB68012283F8D2
:102A0000E420FB68032283F8E520FB68032283F8B7
:102A1000E620FB68032283F8E720F968786807F06E
:102A2000CFFD7B68DA69FB681A607B68FA68DA6157
:102A300000217868FFF784FEFB6818461037BD4612
:102A400080BD00BF0800002080B584B000AFF860F2
:102A5000B9607A60FB685B6A7A6822F07F41BA6885
:102A6000023243F82210FB685B6A93F80E21FB6880
:102A70005B6A42F00102D2B283F80E210021F868AD
:102A8000FFF75EFE034618461037BD4680BD80B591
:102A900084B000AF78600B46FB707B685B6AFB60BC
:102AA000FB6893F80E3143F00103DAB2FB6883F858
:102AB0000E21FB689B7CFA789A4208D0FB6893F859
:102AC0000E3143F00603DAB2FB6883F80E21FB688F
:102AD000FA789A74FB689B7D03F00103002B04D005
:102AE000FB781A06FB68C3F84C2100217868FFF7D1
:102AF00027FE034618461037BD4680BD80B584B01A
:102B000000AF786039607B685B6AFB60FB6893F8B4
:102B10000E3143F00103DAB2FB6883F80E21FB6843
:102B20009B7D1A463B68934208D0FB6893F80E31B0
:102B300043F00603DAB2FB6883F80E213B68DAB291
:102B4000FB689A753B6803F00103002B06D0FB6815
:102B50009B7C1A06FB68C3F84C2104E0FB684FF02D
:102B60007F42C3F84C2100217868FFF7E9FD034656
:102B700018461037BD4680BD80B586B000AFF860FE
:102B8000B9607A60FB685B6A3B613B6993F80E3120
:102B900043F00103DAB23B6983F80E2100237B6125
:102BA000BB68032B19D801A252F823F0BD2B0002F9
:102BB000E72B0002C72B0002D12B00027B6943F4F4
:102BC00000637B6110E07B6943F400737B610BE081
:102BD0007B6943F420637B6106E01021F868FFF70E
:102BE000AFFD03464AE000BF7B68032B19D801A262
:102BF00052F823F0052C00022F2C00020F2C0002AB
:102C0000192C00027B6943F480537B6110E07B69DF
:102C100043F480637B610BE07B6943F4A0537B61E9
:102C200006E01021F868FFF78BFD034626E000BFA1
:102C30003B697A69C3F81C21FB685A6D3B69D3F87C
:102C40001C311A433B69D3F82C311A433B69D3F842
:102C500020311A433B69D3F83C311A433B69D3F81E
:102C600040311A433B69D3F844311A433B69C3F8F6
:102C700024210021F868FFF763FD03461846183742
:102C8000BD4680BD80B584B000AF786039607B6898
:102C90005B6AFB603B68002B0DD0FB6893F8D53076
:102CA00043F00203DAB2FB6883F8D520FB68002208
:102CB000C3F828211EE0FB6893F8D53023F0020307
:102CC000DAB2FB6883F8D520FB684FF4FC42C3F806
:102CD0002821FB684FF48032C3F81021FB6893F879
:102CE000D53023F00103DAB2FB6883F8D520FB6806
:102CF00010229A8200217868FFF722FD03461846C9
:102D00001037BD4680BD80B584B000AF78603960B3
:102D10007B685B6AFB603B68DAB2FB6883F8D620AD
:102D20003B68022B04D1FB68032283F80F2103E0E8
:102D3000FB68002283F80F2100217868FFF700FD6F
:102D4000034618461037BD4680BD80B584B000AF3D
:102D5000786039607B685B6AFB603B68DAB2FB686D
:102D600083F8D72000217868FFF7EAFC034618466D
:102D70001037BD4680BD80B485B000AF78607B68F9
:102D8000D3F84C311B0AFB607B681B7C1A46FB683E
:102D900002FB03F303F1FF1303F57F4303F07F42CC
:102DA0007B68C3F850217B685B7C1A46FB6802FB9A
:102DB00003F303F1FF1303F57F4303F07F427B68C6
:102DC000C3F854217B6893F80E3123F00203DAB282
:102DD0007B6883F80E2100BF1437BD465DF8047B85
:102DE000704780B586B000AFF860B9607A60FB6864
:102DF000D3F8B8317B61FB68D3F8B83103F108022E
:102E0000FB68C3F8B8217B69BA681A607B697A6885
:102E10005A60FB68D3F8BC315A1EFB68C3F8BC216A
:102E2000FB68D3F8BC31002B04DCFB68D3F8C0315D
:102E3000F868984700BF1837BD4680BD2DE9B04FF0
:102E4000BCB000AFC7F8A400C7F8A010C7F89C201A
:102E5000A7F89A30B7F89A20B7F81431D31A9BB272
:102E6000A7F8DE30B7F81021B7F81431D31A9BB2A7
:102E7000A7F8DC30D7F8A03093F8D53003F0010381
:102E8000002B00F0FA81D7F82031002B08D0D7F8BA
:102E9000A430D3F8803003F08063002B40F03281FF
:102EA000D7F8A0309B8AA7F8C630D7F8A030D3F85F
:102EB0001031C7F8C030B7F91421B7F9C63003FB99
:102EC00002F24FF0784393FBF2F3C7F8E030B7F922
:102ED0001431DA173B677A67D7E91C234FF0784043
:102EE0004FF0FF310FF062FA02460B4610461946CA
:102EF00050EA0F21B7F9C630DA17BB66FA66D7E990
:102F00001A230FF053FA02460B46C7E92C23B7F9F0
:102F1000DE20B7F9DE3003FB02F1B7F9DC20B7F9A8
:102F2000DC3002FB03F30B44002B00DAFF331B12EF
:102F30001A46D7F8E03002FB03F3002B00DA0F3318
:102F40001B111846B7F91421D30F13445B101BB2A1
:102F50001946B7F9DE20B7F9DC301344CA18D7F8A0
:102F6000C03002FB03F3002B00DA0F331B115B426E
:102F70000344C7F8E430B7F9DE20B7F9DE3003FBCD
:102F800002F1B7F9DC20B7F9DC3002FB03F30B44A4
:102F9000002B00DAFF331B12DA173B667A66D7F88C
:102FA000B030D7E918452A4602FB03F2D7F8B4300F
:102FB000214601FB03F31A44D7F8B0302146A3FBA6
:102FC0000113C7F894300B46C7F89030D7F8943007
:102FD000D318C7F89430D7E92423002B07DA12F16D
:102FE0000F01B96243F10003FB62D7E90A2352EAF9
:102FF0002F1310461946B7F91421D30F13445B1051
:103000001BB21C46B7F9DE20B7F9DC301344234469
:10301000DA17BB65FA65D7F8C03000223B657A65E0
:10302000D7E916894B46D7E914AB524602FB03F2A7
:103030005B46444604FB03F3134442465446A2FB5A
:103040000442C7F88C202246C7F88820D7F88C2085
:103050001344C7F88C30D7E9222352EA0F13841A9D
:103060003C6261EB03037B62D7E90823C7E92A23AB
:10307000D7E92A23002B07DA12F1FF01B96143F1E6
:103080000003FB61D7E9062352EA2F231346C7F852
:10309000E430D7F8E030002B00DA0F331B11C7F80B
:1030A000E030D7E92C23002B08DA40F6FF715118E5
:1030B000396143F100037B61D7E9042352EA2F33DE
:1030C0001346C7F8E030B7F99A30C3F108035B0044
:1030D000D7F8E02002FB03F3002B00DA0F331B11BB
:1030E000C7F8EC30B7F91031C3F108035B00D7F82B
:1030F000E02002FB03F3002B00DA0F331B11C7F8AB
:10310000E8304EE1D7F8A0309B8AA7F8C630D7F850
:10311000A030D3F81031C7F8C030B7F914214FF000
:10312000784393FBF2F39A01B7F9C63092FBF3F3BD
:10313000C7F8E030B7F9DE20B7F9DE3003FB02F163
:10314000B7F9DC20B7F9DC3002FB03F30B44002BAA
:1031500000DAFF331B12DA17BB64FA64D7F8E030E9
:10316000DA173B647A64D7E912452B46D7E9108910
:10317000424602FB03F24B46214601FB03F3134494
:1031800022464146A2FB0112C7F884200A46C7F82E
:103190008020D7F884201344C7F88430D7E920234F
:1031A000002B07DA12F10F01B96043F10003FB6055
:1031B000D7E9022352EA2F1310461946B7F9143102
:1031C000DA0F13445B101BB21C46B7F9DE20B7F9C7
:1031D000DC3013442344DA17BB63FA63D7F8C030FA
:1031E00000223B637A63D7E90E894B46D7E90CABE3
:1031F000524602FB03F25B46444604FB03F31344CE
:1032000042465446A2FB0442FA672246BA67FA6F66
:103210001344FB67D7E91E2352EA8F03841A3C60EC
:1032200061EB03037B60D7E90023C7E92E23D7F8BE
:10323000E0301B11C7F8E030B7F99A30C3F108034A
:10324000D7F8E02002FB03F3002B00DA0733DB1092
:10325000C7F8EC30B7F91031C3F10803D7F8E02014
:1032600002FB03F3002B00DA0733DB10C7F8E8306A
:10327000D7F8B830C7F8E43093E0B7F8DE20B7F8F5
:10328000DC3013431BB2002B22D1B7F91431884A2A
:1032900092FBF3F3C7F8E030B7F9142113465B054E
:1032A0009B1ADB02C7F8E430B7F91431C3F1080305
:1032B0005B00D7F8E02002FB03F3002B00DA0F33AA
:1032C0001B11C7F8E830D7F8E830C7F8EC3068E0F1
:1032D000B7F91431774A92FBF3F3C7F8E030B7F946
:1032E000DE30B7F9DE2002FB03F3C7F8D830B7F9B8
:1032F000DC30B7F9DC2002FB03F3C7F8D430D7F891
:10330000D820D7F8D4301344DA179A469346D7F822
:10331000E030DA179846914608FB0BF20AFB09F3F6
:103320001344AAFB08452B441D4622462B4652EA6D
:10333000EF23C7E93223D7F8C820B7F91431D90FE2
:103340000B445B101BB21846B7F9DE10B7F9DC303E
:103350000B4403441B03D31AC7F8E430D7F8E0301A
:10336000DB10C7F8E030B7F99A30C3F108035B000F
:10337000D7F8E02002FB03F3002B00DA0F331B1118
:10338000C7F8EC30B7F91031C3F108035B00D7F888
:10339000E02002FB03F3002B00DA0F331B11C7F808
:1033A000E830D7F81C31002B39D1D7F89C30191DE3
:1033B000D7F8E420D7F8183113441A46D7F8A400F8
:1033C000FFF70FFDD7F89C300533D7F8EC201946EE
:1033D000D7F8A400FFF705FDD7F89C301033D7F8D5
:1033E000E8201946D7F8A400FFF7FBFCD7F89C307B
:1033F00003F10B01D7F8E0305B001A46D7F8A400C0
:10340000FFF7EFFCD7F89C3003F11101D7F8E0305B
:103410005B001A46D7F8A400FFF7E3FC42E0D7F8B8
:103420009C30191DD7F8E4305A42D7F81831D31A16
:103430001A46D7F8A400FFF7D4FCD7F89C30591DE2
:10344000D7F8EC305B421A46D7F8A400FFF7C9FC66
:10345000D7F89C3003F11001D7F8E8305B421A46E8
:10346000D7F8A400FFF7BDFCD7F89C3003F10B019F
:10347000D7F8E0201346DB079B1A5B001A46D7F803
:10348000A400FFF7AEFCD7F89C3003F11101D7F888
:10349000E0201346DB079B1A5B001A46D7F8A4000E
:1034A000FFF79FFC00BFF037BD46BDE8B08F00BFFF
:1034B0000000F8FF0000C0FF80B485B000AF786066
:1034C00039607B681B690F4A1A607B681B693A6820
:1034D0005A607B681B690433FB607B689B68FA68F1
:1034E000DA607B681B6903F108027B681A617B68FC
:1034F00000229A61FB6818461437BD465DF8047BCC
:10350000704700BF3280808080B584B000AF7860A3
:1035100039607B689B69FB607B681B69BB60FB68EB
:10352000032B6DD801A252F823F000BF3D350002F5
:10353000533500028D350002C73500023B681B027F
:1035400043F0FF02BB681A60BB681A1D7B681A61F2
:1035500057E0BB681B68DAB2BB681A60BB681B68BF
:1035600043F0802343F40003BA6813603B681B02F6
:1035700043F0FF031946BA68FB689B001344596087
:10358000BB6803F10C027B681A613AE0BB681B68F8
:103590009AB2BB681A60BB681B6843F0004343F4EF
:1035A0000003BA6813603B681B0243F0FF0319462F
:1035B000BA68FB689B0013445960BB6803F11002B2
:1035C0007B681A611DE0BB681B6823F07F42BB6803
:1035D0001A60BB681B6843F00042BB681A603B6816
:1035E0001B0243F0FF031946BA68FB689B001344B3
:1035F00059607B681B6903F114027B681A6100E063
:1036000000BF7B6800229A617B68DB695A1E7B6879
:10361000DA613B6803F00103002B06D17B68DB69AC
:10362000012B02D8786800F0DFF900BF1037BD46E3
:1036300080BD00BF80B483B000AF786039603B6864
:103640005AB27B6883F8C6213B6818460C37BD46E2
:103650005DF8047B704780B584B000AF7860396056
:103660007B689B69FB60142005F073F8B860BB6849
:10367000002B01D100235FE0BB683A689A60BB6809
:103680000022DA607B689B6E03F00103002B0CD1F3
:103690003A6813469B0013449B001946786805F06E
:1036A000D9F80246BB685A600AE03A6813469B00A4
:1036B00013449B00184605F04CF80246BB685A605C
:1036C000BB685B68002B04D1B86805F04EF8002396
:1036D00032E0BB6800221A617B689B6E03F0010335
:1036E000002B25D17B68D3F8843003F01003002B26
:1036F00009D0BB685B681946F8680DF0D5FF024633
:10370000BB681A6114E07B68D3F8843003F00203CD
:10371000002B0DD0BB689A6813469B0013449B0096
:103720001A460421F8680DF099FF0246BB681A6139
:10373000BB6800221A60BB6818461037BD4680BDC2
:1037400080B584B000AF786039607B689B69FB60AE
:103750002BE03B681B68BB607B689B6E03F001033A
:10376000002B06D13B685B681946786805F0A4F821
:1037700004E03B685B68184604F0F7FF3B681B6990
:10378000002B0DD07B68D3F8843003F00203002BAC
:1037900006D03B681B691A460421F8680DF06CFFDF
:1037A000386804F0E2FFBB683B603B68002BD0D177
:1037B00000BF00BF1037BD4680BD80B584B000AFEC
:1037C00078607B689B681B68FB60FB68002B15D1E9
:1037D0007B681A687B681B6A19461046FFF73BFF37
:1037E000F860FB68002B05D17B681B68152283F805
:1037F000C72111E07B689B68FA681A60FB680022A9
:10380000DA60FB685A687B681A61FB689A687B68B3
:10381000DA617B68FA689A601037BD4680BD90B562
:1038200089B000AFF860B9607A60BB68FA681A6066
:10383000BB6800225A61FB68DB6F002B70D0FB680D
:10384000DB6F7B617B691A68BB685A60202004F0DB
:1038500080FF0246BB685A61BB685B69002B01D1DF
:103860000023BDE0BB685B693B617B699B689B0093
:10387000184604F06EFF02463B691A603B691B68FC
:10388000002B01D10023ABE07B699A683B695A6049
:103890007B695B68FA68D2F8882003FB02F23B6917
:1038A0009A607B695A683B695A610023BB6109E0F1
:1038B0003B691A68BB699B00134400221A60BB690C
:1038C0000133BB613B695B68BA699A42F0D33B69DB
:1038D0001A683B69DA60FB6898693B699A68134625
:1038E0009B0013449B001A463B691C6804210DF0A1
:1038F000B5FE034623603B691B681B68002B01D1A2
:1039000000236DE03B691B681A683B691A613B69DB
:103910005A683B69DA613B695A693B699A6106E01A
:103920007968F868FFF797FE0246BB685A60BB6883
:103930005A68BB68DA60BB685B68002B01D1002362
:103940004EE0BB685A68BB689A60BB685B685A689F
:10395000BB681A61BB685B689A68BB68DA61BB6860
:1039600000229A61BB6800229A62BB680022DA6278
:10397000BB6810229A86402004F0EBFE0246BB682A
:103980001A63BB681B6B002B01D1002328E0BB68C6
:103990005B69002B05D0BB685B691B681B68FB611A
:1039A00014E0FB68D3F8843003F01203002B09D035
:1039B000BB685B681B69002B04D0BB685B681B6934
:1039C000FB6103E0BB685B685B68FB61B968F86832
:1039D00000F04BFEFA69B968F86800F06AFE01234E
:1039E00018462437BD4690BD80B58EB002AF7860D2
:1039F0007B685B69BB62BB6A002B23D100217868BE
:103A0000FFF75AFDF86003217868FFF77DFD7868BD
:103A1000FFF7D3FE7B681B6893F9C731002B0AD0F0
:103A20007B681B69A3F10C027B681A61032178682B
:103A3000FFF76AFDE2E07B689B685B681A46FB68FB
:103A40001A60DBE07B68DB69002B04D0BB6A9B69F2
:103A5000012B40F0D3807B681B689B697B62BB6A4B
:103A60009B69012B4BD97B689B68BB61BB6959681B
:103A7000BB699A6813469B0013449B000B447B610F
:103A80007B681B69FB62BB6A1969BB699A6813464C
:103A90009B0013449B000B443B61BB69DB68002B1C
:103AA0000ED0BB69DB683A691A60BB690022DA6034
:103AB00006E0FB6A4FF080321A60FB6A0433FB6257
:103AC000FA6A7B699A42F4D3BB6A1969BB69586880
:103AD000BB699A6813469B0013449B001A46102347
:103AE000009313460246786A0DF0F6FDBB6A3A6908
:103AF0001A61BB6A9B695A1EBB6A9A6176E0BB6A0F
:103B0000DB69012B65D97B689B683B62BB6ADB681C
:103B10000433FB61BB6ADB695A1EBB6ADA61FB696D
:103B20001B68002B16D1BB6A9A6813469B0013448E
:103B30009B001A460421786A0DF090FD0246FB694D
:103B40001A60FB691B68002B04D17B681B6801228B
:103B500083F8C721FB691B68002B12D03B6ADB6826
:103B6000002B08D0FB691A683B6ADB681A603B6A65
:103B70000022DA6005E0FB691B6819467868FFF7E8
:103B80009BFC03217868FFF7BFFCBB6A19697B685F
:103B90009B6858687B689B689A6813469B0013442F
:103BA0009B001A461023009313460246786A0DF0D4
:103BB00093FDFB691B68002B18D0BB6AFA69DA60B9
:103BC000FB691A68BB6A1A61BB6A5A69BB6A9A6167
:103BD0000CE0BB6ADB69012B08D1BB6A9B69012B36
:103BE00004D17B681B68152283F8C7217868FFF72A
:103BF000E4FD7B681B6893F9C731002B3037BD4665
:103C000080BDFFFF80B485B000AF78607B689B69A2
:103C1000FB607B681B69BB60FB68032B42D801A279
:103C200052F823F0B93C0002353C00025B3C000234
:103C3000813C0002BB681B68DAB2BB681A60BB68D3
:103C40001B6843F0802343F40003BA681360BB6829
:103C500003F108027B681A6125E0BB681B689AB211
:103C6000BB681A60BB681B6843F0004343F4000361
:103C7000BA681360BB6803F10C027B681A6112E03A
:103C8000BB681B6823F07F42BB681A60BB681B6877
:103C900043F00042BB681A60BB6803F110027B6806
:103CA0001A6100E000BF7B6800229A617B68DB69D3
:103CB0005A1E7B68DA6100E000BF1437BD465DF82C
:103CC000047B704780B485B000AF78607B681B6868
:103CD0008C33BB607B681B689B6E03F02003002B5A
:103CE0000ED10023FB6008E0BA68FB681344EC3394
:103CF00000221A70FB680133FB60FB683A2BF3DD8E
:103D00007B685A687B689A607B685A687B68DA606F
:103D10007B685B69002B18D07B685A697B685B699C
:103D20001268DA607B685B691A687B685B69126895
:103D30001A617B685A697B685B695268DA617B68E3
:103D40005A697B685B6952699A617B685B685A68EB
:103D50007B681A617B685B689A687B68DA617B685C
:103D600000229A617B680022DA6200BF1437BD46E8
:103D70005DF8047B704790B589B002AFF860B96018
:103D80007A6000237B61BB681B68184600F0F2F97B
:103D90000321B868FFF7B8FBFB68DB6F002B2BD162
:103DA000BB689B681B68002B05D0BB689B6A5A1CCC
:103DB000BB689A6202E0BB6800229A62BB689B6A99
:103DC0003C2B19D1BB689B683B6102E03B691B68D7
:103DD0003B613B691B681B68002BF7D1BB681A6805
:103DE0003B691B6819461046FFF7AAFC3B69002295
:103DF0001A60BB6800229A62BB685B69002B21D005
:103E00007B68002B37D0BB681B68184600F09EFE0D
:103E10000446BB685B691969BB689B685868BB68E6
:103E20009B689A68BB68DB69D21A13469B001344EF
:103E30009B001A46002300931346024620460DF0CD
:103E40004BFC18E0FB68D3F8843003F00203002B2E
:103E500003D0B86800F026FB0DE0FB68D3F884308F
:103E600003F01003002B03D0B86800F0B1FB02E0B0
:103E7000B86800F06EFB7B68002B06D0B868FFF7CF
:103E800021FFBB6800225A6226E0BB680022DA618B
:103E9000B868FFF7A9FDBB689A68BB68DA60BB68C1
:103EA0005B69002B04D0BB685B691B697B6113E015
:103EB000FB68D3F8843003F01203002B09D0BB68F1
:103EC0009B681B69002B04D0BB689B681B697B61E6
:103ED00002E0BB681B697B617B6918461C37BD46E5
:103EE00090BD80B58AB000AF7860396000237B62F6
:103EF0007B689B69FB6100233B623B681B68BB617D
:103F0000BB6903F08033002B00F0BE80BB69B3F1C6
:103F1000803F03D13B6804333B60ECE7BB6903F4AB
:103F20000043002B19D0BB69DBB2322B01D17B6A75
:103F3000F0E0BB69DBB27B613B685B681A4679697C
:103F4000F86902F01EF97B69202B02D1F86902F0B2
:103F500028F93B6808333B60CDE7BB6903F40003F5
:103F6000002B3DD0BB69DBB2FF2B11D1BB691B0A13
:103F7000DBB27B627B6A022B08D13B6804333B6077
:103F8000F86902F00EF901233B6201E07B6AC1E0AF
:103F90003B6A002BAFD1BB69DBB27B61BB691B0AFB
:103FA000DBB23B613B685B681A467969F86902F0ED
:103FB000E8F87B69202B02D1F86902F0F2F83B683F
:103FC0009B681A463969F86902F0DBF83B69202BD7
:103FD00002D1F86902F0E5F83B680C333B608AE7F0
:103FE000BB69002B35DABB69DBB27B61BB691B0A9D
:103FF000DBB23B61BB691B0CDBB2FB603B685B68FF
:104000001A467969F86902F0BCF87B69202B02D165
:10401000F86902F0C6F83B689B681A463969F86986
:1040200002F0AFF83B69202B02D1F86902F0B9F831
:104030003B68DB681A46F968F86902F0A2F8FB6889
:10404000202B02D1F86902F0ACF83B6810333B60DA
:1040500051E7BB69DBB2FF2B12D1BB691B0ADBB294
:104060007B627B6A022B02D07B6A042B06D13B6801
:1040700004333B60F86902F094F83CE77B6A49E05E
:104080003B6804333B6036E7BB69DBB27B61BB69ED
:104090001B0ADBB23B61BB691B0CDBB2FB60BB697B
:1040A0001B0EBB603B685B681A467969F86902F0D1
:1040B00068F87B69202B02D1F86902F072F83B683E
:1040C0009B681A463969F86902F05BF83B69202B56
:1040D00002D1F86902F065F83B68DB681A46F968B6
:1040E000F86902F04EF8FB68202B02D1F86902F063
:1040F00058F83B681B691A46B968F86902F041F83C
:10410000BB68202B02D1F86902F04BF83B681433EE
:104110003B60F0E618462837BD4680BD80B582B0CA
:1041200000AF7860786800F025F87B68DB680421D0
:104130001846FFF7E9F900217868FFF77BFA034694
:1041400018460837BD4680BD80B582B000AF7860A4
:10415000786800F00FF87B68DB6802211846FFF7EB
:10416000D3F900217868FFF765FA03461846083747
:10417000BD4680BD80B594B000AF78607B687B633E
:104180007B68DB683B637B6BD3F8B431FB647B6B90
:10419000D3F8B8217B6BD3F8B431D31ADB103B646E
:1041A0003B6B1B688C33FB62FB6ABB62FB6AEC33C4
:1041B0007B627B689B6E03F02003002B7ED13B6B00
:1041C0009B69FB633B6B1B69BB6400237B6465E0FD
:1041D0000023BB63FB6C1B683B61FB6C5B68FB6093
:1041E000FB6C0833FB648E4A3B6913441B78002B3D
:1041F0001CD07A6A3B69134493F90030002B0AD033
:104200003B699B00BA6A13441B68FA689A4202D160
:104210000123BB630AE07A6A3B69134401221A70E6
:104220003B699B00BA6A1344FA681A60BB6B002BA7
:1042300031D13B69D9B2BA6CFB6B13440A461A7090
:10424000BA6CFB6B9B001344FA685A60FB6B01333A
:1042500003F00303FB633B6BDB6A5A1C3B6BDA62C4
:10426000FB6B002B17D13B6B1B6903F114023B6BFB
:104270001A613B6BDB695A1E3B6BDA613B6BDB6996
:10428000012B05D83B6BFA6B9A61386BFFF7ACFBDF
:104290003B6B1B69BB647B6C01337B647A6C3B6C4E
:1042A0009A4205D23B6B1B6893F9C731002B8FD024
:1042B0003B6BFA6B9A6100233B64E4E03B6BDA6A88
:1042C0003B6C1A443B6BDA623B6B9B69FB633B6B59
:1042D0001B6893F9C731002B40F0D580FB6B002B96
:1042E0003FD03B6B1B69BB641DE0FB6C1B683B62F2
:1042F000FB6C5B68FB61FB6C0833FB643B6C013B54
:104300003B643B6AD9B2BA6CFB6B13440A461A7021
:10431000BA6CFB6B9B001344FA695A60FB6B013368
:1043200003F00303FB633B6C002B02D0FB6B002B01
:10433000DBD1FB6B002B14D13B6BFA6B9A613B6BAF
:104340001B6903F114023B6B1A613B6BDB695A1E5C
:104350003B6BDA613B6BDB69012B02D8386BFFF7F3
:1043600043FBFB6B002B40F08E8000237B6444E01A
:104370003B6B1B69BB64FB6C1B68DAB2BB6C1A70CD
:10438000FB6C08331B68DAB2BB6C5A70FB6C1033E1
:104390001B68DAB2BB6C9A70FB6C18331B68DAB21C
:1043A000BB6CDA70FB6C5A68BB6C5A60FB6C0833F0
:1043B0005A68BB6C9A60FB6C10335A68BB6CDA604D
:1043C000FB6C18335A68BB6C1A613B6B1B6903F1B9
:1043D00014023B6B1A613B6BDB695A1E3B6BDA6163
:1043E0003B6BDB69012B02D8386BFFF7FDFAFB6CE6
:1043F0002033FB647B6C01337B643B6C9B087A6CE1
:104400009A4205D23B6B1B6893F9C731002BAFD0A2
:104410003B6C03F003033B6400237B6429E000BF93
:10442000283B0102FB6C1B68BB61FB6C5B687B611A
:10443000FB6C0833FB643B6B9B69FB633B6B1B6949
:10444000BB64BB69D9B2BA6CFB6B13440A461A70E1
:10445000BA6CFB6B9B0013447A695A60FB6B0133A7
:1044600003F00303FB633B6BFA6B9A617B6C0133D4
:104470007B647A6C3B6C9A4205D23B6B1B6893F968
:10448000C731002BCED07B6BD3F8B4217B6BC3F844
:10449000B8217B6B4022C3F8BC2100BF5037BD461A
:1044A00080BD00BF80B588B002AF78607B681B68B4
:1044B0009B693B617B68DB687B617B689B68FB6019
:1044C0007B681B689B6E03F00103002B3DD122E04B
:1044D0007B691B68002B09D07B69DB68002B05D04A
:1044E0007B691B681A697B69DB681A607B691969DB
:1044F0007B6958687B699A6813469B0013449B004C
:104500001A46002300931346024638690DF0E4F87A
:104510007B691B687B617A69FB689A42D8D17B69A9
:1045200019697B6958687B699A687B68DB69D21A6C
:1045300013469B0013449B001A4600230093134626
:10454000024638690DF0C8F800E000BF1837BD46D4
:1045500080BD80B586B000AF78607B681B689B69C2
:104560003B617B68DB687B617B689B68FB607B6889
:104570001B689B6E03F00103002B25D10FE07B69C4
:1045800059687B699A6813469B0013449B000A464E
:10459000042138690DF0B1F87B691B687B617A6989
:1045A000FB689A42EBD17B6959687B699A687B68A2
:1045B000DB69D21A13469B0013449B000A46042170
:1045C00038690DF09AF800E000BF1837BD4680BD8D
:1045D00080B586B000AF78607B681B689B693B61E3
:1045E0007B68DB687B617B689B68FB607B681B6822
:1045F0009B6E03F00103002B33D11DE07B691B6828
:10460000002B09D07B69DB68002B05D07B691B6818
:104610001A697B69DB681A607B6919697B699A682A
:1046200013469B0013449B000A46042138690DF091
:1046300064F87B691B687B617A69FB689A42DDD10B
:104640007B6919697B699A687B68DB69D21A1346B2
:104650009B0013449B000A46042138690DF04DF875
:1046600000E000BF1837BD4680BD80B485B000AF04
:10467000786039603B681B6BBB600023FB6008E01F
:10468000FB689B00BA68134400221A60FB68013380
:10469000FB603B68B3F934301A46FB689342EFDBAA
:1046A0003B680022DA8600BF1437BD465DF8047B04
:1046B000704780B588B000AFF860B9607A60BB68B9
:1046C0001B6BBB61BB68B3F936307B61BB68B3F968
:1046D0003430013B7A699A422BDBBB68B3F9343042
:1046E0009BB210339BB21AB2BB689A86BB68B3F90F
:1046F00034309800BB681B6B0122194604F040F867
:104700000246BB681A63BB681B6BBB617B69FB61BC
:1047100008E0FB699B00BA69134400221A60FB6938
:104720000133FB61BB68B3F934301A46FB6993422D
:10473000EFDB7B699B00BA6913447A681A607B6976
:104740009BB201339BB21AB2BB68DA867B699B00CD
:10475000BA69134418462037BD4680BD80B483B083
:1047600000AF786039603B685AB27B6883F8C62135
:104770003B6818460C37BD465DF8047B704780B532
:1047800084B000AF786039603B6803F04003002BD1
:1047900002D00023FB6003E0702003F0DAFFF86032
:1047A00000217868FFF7DAFFFB6818461037BD462E
:1047B00080BDFFFF80B584B000AF78604FF4EA7031
:1047C00003F0C7FFB860BB68002B00F0C580BB6872
:1047D0007A689A66BB68002283F8C621BB6800220B
:1047E00083F8C721BB6800229A61BB680022DA61A6
:1047F000BB6802229A64BB680022DA64BB680022AC
:104800001A65BB684FF400125A65B868FDF7AAFF35
:104810000246BB681A62BB681A6ABB685A62BB6808
:104820001A6ABB689A62BB681A6ABB68DA627968FE
:10483000B868FFF7A4FF0246BB681A63BB68002292
:104840005A63BB6800229A63BB68002283F8C421C4
:10485000BB680022DA63BB6800221A64BB680022CE
:104860005A64BB6801225A66BB680022A3F86C2018
:10487000BB680022A3F86E20BB680022A3F870205A
:10488000BB680022A3F87220BB680022A3F8742042
:10489000BB680022A3F87620BB680022A3F878202A
:1048A000BB6800221A61BB6800225A61BB68002203
:1048B000DA60BB6800229A60BB6800225A60BB685D
:1048C0003322C3F88820BB680522DA657B6803F0D1
:1048D0000403002B05D0BB68DB6D23F00102BB682D
:1048E000DA657B6803F00803002B05D0BB68DB6D3D
:1048F00023F00402BB68DA65BB6800221A66BB6855
:104900000022DA670023FB6010E0BA68FB682233FC
:104910009B00134400225A60BA68FB68134403F5F5
:10492000BC7300221A70FB680133FB60FB683A2BF2
:10493000EBDDBB680022C3F88020BB68002283F84F
:10494000C821BB68082283F8C521064B1A68BB68DA
:104950001A60044ABB681360BB6818461037BD462E
:1049600080BD00BF0033002280B485B000AF786006
:104970007B68002B0BD07B6893F9C631FB60FB682A
:10498000002B06D17B6893F9C731FB6001E002235D
:10499000FB60FB6818461437BD465DF8047B704722
:1049A00080B582B000AF78607868FFF7DDFF03461E
:1049B000184601F063F9034618460837BD4680BD26
:1049C00090B587B000AF786039607B683B6139682B
:1049D000786801F093FB02463B699A613B699B69E9
:1049E000002B05D105217868FFF7B8FE0346A7E044
:1049F00000237B6109E03A697B69134403F5BC73CA
:104A000000221A707B6901337B617B693A2BF2DDEE
:104A10003B69DB6F002B1DD03B69DB6FFB603B69A3
:104A2000D3F8883019467868FEF715FE0246FB6811
:104A30001A603B69D3F88820FB681C6811467868C7
:104A4000FEF709FE03462360FB681B681B68FA68D3
:104A500012681A603B69D3F888103B69D3F8883034
:104A60001A46786804F051FC02463B691A613B69BA
:104A7000D3F888103B69D3F888301A46786804F078
:104A800044FC02463B695A613B691B69002B03D019
:104A90003B695B69002B05D101217868FFF75EFE59
:104AA00001234DE03B691A693B69DA603B691B6988
:104AB0001A463B699A603B695B691A463B695A60D2
:104AC0003B6900225A634FF4007003F042FE024635
:104AD0003B69C3F8B4213B69D3F8B4213B69C3F8FF
:104AE000B8213B694022C3F8BC213B69164AC3F890
:104AF000C0213B69002283F8C9213B699B690A21D7
:104B000018460CF0E2FB0346002B14D03B69986971
:104B1000FF2300220A210CF07BFB3B699B690022EA
:104B20000A2118460CF0AEFB0346FF2B03D13B696C
:104B3000012283F8C92100217868FFF70FFE0346A0
:104B400018461C37BD4690BD7541000280B483B045
:104B500000AF78607B689B6918460C37BD465DF8EE
:104B6000047B704780B584B000AF786039607B68A3
:104B7000002B01D1022338E07B685B6EFB60FA6892
:104B80003B689A4205D100217868FFF7E7FD0346AC
:104B90002BE0FA683B689A4208D0FB68082B05D0E6
:104BA0003B68082B02D0786800F023F87B683A68ED
:104BB0005A667B685B6A93F80E217B685B6A42F0F9
:104BC0000102D2B283F80E21FB68082B02D178686B
:104BD00004F0DCFD3B68082B02D1786804F090FDFE
:104BE00000217868FFF7BAFD034618461037BD4626
:104BF00080BD80B582B000AF7860786804F0F6FDC3
:104C00007B685B6A93F80E217B685B6A42F0010265
:104C1000D2B283F80E2100217868FFF79FFD03468A
:104C200018460837BD4680BD80B582B000AF7860B9
:104C30007B68002B08D0786801F0C7FA00217868FB
:104C4000FFF78CFD034600E0022318460837BD46F7
:104C500080BD90B58DB000AFF8607B600B467B8166
:104C600013463B817B6C03F00103002B02D0002331
:104C7000FB6203E0BB6CD3F81031FB627B6C03F08A
:104C80000203002B02D00023BB6203E0BB6CD3F80D
:104C90001031BB62BB6CD3F810311B011C467B6822
:104CA00003FB03F23B6C03FB03F31344184603F0CE
:104CB00049FC034694FBF3F37B62FB6C002B02D0B0
:104CC000FB6C7A6A1A603B6C5B427A6A02FB03F304
:104CD0001B113B627B687A6A02FB03F31B11FB61C9
:104CE000B7F90A305B423A6A03FB02F2B7F90830BF
:104CF000F96901FB03F3D31A1B11BB61B7F90A3041
:104D00005B42FA6903FB02F2B7F90830396A01FB2A
:104D100003F313441B117B61B7F90A207B6813442A
:104D2000FA6903FB02F2B7F908103B6C0B44396ACD
:104D300001FB03F3D31A1B113B61BB6CD3F8103199
:104D40005B081A46BB691A44FB681A60FB683A6A3A
:104D50005A60FB68FA699A60FB680C337969FA6AF1
:104D60000A441A60FB680C33FA695A60FB680C331A
:104D70003A6A52429A60FB6818333969BA6A0A443F
:104D80001A60FB681833FA6952425A60FB6818339C
:104D90003A6A9A6000BF3437BD4690BD80B58CB08A
:104DA00000AFF8607B600B467B8113463B81FB6B59
:104DB00003F00103002B02D00023FB6202E04FF45A
:104DC0008033FB62FB6B03F00203002B02D0002355
:104DD000BB6202E04FF48033BB627B6803FB03F2EB
:104DE000BB6B03FB03F31344184603F0ABFB034612
:104DF0004FF4801292FBF3F37B623B6C002B02D0EA
:104E00003B6C7A6A1A60BB6B5B427A6A02FB03F303
:104E10001B113B627B687A6A02FB03F31B11FB6187
:104E2000B7F90A305B423A6A03FB02F2B7F908307D
:104E3000F96901FB03F3D31A1B11BB61B7F90A30FF
:104E40005B42FA6903FB02F2B7F90830396A01FBE9
:104E500003F313441B117B61B7F90A207B681344E9
:104E6000FA6903FB02F2B7F90810BB6B0B44396A0D
:104E700001FB03F3D31A1B113B61BB6903F500422D
:104E8000FB681A60FB683A6A5A60FB68FA699A60C4
:104E9000FB680C337969FA6A0A441A60FB680C33C0
:104EA000FA695A60FB680C333A6A52429A60FB68AE
:104EB00018333969BA6A0A441A60FB681833FA6908
:104EC00052425A60FB6818333A6A9A6000BF303722
:104ED000BD4680BD80B48DB000AFF8607B600B46EE
:104EE0007B8113463B81FB6B03F00103002B02D057
:104EF0000023BB6102E04FF48033BB61FB6B03F026
:104F00000203002B02D000237B6102E04FF48033C8
:104F10007B617B68002B80F2F080BB6B002B77DA23
:104F20007A68BB6B9A4238DABB6B1A047B6892FBD7
:104F3000F3F33B61B7F908301A03B7F90A3039695E
:104F400001FB03F31B11D31A7B62B7F90A301A0372
:104F5000B7F90830396901FB03F31B1113443B62B5
:104F6000B7F90A207B6813441B035A42B7F90810AB
:104F7000BB6B0B44396901FB03F31B11D31AFB61B3
:104F80003B69FB629B4BBB623B6C002B00F0A88132
:104F90007B685A423B6C1A60A2E17B681A04BB6BC7
:104FA0005B4292FBF3F33B61B7F90A305B421A03B1
:104FB000B7F90830396901FB03F31B11D31A7B627F
:104FC000B7F908301A03B7F90A30396901FB03F35E
:104FD0001B11D31A3B62B7F90A207B6813443A6964
:104FE00002FB03F31A11B7F90810BB6B0B441B0348
:104FF000D31AFB614FF48033FB623B69BB623B6CAD
:10500000002B00F06D81BB6B5A423B6C1A6067E16C
:105010007B685B42BA6B9A4237DABB6B1A047B68D7
:1050200092FBF3F33B61B7F908301A03B7F90A3082
:10503000396901FB03F31B11D31A7B62B7F90A30FC
:105040001A03B7F90830396901FB03F31B11134444
:105050003B62B7F90A207B6813441B035A42B7F935
:105060000810BB6B0B44396901FB03F31B11D31A06
:10507000FB613B69FB625F4BBB623B6C002B00F04A
:105080002F813B6C7A681A602AE17B681A04BB6B3B
:1050900092FBF3F33B61B7F90A301A03B7F9083012
:1050A000396901FB03F31B11D31A7B62B7F908308E
:1050B0005B421A03B7F90A30396901FB03F31B118C
:1050C000D31A3B62B7F90A207B6813443A6902FBA2
:1050D00003F31A11B7F90810BB6B0B441B031344FD
:1050E000FB61444BFB623B69BB623B6C002B00F0F5
:1050F000F7803B6CBA6B1A60F2E0BB6B002B7BDA7B
:10510000BB6B5B427A689A423ADDBB6B1A047B68E0
:105110005B4292FBF3F33B61B7F908305B421A0341
:10512000B7F90A30396901FB03F31B11D31A7B620B
:10513000B7F90A305B421A03B7F90830396901FB45
:1051400003F31B1113443B62B7F90A207B68134435
:105150001A03B7F90810BB6B0B44396901FB03F361
:105160001B11D31AFB613B69FB624FF48033BB62B6
:105170003B6C002B00F0B4803B6C7A681A60AFE0A7
:105180007B681A04BB6B5B4292FBF3F33B61B7F99C
:105190000A305B421A03B7F90830396901FB03F39F
:1051A0001B11D31A7B62B7F908301A03B7F90A301A
:1051B000396901FB03F31B11D31A3B62B7F90A20CB
:1051C0007B6813443A6902FB03F31A11B7F908101C
:1051D000BB6B0B441B03D31AFB614FF48033FB62A0
:1051E0003B69BB623B6C002B7AD0BB6B5A423B6C79
:1051F0001A6075E00000FFFF7A68BB6B9A4239DDE8
:10520000BB6B1A047B685B4292FBF3F33B61B7F91B
:1052100008305B421A03B7F90A30396901FB03F31E
:105220001B11D31A7B62B7F90A305B421A03B7F934
:105230000830396901FB03F31B1113443B62B7F9D2
:105240000A207B6813441A03B7F90810BB6B0B44A0
:10525000396901FB03F31B11D31AFB613B69FB6244
:105260004FF48033BB623B6C002B39D03B6C7A68C7
:105270001A6035E07B681A04BB6B92FBF3F33B6169
:10528000B7F90A301A03B7F90830396901FB03F39B
:105290001B11D31A7B62B7F908305B421A03B7F9C6
:1052A0000A30396901FB03F31B11D31A3B62B7F9CA
:1052B0000A207B6813443A6902FB03F31A11B7F919
:1052C0000810BB6B0B441B031344FB611C4BFB62BC
:1052D0003B69BB623B6C002B02D03B6CBA6B1A6023
:1052E0007B6A03F50042FB681A60FB68FA6A5A6041
:1052F000FB68BA6A9A60FB680C33396ABA690A4477
:105300001A60FB680C33BA6A5A60FB680C33FA6A9D
:1053100052429A60FB681833F9697A690A441A6044
:10532000FB681833BA6A52425A60FB681833FA6A4B
:105330009A6000BF3437BD465DF8047B704700BFFC
:105340000000FFFF80B489B000AFF8607B600B46BF
:105350007B8113463B817B68002B71DABB6A002B93
:105360003DDA7B689AB27B8913449BB27B81BB6A2E
:105370009AB23B8913449BB23B817A68BB6A9A42DA
:1053800017DD7B681A04BB6A92FBF3F33B61B7F944
:1053900008303A6902FB03F31A11B7F90A301B030C
:1053A000D31AFB614FF48033BB613B695B427B6185
:1053B000BBE0BB6A1A047B6892FBF3F33B61B7F96D
:1053C00008301A03B7F90A30396901FB03F31B11DE
:1053D000D31AFB613B69BB615E4B7B61A5E07B68D7
:1053E0005B42BA6A9A4215DABB6A1A047B6892FB7E
:1053F000F3F33B61B7F908301A03B7F90A3039699A
:1054000001FB03F31B11D31AFB613B69BB61514BD9
:105410007B618AE07B681A04BB6A92FBF3F33B6111
:10542000B7F90A301A03B7F90830396901FB03F3F9
:105430001B11D31AFB61474BBB613B697B6174E075
:10544000BB6A002B40DA7B689AB27B8913449BB21B
:105450007B81BB6A9AB23B8913449BB23B81BB6A96
:105460005B427A689A4217DDBB6A1A047B6892FB3A
:10547000F3F33B61B7F90A303A6902FB03F31A11FF
:10548000B7F908301B03D31AFB613B695B42BB6170
:105490004FF480337B6148E07B681A04BB6A92FB5F
:1054A000F3F33B61B7F908303A6902FB03F31A11D1
:1054B000B7F90A301B03D31AFB614FF48033BB6189
:1054C0003B695B427B6130E07A68BB6A9A4217DDD8
:1054D000BB6A1A047B6892FBF3F33B61B7F90A30AD
:1054E0003A6902FB03F31A11B7F908301B03D31A08
:1054F000FB613B695B42BB614FF480337B6114E02D
:105500007B681A04BB6A92FBF3F33B61B7F90A307C
:105510001A03B7F90830396901FB03F31B11D31AD9
:10552000FB610C4BBB613B697B61FB6A002B02D0CA
:10553000FB690133FB61FB68FA691A60FB68BA69B1
:105540005A60FB687A699A6000BF2437BD465DF8EF
:10555000047B70470000FFFF2DE9B00FB7B000AF2C
:10556000C7F8B400C7F8AC300B46A7F8B230134602
:10557000A7F8B030D7F8FC30D3F81031C7F8C830EE
:10558000D7F8AC30002B80F25C81D7F8F830002BD4
:1055900080F2B480D7F8AC309AB2B7F8B230134486
:1055A0009BB2A7F8B230D7F8F8309AB2B7F8B0305B
:1055B00013449BB2A7F8B030D7F8AC20D7F8F83036
:1055C0009A424DDDD7F8AC301A04D7F8F83092FB88
:1055D000F3F3DA17BB67FA67D7E91E23C7E930236D
:1055E000B7F9B010D7E93023134601FB03F31A11C2
:1055F000B7F9B2301B03D31AC7F8D430D7F8C83084
:10560000C7F8D030D7F8C830DA173B677A67D7E9E0
:105610003023D7E91C45294602FB01F0214601FB56
:1056200003F101442046A0FB0223C7F8A43013462F
:10563000C7F8A030D7F8A430CB18C7F8A430D7E902
:105640002823C7E92E23D7E92E2352EA2F43C7E99F
:105650003023D7E9302313465B42C7F8CC302FE222
:10566000D7F8F8301A04D7F8AC3092FBF3F3DA1716
:10567000BB66FA66D7E91A23C7E93023B7F9B03019
:105680001903B7F9B200D7E93023134600FB03F33F
:105690001B11CB1AC7F8D430D7F8C830DA173B66DD
:1056A0007A66D7E93023D7E91845294602FB01F08D
:1056B000214601FB03F101442046A0FB0223C7F869
:1056C0009C301346C7F89830D7F89C30CB18C7F8F1
:1056D0009C30D7E92623C7E92E23D7E92E2352EAA7
:1056E0002F43C7E93023D7E930231346C7F8D0301A
:1056F000D7F8C8305B42C7F8CC30E1E1D7F8AC301E
:105700005B42D7F8F8209A424DDAD7F8F8301A04FD
:10571000D7F8AC3092FBF3F3DA17BB65FA65D7E93B
:105720001623C7E93023B7F9B0301903B7F9B2002F
:10573000D7E93023134600FB03F31B11CB1AC7F83C
:10574000D430D7F8C830DA173B657A65D7E930230B
:10575000D7E91445294602FB01F0214601FB03F17C
:1057600001442046A0FB0223C7F894301346C7F833
:105770009030D7F89430CB18C7F89430D7E9242369
:10578000C7E92E23D7E92E2352EA2F43C7E9302356
:10579000D7E930231346C7F8D030D7F8C8305B427A
:1057A000C7F8CC308CE1D7F8AC301A04D7F8F83011
:1057B00092FBF3F3DA17BB64FA64D7E91223C7E963
:1057C0003023B7F9B2301903B7F9B000D7E9302365
:1057D000134600FB03F31B11CB1AC7F8D430D7F8DC
:1057E000C8305B42C7F8D030D7F8C830DA173B640E
:1057F0007A64D7E93023D7E91045294602FB01F046
:10580000214601FB03F101442046A0FB0223C7F817
:105810008C301346C7F88830D7F88C30CB18C7F8CF
:105820008C30D7E92223C7E92E23D7E92E2352EA69
:105830002F43C7E93023D7E930231346C7F8CC30CC
:105840003EE1D7F8F830002B80F2AC80D7F8AC30CE
:105850009AB2B7F8B23013449BB2A7F8B230D7F877
:10586000F8309AB2B7F8B03013449BB2A7F8B03012
:10587000D7F8F8305B42D7F8AC209A424DDDD7F824
:10588000F8301A04D7F8AC3092FBF3F3DA17BB63A5
:10589000FA63D7E90E23C7E93023B7F9B210D7E985
:1058A0003023134601FB03F31A11B7F9B0301B0381
:1058B000D31AC7F8D430D7F8C830DA173B637A6305
:1058C000D7E93023D7E90C45294602FB01F02146F0
:1058D00001FB03F101442046A0FB0223C7F88430FA
:1058E0001346C7F88030D7F88430CB18C7F8843017
:1058F000D7E92023C7E92E23D7E92E2352EA2F43E5
:10590000C7E93023D7E9302313465B42C7F8D030CC
:10591000D7F8C830C7F8CC30D2E0D7F8AC301A048A
:10592000D7F8F83092FBF3F3DA17BB62FA62D7E9E3
:105930000A23C7E93023B7F9B010D7E9302313465B
:1059400001FB03F31A11B7F9B2301B03D31AC7F8DE
:10595000D430D7F8C830C7F8D030D7F8C830DA1705
:105960003B627A62D7E93023D7E90845294602FB32
:1059700001F0214601FB03F101442046A0FB02ABEC
:1059800001EB0B039B46C7E92EABD7E92E2352EA66
:105990002F43C7E93023D7E9302313465B42C7F8CA
:1059A000CC308DE0D7F8AC20D7F8F8309A4244DDFF
:1059B000D7F8F8301A04D7F8AC3092FBF3F3DA17C3
:1059C000BB61FA61D7E90623C7E93023B7F9B21002
:1059D000D7E93023134601FB03F31A11B7F9B030AE
:1059E0001B03D31AC7F8D430D7F8C830DA173B6195
:1059F0007A61D7E93023D7E90445294602FB01F053
:105A0000214601FB03F101442046A0FB028901EB82
:105A100009039946C7E92E89D7E92E2352EA2F4375
:105A2000C7E93023D7E9302313465B42C7F8D030AB
:105A3000D7F8C830C7F8CC3042E0D7F8AC301A04F9
:105A4000D7F8F83092FBF3F3DA17BB60FA60D7E9C6
:105A50000223C7E93023B7F9B2301903B7F9B00010
:105A6000D7E93023134600FB03F31B11CB1AC7F809
:105A7000D430D7F8C8305B42C7F8D030D7F8C83038
:105A8000DA173B607A60D7E93023D7E900894946C5
:105A900002FB01F0414601FB03F101444046A0FB3B
:105AA00002454B191D46C7E92E45D7E92E2352EA78
:105AB0002F43C7E93023D7E930231346C7F8CC304A
:105AC000D7F8D4301B01D7F8FC20B2F9142093FB8F
:105AD000F2F3C7F8D430D7F8C830DA0F13445B10AC
